{
  "contracts/NftMktplace.sol": {
    "ERC721Marketplace": {
      "abi": [
        {
          "inputs": [
            {
              "internalType": "address payable",
              "name": "vault",
              "type": "address"
            }
          ],
          "stateMutability": "nonpayable",
          "type": "constructor"
        },
        {
          "anonymous": false,
          "inputs": [
            {
              "indexed": false,
              "internalType": "address",
              "name": "sender",
              "type": "address"
            },
            {
              "indexed": false,
              "internalType": "address",
              "name": "newOwner",
              "type": "address"
            }
          ],
          "name": "AcceptPendingAdmin",
          "type": "event"
        },
        {
          "anonymous": false,
          "inputs": [
            {
              "indexed": true,
              "internalType": "address",
              "name": "previousAdmin",
              "type": "address"
            },
            {
              "indexed": true,
              "internalType": "address",
              "name": "newOwner",
              "type": "address"
            }
          ],
          "name": "AdminTransferred",
          "type": "event"
        },
        {
          "anonymous": false,
          "inputs": [
            {
              "indexed": false,
              "internalType": "address",
              "name": "owner",
              "type": "address"
            },
            {
              "indexed": false,
              "internalType": "uint256",
              "name": "id",
              "type": "uint256"
            },
            {
              "indexed": false,
              "internalType": "address",
              "name": "token",
              "type": "address"
            },
            {
              "indexed": false,
              "internalType": "uint256",
              "name": "tokenId",
              "type": "uint256"
            },
            {
              "indexed": false,
              "internalType": "uint256",
              "name": "_basePrice",
              "type": "uint256"
            },
            {
              "indexed": false,
              "internalType": "address",
              "name": "paymentMethod",
              "type": "address"
            }
          ],
          "name": "AuctionCreated",
          "type": "event"
        },
        {
          "anonymous": false,
          "inputs": [
            {
              "indexed": false,
              "internalType": "address",
              "name": "bidder",
              "type": "address"
            },
            {
              "indexed": false,
              "internalType": "uint256",
              "name": "id",
              "type": "uint256"
            },
            {
              "indexed": false,
              "internalType": "address",
              "name": "token",
              "type": "address"
            },
            {
              "indexed": false,
              "internalType": "uint256",
              "name": "tokenId",
              "type": "uint256"
            },
            {
              "indexed": false,
              "internalType": "uint256",
              "name": "bidValue",
              "type": "uint256"
            }
          ],
          "name": "BidMade",
          "type": "event"
        },
        {
          "anonymous": false,
          "inputs": [
            {
              "indexed": false,
              "internalType": "uint256",
              "name": "id",
              "type": "uint256"
            },
            {
              "indexed": false,
              "internalType": "address",
              "name": "token",
              "type": "address"
            },
            {
              "indexed": false,
              "internalType": "uint256",
              "name": "_tokenId",
              "type": "uint256"
            }
          ],
          "name": "Cancelled",
          "type": "event"
        },
        {
          "anonymous": false,
          "inputs": [
            {
              "indexed": false,
              "internalType": "address",
              "name": "sender",
              "type": "address"
            },
            {
              "indexed": false,
              "internalType": "address",
              "name": "newOwner",
              "type": "address"
            }
          ],
          "name": "ChangeAdmin",
          "type": "event"
        },
        {
          "anonymous": false,
          "inputs": [
            {
              "indexed": false,
              "internalType": "uint256",
              "name": "auctionId",
              "type": "uint256"
            },
            {
              "indexed": false,
              "internalType": "address",
              "name": "token",
              "type": "address"
            },
            {
              "indexed": false,
              "internalType": "uint256",
              "name": "tokenId",
              "type": "uint256"
            },
            {
              "indexed": false,
              "internalType": "uint256",
              "name": "ownerPayment",
              "type": "uint256"
            },
            {
              "indexed": false,
              "internalType": "uint256",
              "name": "total",
              "type": "uint256"
            }
          ],
          "name": "Executed",
          "type": "event"
        },
        {
          "anonymous": false,
          "inputs": [
            {
              "indexed": false,
              "internalType": "uint256",
              "name": "auctionId",
              "type": "uint256"
            },
            {
              "indexed": false,
              "internalType": "address",
              "name": "token",
              "type": "address"
            },
            {
              "indexed": false,
              "internalType": "uint256",
              "name": "tokenId",
              "type": "uint256"
            },
            {
              "indexed": false,
              "internalType": "uint256",
              "name": "oldFees",
              "type": "uint256"
            },
            {
              "indexed": false,
              "internalType": "uint256",
              "name": "newFees",
              "type": "uint256"
            }
          ],
          "name": "FeesUpdated",
          "type": "event"
        },
        {
          "anonymous": false,
          "inputs": [
            {
              "indexed": false,
              "internalType": "uint256",
              "name": "auctionId",
              "type": "uint256"
            },
            {
              "indexed": false,
              "internalType": "address",
              "name": "oldAddress",
              "type": "address"
            },
            {
              "indexed": false,
              "internalType": "address",
              "name": "newAddress",
              "type": "address"
            }
          ],
          "name": "OwnerChangedAddress",
          "type": "event"
        },
        {
          "anonymous": false,
          "inputs": [
            {
              "indexed": false,
              "internalType": "uint256",
              "name": "auctionId",
              "type": "uint256"
            },
            {
              "indexed": false,
              "internalType": "uint256",
              "name": "oldPrice",
              "type": "uint256"
            },
            {
              "indexed": false,
              "internalType": "uint256",
              "name": "newPrice",
              "type": "uint256"
            }
          ],
          "name": "PriceUpdated",
          "type": "event"
        },
        {
          "anonymous": false,
          "inputs": [
            {
              "indexed": false,
              "internalType": "uint256",
              "name": "auctionId",
              "type": "uint256"
            },
            {
              "indexed": false,
              "internalType": "address",
              "name": "to",
              "type": "address"
            },
            {
              "indexed": false,
              "internalType": "uint256",
              "name": "value",
              "type": "uint256"
            },
            {
              "indexed": false,
              "internalType": "address",
              "name": "paymentMethod",
              "type": "address"
            }
          ],
          "name": "ReferralPaid",
          "type": "event"
        },
        {
          "anonymous": false,
          "inputs": [
            {
              "indexed": false,
              "internalType": "address",
              "name": "sender",
              "type": "address"
            },
            {
              "indexed": false,
              "internalType": "address",
              "name": "newOwner",
              "type": "address"
            }
          ],
          "name": "RejectPendingAdmin",
          "type": "event"
        },
        {
          "anonymous": false,
          "inputs": [
            {
              "indexed": false,
              "internalType": "uint256",
              "name": "auctionId",
              "type": "uint256"
            },
            {
              "indexed": false,
              "internalType": "address",
              "name": "to",
              "type": "address"
            },
            {
              "indexed": false,
              "internalType": "uint256",
              "name": "value",
              "type": "uint256"
            },
            {
              "indexed": false,
              "internalType": "address",
              "name": "paymentMethod",
              "type": "address"
            }
          ],
          "name": "RoyaltyPaid",
          "type": "event"
        },
        {
          "anonymous": false,
          "inputs": [
            {
              "indexed": false,
              "internalType": "uint256",
              "name": "id",
              "type": "uint256"
            },
            {
              "indexed": false,
              "internalType": "address",
              "name": "to",
              "type": "address"
            },
            {
              "indexed": false,
              "internalType": "uint256",
              "name": "value",
              "type": "uint256"
            }
          ],
          "name": "SplitPayment",
          "type": "event"
        },
        {
          "anonymous": false,
          "inputs": [
            {
              "indexed": false,
              "internalType": "uint256",
              "name": "auctionId",
              "type": "uint256"
            },
            {
              "indexed": false,
              "internalType": "address",
              "name": "oldPaymentMtd",
              "type": "address"
            },
            {
              "indexed": false,
              "internalType": "address",
              "name": "newPaymentMtd",
              "type": "address"
            }
          ],
          "name": "UpdatePaymentMethod",
          "type": "event"
        },
        {
          "inputs": [],
          "name": "ROYALTY_REGISTRY",
          "outputs": [
            {
              "internalType": "contract IRegistry",
              "name": "",
              "type": "address"
            }
          ],
          "stateMutability": "view",
          "type": "function"
        },
        {
          "inputs": [],
          "name": "acceptPendingAdmin",
          "outputs": [],
          "stateMutability": "nonpayable",
          "type": "function"
        },
        {
          "inputs": [
            {
              "internalType": "address",
              "name": "ERC721Token",
              "type": "address"
            }
          ],
          "name": "addDelfyERC721",
          "outputs": [],
          "stateMutability": "nonpayable",
          "type": "function"
        },
        {
          "inputs": [
            {
              "internalType": "address",
              "name": "royaltyRegisty",
              "type": "address"
            }
          ],
          "name": "addRoyaltyRegistry",
          "outputs": [],
          "stateMutability": "nonpayable",
          "type": "function"
        },
        {
          "inputs": [
            {
              "internalType": "address[]",
              "name": "_tokens",
              "type": "address[]"
            }
          ],
          "name": "addSupportedpaymentMethods",
          "outputs": [],
          "stateMutability": "nonpayable",
          "type": "function"
        },
        {
          "inputs": [],
          "name": "admin",
          "outputs": [
            {
              "internalType": "address",
              "name": "",
              "type": "address"
            }
          ],
          "stateMutability": "view",
          "type": "function"
        },
        {
          "inputs": [
            {
              "internalType": "uint256",
              "name": "auctionId",
              "type": "uint256"
            }
          ],
          "name": "adminCancelAuction",
          "outputs": [],
          "stateMutability": "nonpayable",
          "type": "function"
        },
        {
          "inputs": [],
          "name": "bidExtension",
          "outputs": [
            {
              "internalType": "uint256",
              "name": "",
              "type": "uint256"
            }
          ],
          "stateMutability": "view",
          "type": "function"
        },
        {
          "inputs": [],
          "name": "bidWindow",
          "outputs": [
            {
              "internalType": "uint256",
              "name": "",
              "type": "uint256"
            }
          ],
          "stateMutability": "view",
          "type": "function"
        },
        {
          "inputs": [
            {
              "internalType": "uint256",
              "name": "_auctionId",
              "type": "uint256"
            }
          ],
          "name": "cancelAuction",
          "outputs": [
            {
              "internalType": "bool",
              "name": "",
              "type": "bool"
            }
          ],
          "stateMutability": "nonpayable",
          "type": "function"
        },
        {
          "inputs": [
            {
              "internalType": "address",
              "name": "_admin",
              "type": "address"
            }
          ],
          "name": "changeAdmin",
          "outputs": [],
          "stateMutability": "nonpayable",
          "type": "function"
        },
        {
          "inputs": [],
          "name": "changeAdminDelay",
          "outputs": [
            {
              "internalType": "uint256",
              "name": "",
              "type": "uint256"
            }
          ],
          "stateMutability": "view",
          "type": "function"
        },
        {
          "inputs": [
            {
              "internalType": "uint256",
              "name": "auctionId",
              "type": "uint256"
            },
            {
              "internalType": "address payable",
              "name": "newOwner",
              "type": "address"
            }
          ],
          "name": "changeAuctionOwnerAddress",
          "outputs": [],
          "stateMutability": "nonpayable",
          "type": "function"
        },
        {
          "inputs": [
            {
              "internalType": "uint256",
              "name": "_auctionId",
              "type": "uint256"
            }
          ],
          "name": "closeAuction",
          "outputs": [
            {
              "internalType": "bool",
              "name": "",
              "type": "bool"
            }
          ],
          "stateMutability": "payable",
          "type": "function"
        },
        {
          "inputs": [
            {
              "components": [
                {
                  "internalType": "address payable",
                  "name": "to",
                  "type": "address"
                },
                {
                  "internalType": "uint256",
                  "name": "percent",
                  "type": "uint256"
                }
              ],
              "internalType": "struct IERC721MarketPlace.PaymentsTo[]",
              "name": "paymentsTo",
              "type": "tuple[]"
            },
            {
              "internalType": "address",
              "name": "_token",
              "type": "address"
            },
            {
              "internalType": "uint256",
              "name": "_tokenId",
              "type": "uint256"
            },
            {
              "internalType": "uint256",
              "name": "_basePrice",
              "type": "uint256"
            },
            {
              "internalType": "address",
              "name": "_paymentMethod",
              "type": "address"
            }
          ],
          "name": "createAuction",
          "outputs": [],
          "stateMutability": "nonpayable",
          "type": "function"
        },
        {
          "inputs": [
            {
              "internalType": "address",
              "name": "",
              "type": "address"
            },
            {
              "internalType": "uint256",
              "name": "",
              "type": "uint256"
            }
          ],
          "name": "creatorCut",
          "outputs": [
            {
              "internalType": "uint256",
              "name": "",
              "type": "uint256"
            }
          ],
          "stateMutability": "view",
          "type": "function"
        },
        {
          "inputs": [],
          "name": "delay",
          "outputs": [
            {
              "internalType": "uint256",
              "name": "",
              "type": "uint256"
            }
          ],
          "stateMutability": "view",
          "type": "function"
        },
        {
          "inputs": [],
          "name": "delfyERC721",
          "outputs": [
            {
              "internalType": "address",
              "name": "",
              "type": "address"
            }
          ],
          "stateMutability": "view",
          "type": "function"
        },
        {
          "inputs": [
            {
              "internalType": "uint256",
              "name": "",
              "type": "uint256"
            }
          ],
          "name": "getAuction",
          "outputs": [
            {
              "internalType": "address payable",
              "name": "owner",
              "type": "address"
            },
            {
              "internalType": "address",
              "name": "token",
              "type": "address"
            },
            {
              "internalType": "address",
              "name": "currentBidder",
              "type": "address"
            },
            {
              "internalType": "uint256",
              "name": "tokenId",
              "type": "uint256"
            },
            {
              "internalType": "uint256",
              "name": "basePrice",
              "type": "uint256"
            },
            {
              "internalType": "uint256",
              "name": "lastBidVal",
              "type": "uint256"
            },
            {
              "internalType": "address",
              "name": "paymentMethod",
              "type": "address"
            },
            {
              "internalType": "uint256",
              "name": "createdAt",
              "type": "uint256"
            },
            {
              "internalType": "uint256",
              "name": "id",
              "type": "uint256"
            },
            {
              "internalType": "enum IERC721MarketPlace.Status",
              "name": "status",
              "type": "uint8"
            },
            {
              "internalType": "uint256",
              "name": "closedAt",
              "type": "uint256"
            }
          ],
          "stateMutability": "view",
          "type": "function"
        },
        {
          "inputs": [],
          "name": "getAuctionIds",
          "outputs": [
            {
              "internalType": "uint256[]",
              "name": "",
              "type": "uint256[]"
            }
          ],
          "stateMutability": "view",
          "type": "function"
        },
        {
          "inputs": [
            {
              "internalType": "address",
              "name": "_creator",
              "type": "address"
            }
          ],
          "name": "getOwnerAuctions",
          "outputs": [
            {
              "internalType": "uint256[]",
              "name": "",
              "type": "uint256[]"
            }
          ],
          "stateMutability": "view",
          "type": "function"
        },
        {
          "inputs": [
            {
              "internalType": "address",
              "name": "token",
              "type": "address"
            },
            {
              "internalType": "uint256",
              "name": "tokenId",
              "type": "uint256"
            },
            {
              "internalType": "uint256",
              "name": "currentBidValue",
              "type": "uint256"
            }
          ],
          "name": "getOwnerPayment",
          "outputs": [
            {
              "internalType": "uint256",
              "name": "payment",
              "type": "uint256"
            }
          ],
          "stateMutability": "view",
          "type": "function"
        },
        {
          "inputs": [
            {
              "internalType": "address",
              "name": "_owner",
              "type": "address"
            },
            {
              "internalType": "address",
              "name": "_token",
              "type": "address"
            }
          ],
          "name": "getOwnerTokenIds",
          "outputs": [
            {
              "internalType": "uint256[]",
              "name": "ownerTokens",
              "type": "uint256[]"
            }
          ],
          "stateMutability": "view",
          "type": "function"
        },
        {
          "inputs": [
            {
              "internalType": "uint256",
              "name": "auctionId",
              "type": "uint256"
            }
          ],
          "name": "getPaymentTo",
          "outputs": [
            {
              "components": [
                {
                  "internalType": "address payable",
                  "name": "to",
                  "type": "address"
                },
                {
                  "internalType": "uint256",
                  "name": "percent",
                  "type": "uint256"
                }
              ],
              "internalType": "struct IERC721MarketPlace.PaymentsTo[]",
              "name": "",
              "type": "tuple[]"
            }
          ],
          "stateMutability": "view",
          "type": "function"
        },
        {
          "inputs": [
            {
              "internalType": "uint256",
              "name": "_auctionId",
              "type": "uint256"
            },
            {
              "internalType": "address",
              "name": "auctionOwner",
              "type": "address"
            },
            {
              "internalType": "uint256",
              "name": "currentBidValue",
              "type": "uint256"
            }
          ],
          "name": "getPlatformCut",
          "outputs": [
            {
              "internalType": "uint256",
              "name": "cutValue",
              "type": "uint256"
            },
            {
              "internalType": "uint256",
              "name": "refCut",
              "type": "uint256"
            },
            {
              "internalType": "uint256",
              "name": "_total",
              "type": "uint256"
            }
          ],
          "stateMutability": "view",
          "type": "function"
        },
        {
          "inputs": [
            {
              "internalType": "uint256",
              "name": "",
              "type": "uint256"
            }
          ],
          "name": "getRef",
          "outputs": [
            {
              "internalType": "address",
              "name": "",
              "type": "address"
            }
          ],
          "stateMutability": "view",
          "type": "function"
        },
        {
          "inputs": [
            {
              "internalType": "address",
              "name": "",
              "type": "address"
            },
            {
              "internalType": "address",
              "name": "",
              "type": "address"
            }
          ],
          "name": "getRefBonusPaidCount",
          "outputs": [
            {
              "internalType": "uint256",
              "name": "",
              "type": "uint256"
            }
          ],
          "stateMutability": "view",
          "type": "function"
        },
        {
          "inputs": [
            {
              "internalType": "address",
              "name": "",
              "type": "address"
            }
          ],
          "name": "isMinter",
          "outputs": [
            {
              "internalType": "bool",
              "name": "",
              "type": "bool"
            }
          ],
          "stateMutability": "view",
          "type": "function"
        },
        {
          "inputs": [
            {
              "internalType": "address",
              "name": "",
              "type": "address"
            }
          ],
          "name": "isSupportedPaymentMethod",
          "outputs": [
            {
              "internalType": "bool",
              "name": "",
              "type": "bool"
            }
          ],
          "stateMutability": "view",
          "type": "function"
        },
        {
          "inputs": [
            {
              "internalType": "uint256",
              "name": "_id",
              "type": "uint256"
            },
            {
              "internalType": "uint256",
              "name": "bidValue",
              "type": "uint256"
            }
          ],
          "name": "makeBid",
          "outputs": [],
          "stateMutability": "payable",
          "type": "function"
        },
        {
          "inputs": [
            {
              "internalType": "address",
              "name": "",
              "type": "address"
            },
            {
              "internalType": "address",
              "name": "",
              "type": "address"
            },
            {
              "internalType": "uint256",
              "name": "",
              "type": "uint256"
            },
            {
              "internalType": "bytes",
              "name": "",
              "type": "bytes"
            }
          ],
          "name": "onERC721Received",
          "outputs": [
            {
              "internalType": "bytes4",
              "name": "",
              "type": "bytes4"
            }
          ],
          "stateMutability": "pure",
          "type": "function"
        },
        {
          "inputs": [],
          "name": "pause",
          "outputs": [],
          "stateMutability": "nonpayable",
          "type": "function"
        },
        {
          "inputs": [],
          "name": "paused",
          "outputs": [
            {
              "internalType": "bool",
              "name": "",
              "type": "bool"
            }
          ],
          "stateMutability": "view",
          "type": "function"
        },
        {
          "inputs": [
            {
              "internalType": "uint256",
              "name": "",
              "type": "uint256"
            },
            {
              "internalType": "uint256",
              "name": "",
              "type": "uint256"
            }
          ],
          "name": "payTo",
          "outputs": [
            {
              "internalType": "address payable",
              "name": "to",
              "type": "address"
            },
            {
              "internalType": "uint256",
              "name": "percent",
              "type": "uint256"
            }
          ],
          "stateMutability": "view",
          "type": "function"
        },
        {
          "inputs": [],
          "name": "pendingAdmin",
          "outputs": [
            {
              "internalType": "address",
              "name": "",
              "type": "address"
            }
          ],
          "stateMutability": "view",
          "type": "function"
        },
        {
          "inputs": [],
          "name": "platformCut",
          "outputs": [
            {
              "internalType": "uint256",
              "name": "",
              "type": "uint256"
            }
          ],
          "stateMutability": "view",
          "type": "function"
        },
        {
          "inputs": [],
          "name": "platformVault",
          "outputs": [
            {
              "internalType": "address",
              "name": "",
              "type": "address"
            }
          ],
          "stateMutability": "view",
          "type": "function"
        },
        {
          "inputs": [],
          "name": "refBonus",
          "outputs": [
            {
              "internalType": "uint256",
              "name": "",
              "type": "uint256"
            }
          ],
          "stateMutability": "view",
          "type": "function"
        },
        {
          "inputs": [],
          "name": "refBonusLimit",
          "outputs": [
            {
              "internalType": "uint256",
              "name": "",
              "type": "uint256"
            }
          ],
          "stateMutability": "view",
          "type": "function"
        },
        {
          "inputs": [],
          "name": "rejectPendingAdmin",
          "outputs": [],
          "stateMutability": "nonpayable",
          "type": "function"
        },
        {
          "inputs": [],
          "name": "unpause",
          "outputs": [],
          "stateMutability": "nonpayable",
          "type": "function"
        },
        {
          "inputs": [
            {
              "internalType": "uint256",
              "name": "_auctionId",
              "type": "uint256"
            },
            {
              "internalType": "uint256",
              "name": "_newBasePrice",
              "type": "uint256"
            }
          ],
          "name": "updateBasePrice",
          "outputs": [
            {
              "internalType": "bool",
              "name": "",
              "type": "bool"
            }
          ],
          "stateMutability": "nonpayable",
          "type": "function"
        },
        {
          "inputs": [
            {
              "internalType": "uint256",
              "name": "_bidW",
              "type": "uint256"
            }
          ],
          "name": "updateBidWindow",
          "outputs": [],
          "stateMutability": "nonpayable",
          "type": "function"
        },
        {
          "inputs": [
            {
              "internalType": "uint256",
              "name": "_refBonus",
              "type": "uint256"
            }
          ],
          "name": "updateMinterRefBonus",
          "outputs": [],
          "stateMutability": "nonpayable",
          "type": "function"
        },
        {
          "inputs": [
            {
              "internalType": "uint256",
              "name": "auctionId",
              "type": "uint256"
            },
            {
              "internalType": "address",
              "name": "newPaymentMtd",
              "type": "address"
            }
          ],
          "name": "updatePaymentMethod",
          "outputs": [],
          "stateMutability": "nonpayable",
          "type": "function"
        },
        {
          "inputs": [
            {
              "internalType": "uint256",
              "name": "newCut",
              "type": "uint256"
            }
          ],
          "name": "updatePlatformCut",
          "outputs": [],
          "stateMutability": "nonpayable",
          "type": "function"
        },
        {
          "inputs": [
            {
              "internalType": "address",
              "name": "feesReceiver",
              "type": "address"
            }
          ],
          "name": "updatePlatformVault",
          "outputs": [],
          "stateMutability": "nonpayable",
          "type": "function"
        },
        {
          "inputs": [
            {
              "internalType": "address",
              "name": "auctionToken",
              "type": "address"
            },
            {
              "internalType": "uint256",
              "name": "auctionTokenId",
              "type": "uint256"
            },
            {
              "internalType": "uint256",
              "name": "currentBidValue",
              "type": "uint256"
            }
          ],
          "name": "viewRoyaltyPayments",
          "outputs": [
            {
              "internalType": "address payable[]",
              "name": "recipients",
              "type": "address[]"
            },
            {
              "internalType": "uint256[]",
              "name": "amounts",
              "type": "uint256[]"
            },
            {
              "internalType": "uint256",
              "name": "total",
              "type": "uint256"
            }
          ],
          "stateMutability": "view",
          "type": "function"
        },
        {
          "stateMutability": "payable",
          "type": "receive"
        }
      ],
      "evm": {
        "bytecode": {
          "linkReferences": {},
          "object": "6080604052620151806012556104b06013556032601455600560158190556016556017805460ff191690553480156200003757600080fd5b506040516200413b3803806200413b8339810160408190526200005a916200012e565b60016000818155805260036020527f3617319a054d772f909f7c479a2cebe5066e836a939412e32403c99029b92eff805460ff19169091179055601080546001600160a01b0319166001600160a01b038316179055620000b96200012a565b601180546001600160a01b0319166001600160a01b0392909216919091179055620000e36200012a565b6001600160a01b031660006001600160a01b03167ff8ccb027dfcd135e000e9d45e6cc2d662578a8825d4c45b5e32e0adf67e79ec660405160405180910390a3506200015e565b3390565b60006020828403121562000140578081fd5b81516001600160a01b038116811462000157578182fd5b9392505050565b613fcd806200016e6000396000f3fe6080604052600436106102975760003560e01c80636a42b8f81161015a5780639fa2709b116100c1578063dd4b7b9f1161007a578063dd4b7b9f146107ba578063e1edc079146107da578063ebaa4470146107fa578063f851a4401461081a578063f9e454d01461082f578063ff6984691461085e576102bd565b80639fa2709b14610728578063aa271e1a14610748578063adfcdc1114610768578063b1893f171461077b578063bf47dac214610790578063dc74f198146107a5576102bd565b806387a808831161011357806387a80883146106655780638b9e8594146106935780638f283970146106a857806396b5a755146106c8578063990ae82b146106e85780639c040e7f14610708576102bd565b80636a42b8f8146105c5578063709920c1146105da578063751f8af7146105ef57806378bd7935146106045780638337e95c1461063b5780638456cb5914610650576102bd565b806328fec8a5116101fe57806356b602f6116101b757806356b602f61461050e57806359e65e3c1461052e5780635c975abb146105435780635e3b15771461055857806368d525651461058557806369f6f948146105a5576102bd565b806328fec8a514610462578063393271ed146104825780633f4ba83a146104af57806342a96e94146104c457806342da271a146104e45780634ebf0bcc146104f9576102bd565b806320f094f81161025057806320f094f8146103a9578063236ed8f3146103cb57806323dcbec6146103de5780632598f2531461040d578063267822471461042d57806326e245c014610442576102bd565b80630d25375d146102c25780630e5a5abe146102e45780631094db1b14610304578063150b7a021461032f578063158bfcfe1461035c5780631f0e157114610389576102bd565b366102bd5760405162461bcd60e51b81526004016102b490613a26565b60405180910390fd5b600080fd5b3480156102ce57600080fd5b506102e26102dd3660046134f1565b61087e565b005b3480156102f057600080fd5b506102e26102ff3660046134f1565b6108bd565b34801561031057600080fd5b506103196108fc565b6040516103269190613820565b60405180910390f35b34801561033b57600080fd5b5061034f61034a366004613190565b610954565b604051610326919061383e565b34801561036857600080fd5b5061037c61037736600461357c565b610964565b6040516103269190613833565b34801561039557600080fd5b506102e26103a43660046134f1565b610a80565b3480156103b557600080fd5b506103be610abf565b60405161032691906135f6565b61037c6103d93660046134f1565b610ace565b3480156103ea57600080fd5b506103fe6103f9366004613273565b610f95565b60405161032693929190613760565b34801561041957600080fd5b506103be6104283660046134f1565b61106e565b34801561043957600080fd5b506103be611089565b34801561044e57600080fd5b506102e261045d366004613120565b611098565b34801561046e57600080fd5b506102e261047d366004613120565b6110f4565b34801561048e57600080fd5b506104a261049d366004613158565b611150565b6040516103269190613e5c565b3480156104bb57600080fd5b506102e261116d565b3480156104d057600080fd5b506104a26104df366004613248565b6111b3565b3480156104f057600080fd5b506104a26111d0565b34801561050557600080fd5b506102e26111d6565b34801561051a57600080fd5b5061037c610529366004613120565b611284565b34801561053a57600080fd5b506104a2611299565b34801561054f57600080fd5b5061037c61129f565b34801561056457600080fd5b506105786105733660046134f1565b6112a8565b60405161032691906137c8565b34801561059157600080fd5b506102e26105a0366004613521565b611330565b3480156105b157600080fd5b506102e26105c0366004613120565b6113ec565b3480156105d157600080fd5b506104a261146e565b3480156105e657600080fd5b506102e2611475565b3480156105fb57600080fd5b506104a2611566565b34801561061057600080fd5b5061062461061f3660046134f1565b61156c565b6040516103269b9a99989796959493929190613648565b34801561064757600080fd5b506103be6115db565b34801561065c57600080fd5b506102e26115ea565b34801561067157600080fd5b5061068561068036600461357c565b611633565b6040516103269291906136ba565b34801561069f57600080fd5b506104a2611676565b3480156106b457600080fd5b506102e26106c3366004613120565b61167c565b3480156106d457600080fd5b5061037c6106e33660046134f1565b61172f565b3480156106f457600080fd5b50610319610703366004613158565b6118cb565b34801561071457600080fd5b506102e26107233660046133d9565b611b00565b34801561073457600080fd5b506102e26107433660046132a7565b61213c565b34801561075457600080fd5b5061037c610763366004613120565b61227c565b6102e261077636600461357c565b612291565b34801561078757600080fd5b506104a2612599565b34801561079c57600080fd5b506103be61259f565b3480156107b157600080fd5b506104a26125ae565b3480156107c657600080fd5b506102e26107d5366004613521565b6125b4565b3480156107e657600080fd5b506104a26107f5366004613273565b6126c9565b34801561080657600080fd5b50610319610815366004613120565b61270d565b34801561082657600080fd5b506103be612779565b34801561083b57600080fd5b5061084f61084a366004613545565b612788565b60405161032693929190613ef6565b34801561086a57600080fd5b506102e26108793660046134f1565b612828565b6011546001600160a01b031661089261298b565b6001600160a01b0316146108b85760405162461bcd60e51b81526004016102b490613b92565b601555565b6011546001600160a01b03166108d161298b565b6001600160a01b0316146108f75760405162461bcd60e51b81526004016102b490613b92565b601455565b6060600980548060200260200160405190810160405280929190818152602001828054801561094a57602002820191906000526020600020905b815481526020019060010190808311610936575b5050505050905090565b630a85bd0160e11b949350505050565b60175460009060ff161561098a5760405162461bcd60e51b81526004016102b490613b10565b600083815260016020526040902080548491906001600160a01b03166109ae61298b565b6001600160a01b0316146109d45760405162461bcd60e51b81526004016102b490613a90565b600085815260016020526040902060058101548691901580156109f95750600a810154155b610a155760405162461bcd60e51b81526004016102b490613c88565b600087815260016020526040908190206004810180549089905560088201549251919290917f15819dd2fd9f6418b142e798d08a18d0bf06ea368f4480b7b0d3f75bd966bc4891610a699184908c90613ef6565b60405180910390a150600198975050505050505050565b6011546001600160a01b0316610a9461298b565b6001600160a01b031614610aba5760405162461bcd60e51b81526004016102b490613b92565b601255565b6010546001600160a01b031681565b60175460009060ff1615610af45760405162461bcd60e51b81526004016102b490613b10565b60026000541415610b175760405162461bcd60e51b81526004016102b490613dda565b6002600090815582815260016020526040902080546001600160a01b0316610b3d61298b565b6001600160a01b03161480610b6e575060028101546001600160a01b0316610b6361298b565b6001600160a01b0316145b610b8a5760405162461bcd60e51b81526004016102b490613d42565b806004015481600501541015610bb25760405162461bcd60e51b81526004016102b490613c3f565b80600a0154610bbf61298f565b1015610bdd5760405162461bcd60e51b81526004016102b490613c08565b8054600582015460009182918291610c009188916001600160a01b031690612788565b600687015492955090935091506001600160a01b0316610d1f57601054610c30906001600160a01b031684612993565b8115610d1a576008840154600090815260076020526040902054610c5d906001600160a01b031683612993565b6008840180546000908152600760208181526040808420546001600160a01b03908116855260068084528286208b54831687528452828620805460019081019091558b5483168752818552838720885488528686528488205484168852855283872080549091019055955485529290915291829020549287015491517fd910938f9ddba683b335a0a42dc6648f7c07ed578fa8b289f4694a3c21922cd293610d11938b939182169288929190911690613e84565b60405180910390a15b610e31565b6006840154601054610d3e916001600160a01b03908116911685612a0f565b8115610e315760068401546008850154600090815260076020526040902054610d74916001600160a01b03908116911684612a0f565b6008840180546000908152600760208181526040808420546001600160a01b03908116855260068084528286208b54831687528452828620805460019081019091558b5483168752818552838720885488528686528488205484168852855283872080549091019055955485529290915291829020549287015491517fd910938f9ddba683b335a0a42dc6648f7c07ed578fa8b289f4694a3c21922cd293610e28938b939182169288929190911690613e84565b60405180910390a15b60088401546001850154600386015460058701546006880154610e6394936001600160a01b0390811693929116612a23565b600184015460038501546005860154600092610e8a926001600160a01b03909116916126c9565b6006860154909150610ea79088906001600160a01b031683612b2b565b600185015460028601546003870154604051632142170760e11b81526001600160a01b039384169384936342842e0e93610ee993309390921691600401613624565b600060405180830381600087803b158015610f0357600080fd5b505af1158015610f17573d6000803e3d6000fd5b5050505060098601805460ff191660021790556008860154600187015460038801546040517ffdc6c9bf7681f58de9134db5fa17741bdabc968cee7548bcda287f6e82b8d54d93610f799390926001600160a01b039091169187908990613eca565b60405180910390a1600196505050505050506001600055919050565b600d54604051637a99dc0160e11b815260609182916000916001600160a01b03169063f533b80290610fcf9089908990899060040161373f565b60006040518083038186803b158015610fe757600080fd5b505afa158015610ffb573d6000803e3d6000fd5b505050506040513d6000823e601f3d908101601f191682016040526110239190810190613316565b909350915060005b82518110156110645761105a83828151811061104357fe5b602002602001015183612d3690919063ffffffff16565b915060010161102b565b5093509350939050565b6007602052600090815260409020546001600160a01b031681565b600b546001600160a01b031681565b6011546001600160a01b03166110ac61298b565b6001600160a01b0316146110d25760405162461bcd60e51b81526004016102b490613b92565b600d80546001600160a01b0319166001600160a01b0392909216919091179055565b6011546001600160a01b031661110861298b565b6001600160a01b03161461112e5760405162461bcd60e51b81526004016102b490613b92565b601080546001600160a01b0319166001600160a01b0392909216919091179055565b600660209081526000928352604080842090915290825290205481565b6011546001600160a01b031661118161298b565b6001600160a01b0316146111a75760405162461bcd60e51b81526004016102b490613b92565b6017805460ff19169055565b600260209081526000928352604080842090915290825290205481565b60155481565b6011546001600160a01b03166111ea61298b565b6001600160a01b0316146112105760405162461bcd60e51b81526004016102b490613b92565b600b546001600160a01b03161561123757600b80546001600160a01b03191690556000600c555b7ff6e78b888697ff479ebf2bd530914c94038ef7a63da1fbb639bc6d40a169b13661126061298b565b600b5460405161127a92916001600160a01b03169061360a565b60405180910390a1565b60036020526000908152604090205460ff1681565b60165481565b60175460ff1681565b606060086000838152602001908152602001600020805480602002602001604051908101604052809291908181526020016000905b82821015611325576000848152602090819020604080518082019091526002850290910180546001600160a01b031682526001908101548284015290835290920191016112dd565b505050509050919050565b600082815260016020526040902080548391906001600160a01b031661135461298b565b6001600160a01b03161461137a5760405162461bcd60e51b81526004016102b490613a90565b6000848152600160205260409081902080546001600160a01b038681166001600160a01b031983161783559251919216907f52675fa98882125168352bf9383f1f5f530cbdba22e63a59e50bea405c9008f1906113dc90889084908990613eab565b60405180910390a1505050505050565b6011546001600160a01b031661140061298b565b6001600160a01b0316146114265760405162461bcd60e51b81526004016102b490613b92565b6001600160a01b03811661144c5760405162461bcd60e51b81526004016102b490613a6d565b600f80546001600160a01b0319166001600160a01b0392909216919091179055565b6202a30081565b6011546001600160a01b031661148961298b565b6001600160a01b0316146114af5760405162461bcd60e51b81526004016102b490613b92565b6000600c541180156114cb5750600b546001600160a01b031615155b1561152357600c546114db61298f565b116114f85760405162461bcd60e51b81526004016102b490613bc7565b600b8054601180546001600160a01b03199081166001600160a01b038416179091556000600c551690555b7ff33589017275da9766c166bb90ee92c785a1c4412558882d367fb50165f5185561154c61298b565b60115460405161127a92916001600160a01b03169061360a565b60135481565b600160208190526000918252604090912080549181015460028201546003830154600484015460058501546006860154600787015460088801546009890154600a909901546001600160a01b039a8b169a988916999789169896979596949594909316939192909160ff16908b565b600f546001600160a01b031681565b6011546001600160a01b03166115fe61298b565b6001600160a01b0316146116245760405162461bcd60e51b81526004016102b490613b92565b6017805460ff19166001179055565b6008602052816000526040600020818154811061164c57fe5b6000918252602090912060029091020180546001909101546001600160a01b039091169250905082565b60145481565b6011546001600160a01b031661169061298b565b6001600160a01b0316146116b65760405162461bcd60e51b81526004016102b490613b92565b600b80546001600160a01b0319166001600160a01b0383161790556202a3006116dd61298f565b01600c557fcf9b665e0639e0b81a8db37b60ac7ddf45aeb1b484e11adeb7dff4bf4a3a625861170a61298b565b60115460405161172492916001600160a01b03169061360a565b60405180910390a150565b60175460009060ff16156117555760405162461bcd60e51b81526004016102b490613b10565b600082815260016020526040902080548391906001600160a01b031661177961298b565b6001600160a01b03161461179f5760405162461bcd60e51b81526004016102b490613a90565b600084815260016020526040902060058101548591901580156117c45750600a810154155b6117e05760405162461bcd60e51b81526004016102b490613c88565b60008681526001602081905260409182902090810154815460038301549351632142170760e11b815292936001600160a01b03928316936342842e0e9361182e933093911691600401613624565b600060405180830381600087803b15801561184857600080fd5b505af115801561185c573d6000803e3d6000fd5b5050505060098101805460ff1916600190811790915581015460038201546040517faa17fdf5ffb610a4cc0887f35c13c501975a370005080f68441055871952eb81926118b6928b926001600160a01b0390921691613e65565b60405180910390a15060019695505050505050565b6040516370a0823160e01b815260609082906000906001600160a01b038316906370a08231906118ff9088906004016135f6565b60206040518083038186803b15801561191757600080fd5b505afa15801561192b573d6000803e3d6000fd5b505050506040513d601f19601f8201168201806040525081019061194f9190613509565b90508061196e5750506040805160008152602081019091529050611afa565b60608167ffffffffffffffff8111801561198757600080fd5b506040519080825280602002602001820160405280156119b1578160200160208202803683370190505b5090506000836001600160a01b03166318160ddd6040518163ffffffff1660e01b815260040160206040518083038186803b1580156119ef57600080fd5b505afa158015611a03573d6000803e3d6000fd5b505050506040513d601f19601f82011682018060405250810190611a279190613509565b9050600060015b828111611af157886001600160a01b0316866001600160a01b0316636352211e836040518263ffffffff1660e01b8152600401611a6b9190613e5c565b60206040518083038186803b158015611a8357600080fd5b505afa158015611a97573d6000803e3d6000fd5b505050506040513d601f19601f82011682018060405250810190611abb919061313c565b6001600160a01b03161415611ae95780848381518110611ad757fe5b60209081029190910101526001909101905b600101611a2e565b50919450505050505b92915050565b60175460ff1615611b235760405162461bcd60e51b81526004016102b490613b10565b836000611b2f87612d5b565b611b4b5760405162461bcd60e51b81526004016102b490613ac7565b6001600160a01b03831660009081526003602052604090205460ff16611b835760405162461bcd60e51b81526004016102b490613e11565b6040516331a9108f60e11b81526000906001600160a01b03841690636352211e90611bb2908990600401613e5c565b60206040518083038186803b158015611bca57600080fd5b505afa158015611bde573d6000803e3d6000fd5b505050506040513d601f19601f82011682018060405250810190611c02919061313c565b604051632142170760e11b81529091506001600160a01b038416906342842e0e90611c3590849030908b90600401613624565b600060405180830381600087803b158015611c4f57600080fd5b505af1158015611c63573d6000803e3d6000fd5b50506040516331a9108f60e11b81523092506001600160a01b0386169150636352211e90611c95908a90600401613e5c565b60206040518083038186803b158015611cad57600080fd5b505afa158015611cc1573d6000803e3d6000fd5b505050506040513d601f19601f82011682018060405250810190611ce5919061313c565b6001600160a01b031614611d0b5760405162461bcd60e51b81526004016102b4906139ef565b611d15600e612dc0565b611d1f600e612dc9565b60088301556001820180546001600160a01b038981166001600160a01b03199283161790925583548383169082161784556003840188905560048401879055600684018054928716929091169190911790556000600a8301819055600583015560098201805460ff19169055611d9361298f565b600783015560088201546009805460018101825560009182527f6e1540171b6c0c960b71a7020d9f60077f6af931a8bbf590da0223dacf75c7af0191909155600490611ddd61298b565b6001600160a01b03908116825260208083019390935260409182016000908120600880880180548354600181810186559486528886200155805484529582905293909120865481546001600160a01b03199081169185169190911782558288015482840180548316918616919091179055600280890154818401805484169187169190911790556003808a0154908401556004808a0154908401556005808a0154908401556006808a01549084018054909316951694909417905560078088015490820155935492840192909255600980860154908401805487959460ff90931693919260ff19909116918490811115611ed357fe5b0217905550600a9182015491015560005b8851811015611f60576008600084600801548152602001908152602001600020898281518110611f1057fe5b602090810291909101810151825460018082018555600094855293839020825160029092020180546001600160a01b0319166001600160a01b039092169190911781559101519082015501611ee4565b50600f546001600160a01b038881169116148015611ffb5750600f546040516355138f0d60e11b81526001600160a01b039091169063aa271e1a90611fa99084906004016135f6565b602060405180830381600087803b158015611fc357600080fd5b505af1158015611fd7573d6000803e3d6000fd5b505050506040513d601f19601f82011682018060405250810190611ffb91906134d1565b156120d1576001600160a01b0380821660009081526005602052604090819020805460ff1916600117905583549051635487c74d60e11b81528983169263a90f8e9a9261204d929116906004016135f6565b602060405180830381600087803b15801561206757600080fd5b505af115801561207b573d6000803e3d6000fd5b505050506040513d601f19601f8201168201806040525081019061209f919061313c565b6008830154600090815260076020526040902080546001600160a01b0319166001600160a01b03929092169190911790555b7f9d87b8ce3e92da5e275d5c5f9e44d135df14fcd26d1a930ae847875c13c2ac646120fa61298b565b600884015460018501546003860154600487015460405161212a9594936001600160a01b03169291908b90613707565b60405180910390a15050505050505050565b6011546001600160a01b031661215061298b565b6001600160a01b0316146121765760405162461bcd60e51b81526004016102b490613b92565b60005b8181101561227757600083838381811061218f57fe5b90506020020160208101906121a49190613120565b6001600160a01b031614156121cb5760405162461bcd60e51b81526004016102b490613a6d565b600a8383838181106121d957fe5b90506020020160208101906121ee9190613120565b81546001808201845560009384526020842090910180546001600160a01b0319166001600160a01b0393909316929092179091559060039085858581811061223257fe5b90506020020160208101906122479190613120565b6001600160a01b031681526020810191909152604001600020805460ff1916911515919091179055600101612179565b505050565b60056020526000908152604090205460ff1681565b60175460ff16156122b45760405162461bcd60e51b81526004016102b490613b10565b600260005414156122d75760405162461bcd60e51b81526004016102b490613dda565b6002600090815582815260016020526040902060058101541580156122fe5750600a810154155b156123b45760068101546001600160a01b031661233e5780600401543410156123395760405162461bcd60e51b81526004016102b490613886565b612396565b60068101546001600160a01b0316156123965780600401548210156123755760405162461bcd60e51b81526004016102b490613886565b61239661238061298b565b60068301546001600160a01b0316903085612dcd565b6123aa6012546123a461298f565b90612d36565b600a8201556124ff565b6005810154158015906123ca5750600a81015415155b156124ff5760068101546001600160a01b031661243e576123fe6123f38260050154600a612e25565b600583015490612d36565b341161241c5760405162461bcd60e51b81526004016102b490613886565b60028101546005820154612439916001600160a01b031690612993565b6124a1565b6124506123f38260050154600a612e25565b82101561246f5760405162461bcd60e51b81526004016102b490613886565b61247a61238061298b565b6002810154600582015460068301546124a1926001600160a01b0391821692911690612e3c565b600081600a01541180156124cc57506013546124c96124be61298f565b600a84015490612e5b565b11155b80156124e3575060016124e06124be61298f565b10155b156124ff57601354600a8201546124f991612d36565b600a8201555b61250761298b565b6002820180546001600160a01b0319166001600160a01b0392909216919091179055600581018290557fa65f0194dcdd5b8159745e76591d7e4b2e26b6f7df9727f0f93129011351031961255961298b565b60088301546001840154600385015460058601546040516125879594936001600160a01b03169291906136d3565b60405180910390a15050600160005550565b600c5481565b600d546001600160a01b031681565b60125481565b60175460ff16156125d75760405162461bcd60e51b81526004016102b490613b10565b600082815260016020526040902080548391906001600160a01b03166125fb61298b565b6001600160a01b0316146126215760405162461bcd60e51b81526004016102b490613a90565b600084815260016020526040902060058101548591901580156126465750600a810154155b6126625760405162461bcd60e51b81526004016102b490613c88565b600086815260016020526040908190206006810180546001600160a01b038981166001600160a01b03198316179092559251919216907fb278bd6a44ab71cfade954c8c5a58435704bab83082a75360091bee0395f32a09061212a908a9084908b90613eab565b6000806126d883601454612e83565b905060006126e7868686610f95565b925061270191508390506126fb8684612e5b565b90612e5b565b925050505b9392505050565b6001600160a01b03811660009081526004602090815260409182902080548351818402810184019094528084526060939283018282801561276d57602002820191906000526020600020905b815481526020019060010190808311612759575b50505050509050919050565b6011546001600160a01b031681565b6000838152600760209081526040808320546001600160a01b03908116845260068352818420908616845282528083205460059092528220548291829185919060ff1680156127d8575060165481105b15612802576127e982601554612e83565b93506127fb846126fb84601454612e83565b9450612811565b61280e82601454612e83565b94505b61281b8585612d36565b9250505093509350939050565b6011546001600160a01b031661283c61298b565b6001600160a01b0316146128625760405162461bcd60e51b81526004016102b490613b92565b6017805460ff19166001908117909155600082815260209190915260409020600a810154158015906128975750600581015415155b156128f75760068101546001600160a01b0316156128da576006810154600282015460058301546128d5926001600160a01b03908116921690612a0f565b6128f7565b600281015460058201546128f7916001600160a01b031690612993565b600181015481546003830154604051632142170760e11b81526001600160a01b039384169384936342842e0e9361293693309390921691600401613624565b600060405180830381600087803b15801561295057600080fd5b505af1158015612964573d6000803e3d6000fd5b5050506009830180546001925060ff191682800217905550506017805460ff191690555050565b3390565b4290565b6000826001600160a01b0316826040516129ac906135f3565b60006040518083038185875af1925050503d80600081146129e9576040519150601f19603f3d011682016040523d82523d6000602084013e6129ee565b606091505b50509050806122775760405162461bcd60e51b81526004016102b4906138d7565b6122776001600160a01b0384168383612e3c565b606080612a31868686610f95565b509150915060005b8251811015612b21576001600160a01b038416612a8557612a80838281518110612a5f57fe5b6020026020010151838381518110612a7357fe5b6020026020010151612993565b612ab6565b612ab684848381518110612a9557fe5b6020026020010151848481518110612aa957fe5b6020026020010151612a0f565b7fad5d994c2f75bc7fbbf9bcca36808f3634611bfffde7356ca273d32af155bc8d88848381518110612ae457fe5b6020026020010151848481518110612af857fe5b602002602001015187604051612b119493929190613e84565b60405180910390a1600101612a39565b5050505050505050565b808015612d305760005b600085815260086020526040902054811015612d2e5760008581526008602052604081205460001901821015612baf5760008681526008602052604090208054612b9c91869185908110612b8557fe5b906000526020600020906002020160010154612e83565b9050612ba88382612e5b565b9250612bb2565b50815b6001600160a01b038516612c745760008681526008602052604090208054612bff919084908110612bdf57fe5b60009182526020909120600290910201546001600160a01b031682612993565b600086815260086020526040902080547fc978478a05ac4abd47af9ef43a7656e78cd783262621455ff33493b670421e6591889185908110612c3d57fe5b6000918252602090912060029091020154604051612c6792916001600160a01b0316908590613e65565b60405180910390a1612d25565b60008681526008602052604090208054612cb491879185908110612c9457fe5b60009182526020909120600290910201546001600160a01b031683612a0f565b600086815260086020526040902080547fc978478a05ac4abd47af9ef43a7656e78cd783262621455ff33493b670421e6591889185908110612cf257fe5b6000918252602090912060029091020154604051612d1c92916001600160a01b0316908590613e65565b60405180910390a15b50600101612b35565b505b50505050565b6000828201838110156127065760405162461bcd60e51b81526004016102b490613904565b6000600a82511115612d7f5760405162461bcd60e51b81526004016102b490613d01565b6000805b8351811015612db557838181518110612d9857fe5b602002602001015160200151820191508080600101915050612d83565b506103e81492915050565b80546001019055565b5490565b612d30846323b872dd60e01b858585604051602401612dee93929190613624565b60408051601f198184030181529190526020810180516001600160e01b03166001600160e01b031990931692909217909152612e95565b60006127066064612e368585612f24565b90612f5e565b6122778363a9059cbb60e01b8484604051602401612dee9291906136ba565b600082821115612e7d5760405162461bcd60e51b81526004016102b49061393b565b50900390565b60006127066103e8612e368585612f24565b6060612eea826040518060400160405280602081526020017f5361666545524332303a206c6f772d6c6576656c2063616c6c206661696c6564815250856001600160a01b0316612f909092919063ffffffff16565b8051909150156122775780806020019051810190612f0891906134d1565b6122775760405162461bcd60e51b81526004016102b490613d90565b600082612f3357506000611afa565b82820282848281612f4057fe5b04146127065760405162461bcd60e51b81526004016102b490613b51565b6000808211612f7f5760405162461bcd60e51b81526004016102b4906139b8565b818381612f8857fe5b049392505050565b6060612f9f8484600085612fa7565b949350505050565b606082471015612fc95760405162461bcd60e51b81526004016102b490613972565b612fd285613068565b612fee5760405162461bcd60e51b81526004016102b490613cca565b60006060866001600160a01b0316858760405161300b91906135d7565b60006040518083038185875af1925050503d8060008114613048576040519150601f19603f3d011682016040523d82523d6000602084013e61304d565b606091505b509150915061305d82828661306e565b979650505050505050565b3b151590565b6060831561307d575081612706565b82511561308d5782518084602001fd5b8160405162461bcd60e51b81526004016102b49190613853565b8035611afa81613f7f565b600082601f8301126130c2578081fd5b81516130d56130d082613f33565b613f0c565b8181529150602080830190848101818402860182018710156130f657600080fd5b60005b84811015613115578151845292820192908201906001016130f9565b505050505092915050565b600060208284031215613131578081fd5b813561270681613f7f565b60006020828403121561314d578081fd5b815161270681613f7f565b6000806040838503121561316a578081fd5b823561317581613f7f565b9150602083013561318581613f7f565b809150509250929050565b600080600080608085870312156131a5578182fd5b84356131b081613f7f565b93506020858101356131c181613f7f565b935060408601359250606086013567ffffffffffffffff808211156131e4578384fd5b818801915088601f8301126131f7578384fd5b813581811115613205578485fd5b613217601f8201601f19168501613f0c565b9150808252898482850101111561322c578485fd5b8084840185840137810190920192909252939692955090935050565b6000806040838503121561325a578182fd5b823561326581613f7f565b946020939093013593505050565b600080600060608486031215613287578283fd5b833561329281613f7f565b95602085013595506040909401359392505050565b600080602083850312156132b9578182fd5b823567ffffffffffffffff808211156132d0578384fd5b818501915085601f8301126132e3578384fd5b8135818111156132f1578485fd5b8660208083028501011115613304578485fd5b60209290920196919550909350505050565b60008060408385031215613328578182fd5b825167ffffffffffffffff8082111561333f578384fd5b818501915085601f830112613352578384fd5b81516133606130d082613f33565b80828252602080830192508086018a828387028901011115613380578889fd5b8896505b848710156133ab57805161339781613f7f565b845260019690960195928101928101613384565b5088015190965093505050808211156133c2578283fd5b506133cf858286016130b2565b9150509250929050565b600080600080600060a086880312156133f0578081fd5b853567ffffffffffffffff811115613406578182fd5b8601601f81018813613416578182fd5b80356134246130d082613f33565b808282526020808301925080850160408d838288028901011115613446578788fd5b8796505b858710156134935780828f031215613460578788fd5b61346981613f0c565b6134738f846130a7565b81528284013584820152855260019690960195938201939081019061344a565b839b506134a28e848f016130a7565b9a50808d0135995050505050505050606086013591506134c587608088016130a7565b90509295509295909350565b6000602082840312156134e2578081fd5b81518015158114612706578182fd5b600060208284031215613502578081fd5b5035919050565b60006020828403121561351a578081fd5b5051919050565b60008060408385031215613533578182fd5b82359150602083013561318581613f7f565b600080600060608486031215613559578081fd5b83359250602084013561356b81613f7f565b929592945050506040919091013590565b6000806040838503121561358e578182fd5b50508035926020909101359150565b6000815180845260208085019450808401835b838110156135cc578151875295820195908201906001016135b0565b509495945050505050565b600082516135e9818460208701613f53565b9190910192915050565b90565b6001600160a01b0391909116815260200190565b6001600160a01b0392831681529116602082015260400190565b6001600160a01b039384168152919092166020820152604081019190915260600190565b6001600160a01b038c811682528b811660208301528a81166040830152606082018a90526080820189905260a08201889052861660c082015260e08101859052610100810184905261016081016003841061369f57fe5b61012082019390935261014001529998505050505050505050565b6001600160a01b03929092168252602082015260400190565b6001600160a01b03958616815260208101949094529190931660408301526060820192909252608081019190915260a00190565b6001600160a01b039687168152602081019590955292851660408501526060840191909152608083015290911660a082015260c00190565b6001600160a01b039390931683526020830191909152604082015260600190565b606080825284519082018190526000906020906080840190828801845b828110156137a25781516001600160a01b03168452928401929084019060010161377d565b505050838103828501526137b6818761359d565b92505050826040830152949350505050565b602080825282518282018190526000919060409081850190868401855b8281101561381357815180516001600160a01b031685528601518685015292840192908501906001016137e5565b5091979650505050505050565b600060208252612706602083018461359d565b901515815260200190565b6001600160e01b031991909116815260200190565b6000602082528251806020840152613872816040850160208701613f53565b601f01601f19169190910160400192915050565b60208082526031908201527f44656c66794d61726b65743a204269645f76616c75655f6d7573745f62655f3e60408201527063757272656e745f6269645f76616c756560781b606082015260800190565b60208082526013908201527211551217dd1c985b9cd9995c97d9985a5b1959606a1b604082015260600190565b6020808252601b908201527f536166654d6174683a206164646974696f6e206f766572666c6f770000000000604082015260600190565b6020808252601e908201527f536166654d6174683a207375627472616374696f6e206f766572666c6f770000604082015260600190565b60208082526026908201527f416464726573733a20696e73756666696369656e742062616c616e636520666f6040820152651c8818d85b1b60d21b606082015260800190565b6020808252601a908201527f536166654d6174683a206469766973696f6e206279207a65726f000000000000604082015260600190565b6020808252601c908201527f44656c66794d61726b65743a205472616e73666572204661696c656400000000604082015260600190565b60208082526027908201527f44656c66794d61726b65743a20596f75206861766520746f206d616b652070756040820152667263686173652160c81b606082015260800190565b6020808252600990820152680616464726573735f360bc1b604082015260600190565b6020808252601f908201527f44656c66794d61726b65743a206f6e6c795f61756374696f6e5f6f776e657200604082015260600190565b60208082526029908201527f44656c66794d61726b65743a20696e76616c6964207061796d656e74206469736040820152683a3934b13aba34b7b760b91b606082015260800190565b60208082526021908201527f44656c66794d61726b65743a206f6e6c795f7768656e5f6e6f745f70617573656040820152601960fa1b606082015260800190565b60208082526021908201527f536166654d6174683a206d756c7469706c69636174696f6e206f766572666c6f6040820152607760f81b606082015260800190565b6020808252818101527f4f776e61626c653a2063616c6c6572206973206e6f7420746865206f776e6572604082015260600190565b60208082526021908201527f44656c667945524332303a206f776e6572206170706c7920746f6f206561726c6040820152607960f81b606082015260800190565b6020808252601f908201527f44656c66794d61726b65743a2041756374696f6e5f6e6f745f636c6f73656400604082015260600190565b60208082526029908201527f44656c66794d61726b65743a20636c6f73655f73616c655f62795f63616e6365604082015268362fb0bab1ba34b7b760b91b606082015260800190565b60208082526022908201527f44656c66794d61726b65743a206f6e6c795f6265666f72655f66697273745f626040820152611a5960f21b606082015260800190565b6020808252601d908201527f416464726573733a2063616c6c20746f206e6f6e2d636f6e7472616374000000604082015260600190565b60208082526021908201527f44656c66794d61726b65743a20696e76616c696420706179746f206c656e67746040820152600d60fb1b606082015260800190565b6020808252602e908201527f44656c66794d61726b65743a206f6e6c795f61756374696f6e5f6f776e65725f60408201526d30b7322fb630b9ba2134b23232b960911b606082015260800190565b6020808252602a908201527f5361666545524332303a204552433230206f7065726174696f6e20646964206e6040820152691bdd081cdd58d8d9595960b21b606082015260800190565b6020808252601f908201527f5265656e7472616e637947756172643a207265656e7472616e742063616c6c00604082015260600190565b6020808252602b908201527f44656c66794d61726b65743a206f6e6c7920737570706f72746564207061796d60408201526a656e74206d6574686f647360a81b606082015260800190565b90815260200190565b9283526001600160a01b03919091166020830152604082015260600190565b9384526001600160a01b039283166020850152604084019190915216606082015260800190565b9283526001600160a01b03918216602084015216604082015260600190565b9485526001600160a01b0393909316602085015260408401919091526060830152608082015260a00190565b9283526020830191909152604082015260600190565b60405181810167ffffffffffffffff81118282101715613f2b57600080fd5b604052919050565b600067ffffffffffffffff821115613f49578081fd5b5060209081020190565b60005b83811015613f6e578181015183820152602001613f56565b83811115612d305750506000910152565b6001600160a01b0381168114613f9457600080fd5b5056fea2646970667358221220c5d6f9fca00a802de1c3ae1d65a7b553e4c58091b383286ba4131d47241083b464736f6c634300060c0033",
          "opcodes": "PUSH1 0x80 PUSH1 0x40 MSTORE PUSH3 0x15180 PUSH1 0x12 SSTORE PUSH2 0x4B0 PUSH1 0x13 SSTORE PUSH1 0x32 PUSH1 0x14 SSTORE PUSH1 0x5 PUSH1 0x15 DUP2 SWAP1 SSTORE PUSH1 0x16 SSTORE PUSH1 0x17 DUP1 SLOAD PUSH1 0xFF NOT AND SWAP1 SSTORE CALLVALUE DUP1 ISZERO PUSH3 0x37 JUMPI PUSH1 0x0 DUP1 REVERT JUMPDEST POP PUSH1 0x40 MLOAD PUSH3 0x413B CODESIZE SUB DUP1 PUSH3 0x413B DUP4 CODECOPY DUP2 ADD PUSH1 0x40 DUP2 SWAP1 MSTORE PUSH3 0x5A SWAP2 PUSH3 0x12E JUMP JUMPDEST PUSH1 0x1 PUSH1 0x0 DUP2 DUP2 SSTORE DUP1 MSTORE PUSH1 0x3 PUSH1 0x20 MSTORE PUSH32 0x3617319A054D772F909F7C479A2CEBE5066E836A939412E32403C99029B92EFF DUP1 SLOAD PUSH1 0xFF NOT AND SWAP1 SWAP2 OR SWAP1 SSTORE PUSH1 0x10 DUP1 SLOAD PUSH1 0x1 PUSH1 0x1 PUSH1 0xA0 SHL SUB NOT AND PUSH1 0x1 PUSH1 0x1 PUSH1 0xA0 SHL SUB DUP4 AND OR SWAP1 SSTORE PUSH3 0xB9 PUSH3 0x12A JUMP JUMPDEST PUSH1 0x11 DUP1 SLOAD PUSH1 0x1 PUSH1 0x1 PUSH1 0xA0 SHL SUB NOT AND PUSH1 0x1 PUSH1 0x1 PUSH1 0xA0 SHL SUB SWAP3 SWAP1 SWAP3 AND SWAP2 SWAP1 SWAP2 OR SWAP1 SSTORE PUSH3 0xE3 PUSH3 0x12A JUMP JUMPDEST PUSH1 0x1 PUSH1 0x1 PUSH1 0xA0 SHL SUB AND PUSH1 0x0 PUSH1 0x1 PUSH1 0x1 PUSH1 0xA0 SHL SUB AND PUSH32 0xF8CCB027DFCD135E000E9D45E6CC2D662578A8825D4C45B5E32E0ADF67E79EC6 PUSH1 0x40 MLOAD PUSH1 0x40 MLOAD DUP1 SWAP2 SUB SWAP1 LOG3 POP PUSH3 0x15E JUMP JUMPDEST CALLER SWAP1 JUMP JUMPDEST PUSH1 0x0 PUSH1 0x20 DUP3 DUP5 SUB SLT ISZERO PUSH3 0x140 JUMPI DUP1 DUP2 REVERT JUMPDEST DUP2 MLOAD PUSH1 0x1 PUSH1 0x1 PUSH1 0xA0 SHL SUB DUP2 AND DUP2 EQ PUSH3 0x157 JUMPI DUP2 DUP3 REVERT JUMPDEST SWAP4 SWAP3 POP POP POP JUMP JUMPDEST PUSH2 0x3FCD DUP1 PUSH3 0x16E PUSH1 0x0 CODECOPY PUSH1 0x0 RETURN INVALID PUSH1 0x80 PUSH1 0x40 MSTORE PUSH1 0x4 CALLDATASIZE LT PUSH2 0x297 JUMPI PUSH1 0x0 CALLDATALOAD PUSH1 0xE0 SHR DUP1 PUSH4 0x6A42B8F8 GT PUSH2 0x15A JUMPI DUP1 PUSH4 0x9FA2709B GT PUSH2 0xC1 JUMPI DUP1 PUSH4 0xDD4B7B9F GT PUSH2 0x7A JUMPI DUP1 PUSH4 0xDD4B7B9F EQ PUSH2 0x7BA JUMPI DUP1 PUSH4 0xE1EDC079 EQ PUSH2 0x7DA JUMPI DUP1 PUSH4 0xEBAA4470 EQ PUSH2 0x7FA JUMPI DUP1 PUSH4 0xF851A440 EQ PUSH2 0x81A JUMPI DUP1 PUSH4 0xF9E454D0 EQ PUSH2 0x82F JUMPI DUP1 PUSH4 0xFF698469 EQ PUSH2 0x85E JUMPI PUSH2 0x2BD JUMP JUMPDEST DUP1 PUSH4 0x9FA2709B EQ PUSH2 0x728 JUMPI DUP1 PUSH4 0xAA271E1A EQ PUSH2 0x748 JUMPI DUP1 PUSH4 0xADFCDC11 EQ PUSH2 0x768 JUMPI DUP1 PUSH4 0xB1893F17 EQ PUSH2 0x77B JUMPI DUP1 PUSH4 0xBF47DAC2 EQ PUSH2 0x790 JUMPI DUP1 PUSH4 0xDC74F198 EQ PUSH2 0x7A5 JUMPI PUSH2 0x2BD JUMP JUMPDEST DUP1 PUSH4 0x87A80883 GT PUSH2 0x113 JUMPI DUP1 PUSH4 0x87A80883 EQ PUSH2 0x665 JUMPI DUP1 PUSH4 0x8B9E8594 EQ PUSH2 0x693 JUMPI DUP1 PUSH4 0x8F283970 EQ PUSH2 0x6A8 JUMPI DUP1 PUSH4 0x96B5A755 EQ PUSH2 0x6C8 JUMPI DUP1 PUSH4 0x990AE82B EQ PUSH2 0x6E8 JUMPI DUP1 PUSH4 0x9C040E7F EQ PUSH2 0x708 JUMPI PUSH2 0x2BD JUMP JUMPDEST DUP1 PUSH4 0x6A42B8F8 EQ PUSH2 0x5C5 JUMPI DUP1 PUSH4 0x709920C1 EQ PUSH2 0x5DA JUMPI DUP1 PUSH4 0x751F8AF7 EQ PUSH2 0x5EF JUMPI DUP1 PUSH4 0x78BD7935 EQ PUSH2 0x604 JUMPI DUP1 PUSH4 0x8337E95C EQ PUSH2 0x63B JUMPI DUP1 PUSH4 0x8456CB59 EQ PUSH2 0x650 JUMPI PUSH2 0x2BD JUMP JUMPDEST DUP1 PUSH4 0x28FEC8A5 GT PUSH2 0x1FE JUMPI DUP1 PUSH4 0x56B602F6 GT PUSH2 0x1B7 JUMPI DUP1 PUSH4 0x56B602F6 EQ PUSH2 0x50E JUMPI DUP1 PUSH4 0x59E65E3C EQ PUSH2 0x52E JUMPI DUP1 PUSH4 0x5C975ABB EQ PUSH2 0x543 JUMPI DUP1 PUSH4 0x5E3B1577 EQ PUSH2 0x558 JUMPI DUP1 PUSH4 0x68D52565 EQ PUSH2 0x585 JUMPI DUP1 PUSH4 0x69F6F948 EQ PUSH2 0x5A5 JUMPI PUSH2 0x2BD JUMP JUMPDEST DUP1 PUSH4 0x28FEC8A5 EQ PUSH2 0x462 JUMPI DUP1 PUSH4 0x393271ED EQ PUSH2 0x482 JUMPI DUP1 PUSH4 0x3F4BA83A EQ PUSH2 0x4AF JUMPI DUP1 PUSH4 0x42A96E94 EQ PUSH2 0x4C4 JUMPI DUP1 PUSH4 0x42DA271A EQ PUSH2 0x4E4 JUMPI DUP1 PUSH4 0x4EBF0BCC EQ PUSH2 0x4F9 JUMPI PUSH2 0x2BD JUMP JUMPDEST DUP1 PUSH4 0x20F094F8 GT PUSH2 0x250 JUMPI DUP1 PUSH4 0x20F094F8 EQ PUSH2 0x3A9 JUMPI DUP1 PUSH4 0x236ED8F3 EQ PUSH2 0x3CB JUMPI DUP1 PUSH4 0x23DCBEC6 EQ PUSH2 0x3DE JUMPI DUP1 PUSH4 0x2598F253 EQ PUSH2 0x40D JUMPI DUP1 PUSH4 0x26782247 EQ PUSH2 0x42D JUMPI DUP1 PUSH4 0x26E245C0 EQ PUSH2 0x442 JUMPI PUSH2 0x2BD JUMP JUMPDEST DUP1 PUSH4 0xD25375D EQ PUSH2 0x2C2 JUMPI DUP1 PUSH4 0xE5A5ABE EQ PUSH2 0x2E4 JUMPI DUP1 PUSH4 0x1094DB1B EQ PUSH2 0x304 JUMPI DUP1 PUSH4 0x150B7A02 EQ PUSH2 0x32F JUMPI DUP1 PUSH4 0x158BFCFE EQ PUSH2 0x35C JUMPI DUP1 PUSH4 0x1F0E1571 EQ PUSH2 0x389 JUMPI PUSH2 0x2BD JUMP JUMPDEST CALLDATASIZE PUSH2 0x2BD JUMPI PUSH1 0x40 MLOAD PUSH3 0x461BCD PUSH1 0xE5 SHL DUP2 MSTORE PUSH1 0x4 ADD PUSH2 0x2B4 SWAP1 PUSH2 0x3A26 JUMP JUMPDEST PUSH1 0x40 MLOAD DUP1 SWAP2 SUB SWAP1 REVERT JUMPDEST PUSH1 0x0 DUP1 REVERT JUMPDEST CALLVALUE DUP1 ISZERO PUSH2 0x2CE JUMPI PUSH1 0x0 DUP1 REVERT JUMPDEST POP PUSH2 0x2E2 PUSH2 0x2DD CALLDATASIZE PUSH1 0x4 PUSH2 0x34F1 JUMP JUMPDEST PUSH2 0x87E JUMP JUMPDEST STOP JUMPDEST CALLVALUE DUP1 ISZERO PUSH2 0x2F0 JUMPI PUSH1 0x0 DUP1 REVERT JUMPDEST POP PUSH2 0x2E2 PUSH2 0x2FF CALLDATASIZE PUSH1 0x4 PUSH2 0x34F1 JUMP JUMPDEST PUSH2 0x8BD JUMP JUMPDEST CALLVALUE DUP1 ISZERO PUSH2 0x310 JUMPI PUSH1 0x0 DUP1 REVERT JUMPDEST POP PUSH2 0x319 PUSH2 0x8FC JUMP JUMPDEST PUSH1 0x40 MLOAD PUSH2 0x326 SWAP2 SWAP1 PUSH2 0x3820 JUMP JUMPDEST PUSH1 0x40 MLOAD DUP1 SWAP2 SUB SWAP1 RETURN JUMPDEST CALLVALUE DUP1 ISZERO PUSH2 0x33B JUMPI PUSH1 0x0 DUP1 REVERT JUMPDEST POP PUSH2 0x34F PUSH2 0x34A CALLDATASIZE PUSH1 0x4 PUSH2 0x3190 JUMP JUMPDEST PUSH2 0x954 JUMP JUMPDEST PUSH1 0x40 MLOAD PUSH2 0x326 SWAP2 SWAP1 PUSH2 0x383E JUMP JUMPDEST CALLVALUE DUP1 ISZERO PUSH2 0x368 JUMPI PUSH1 0x0 DUP1 REVERT JUMPDEST POP PUSH2 0x37C PUSH2 0x377 CALLDATASIZE PUSH1 0x4 PUSH2 0x357C JUMP JUMPDEST PUSH2 0x964 JUMP JUMPDEST PUSH1 0x40 MLOAD PUSH2 0x326 SWAP2 SWAP1 PUSH2 0x3833 JUMP JUMPDEST CALLVALUE DUP1 ISZERO PUSH2 0x395 JUMPI PUSH1 0x0 DUP1 REVERT JUMPDEST POP PUSH2 0x2E2 PUSH2 0x3A4 CALLDATASIZE PUSH1 0x4 PUSH2 0x34F1 JUMP JUMPDEST PUSH2 0xA80 JUMP JUMPDEST CALLVALUE DUP1 ISZERO PUSH2 0x3B5 JUMPI PUSH1 0x0 DUP1 REVERT JUMPDEST POP PUSH2 0x3BE PUSH2 0xABF JUMP JUMPDEST PUSH1 0x40 MLOAD PUSH2 0x326 SWAP2 SWAP1 PUSH2 0x35F6 JUMP JUMPDEST PUSH2 0x37C PUSH2 0x3D9 CALLDATASIZE PUSH1 0x4 PUSH2 0x34F1 JUMP JUMPDEST PUSH2 0xACE JUMP JUMPDEST CALLVALUE DUP1 ISZERO PUSH2 0x3EA JUMPI PUSH1 0x0 DUP1 REVERT JUMPDEST POP PUSH2 0x3FE PUSH2 0x3F9 CALLDATASIZE PUSH1 0x4 PUSH2 0x3273 JUMP JUMPDEST PUSH2 0xF95 JUMP JUMPDEST PUSH1 0x40 MLOAD PUSH2 0x326 SWAP4 SWAP3 SWAP2 SWAP1 PUSH2 0x3760 JUMP JUMPDEST CALLVALUE DUP1 ISZERO PUSH2 0x419 JUMPI PUSH1 0x0 DUP1 REVERT JUMPDEST POP PUSH2 0x3BE PUSH2 0x428 CALLDATASIZE PUSH1 0x4 PUSH2 0x34F1 JUMP JUMPDEST PUSH2 0x106E JUMP JUMPDEST CALLVALUE DUP1 ISZERO PUSH2 0x439 JUMPI PUSH1 0x0 DUP1 REVERT JUMPDEST POP PUSH2 0x3BE PUSH2 0x1089 JUMP JUMPDEST CALLVALUE DUP1 ISZERO PUSH2 0x44E JUMPI PUSH1 0x0 DUP1 REVERT JUMPDEST POP PUSH2 0x2E2 PUSH2 0x45D CALLDATASIZE PUSH1 0x4 PUSH2 0x3120 JUMP JUMPDEST PUSH2 0x1098 JUMP JUMPDEST CALLVALUE DUP1 ISZERO PUSH2 0x46E JUMPI PUSH1 0x0 DUP1 REVERT JUMPDEST POP PUSH2 0x2E2 PUSH2 0x47D CALLDATASIZE PUSH1 0x4 PUSH2 0x3120 JUMP JUMPDEST PUSH2 0x10F4 JUMP JUMPDEST CALLVALUE DUP1 ISZERO PUSH2 0x48E JUMPI PUSH1 0x0 DUP1 REVERT JUMPDEST POP PUSH2 0x4A2 PUSH2 0x49D CALLDATASIZE PUSH1 0x4 PUSH2 0x3158 JUMP JUMPDEST PUSH2 0x1150 JUMP JUMPDEST PUSH1 0x40 MLOAD PUSH2 0x326 SWAP2 SWAP1 PUSH2 0x3E5C JUMP JUMPDEST CALLVALUE DUP1 ISZERO PUSH2 0x4BB JUMPI PUSH1 0x0 DUP1 REVERT JUMPDEST POP PUSH2 0x2E2 PUSH2 0x116D JUMP JUMPDEST CALLVALUE DUP1 ISZERO PUSH2 0x4D0 JUMPI PUSH1 0x0 DUP1 REVERT JUMPDEST POP PUSH2 0x4A2 PUSH2 0x4DF CALLDATASIZE PUSH1 0x4 PUSH2 0x3248 JUMP JUMPDEST PUSH2 0x11B3 JUMP JUMPDEST CALLVALUE DUP1 ISZERO PUSH2 0x4F0 JUMPI PUSH1 0x0 DUP1 REVERT JUMPDEST POP PUSH2 0x4A2 PUSH2 0x11D0 JUMP JUMPDEST CALLVALUE DUP1 ISZERO PUSH2 0x505 JUMPI PUSH1 0x0 DUP1 REVERT JUMPDEST POP PUSH2 0x2E2 PUSH2 0x11D6 JUMP JUMPDEST CALLVALUE DUP1 ISZERO PUSH2 0x51A JUMPI PUSH1 0x0 DUP1 REVERT JUMPDEST POP PUSH2 0x37C PUSH2 0x529 CALLDATASIZE PUSH1 0x4 PUSH2 0x3120 JUMP JUMPDEST PUSH2 0x1284 JUMP JUMPDEST CALLVALUE DUP1 ISZERO PUSH2 0x53A JUMPI PUSH1 0x0 DUP1 REVERT JUMPDEST POP PUSH2 0x4A2 PUSH2 0x1299 JUMP JUMPDEST CALLVALUE DUP1 ISZERO PUSH2 0x54F JUMPI PUSH1 0x0 DUP1 REVERT JUMPDEST POP PUSH2 0x37C PUSH2 0x129F JUMP JUMPDEST CALLVALUE DUP1 ISZERO PUSH2 0x564 JUMPI PUSH1 0x0 DUP1 REVERT JUMPDEST POP PUSH2 0x578 PUSH2 0x573 CALLDATASIZE PUSH1 0x4 PUSH2 0x34F1 JUMP JUMPDEST PUSH2 0x12A8 JUMP JUMPDEST PUSH1 0x40 MLOAD PUSH2 0x326 SWAP2 SWAP1 PUSH2 0x37C8 JUMP JUMPDEST CALLVALUE DUP1 ISZERO PUSH2 0x591 JUMPI PUSH1 0x0 DUP1 REVERT JUMPDEST POP PUSH2 0x2E2 PUSH2 0x5A0 CALLDATASIZE PUSH1 0x4 PUSH2 0x3521 JUMP JUMPDEST PUSH2 0x1330 JUMP JUMPDEST CALLVALUE DUP1 ISZERO PUSH2 0x5B1 JUMPI PUSH1 0x0 DUP1 REVERT JUMPDEST POP PUSH2 0x2E2 PUSH2 0x5C0 CALLDATASIZE PUSH1 0x4 PUSH2 0x3120 JUMP JUMPDEST PUSH2 0x13EC JUMP JUMPDEST CALLVALUE DUP1 ISZERO PUSH2 0x5D1 JUMPI PUSH1 0x0 DUP1 REVERT JUMPDEST POP PUSH2 0x4A2 PUSH2 0x146E JUMP JUMPDEST CALLVALUE DUP1 ISZERO PUSH2 0x5E6 JUMPI PUSH1 0x0 DUP1 REVERT JUMPDEST POP PUSH2 0x2E2 PUSH2 0x1475 JUMP JUMPDEST CALLVALUE DUP1 ISZERO PUSH2 0x5FB JUMPI PUSH1 0x0 DUP1 REVERT JUMPDEST POP PUSH2 0x4A2 PUSH2 0x1566 JUMP JUMPDEST CALLVALUE DUP1 ISZERO PUSH2 0x610 JUMPI PUSH1 0x0 DUP1 REVERT JUMPDEST POP PUSH2 0x624 PUSH2 0x61F CALLDATASIZE PUSH1 0x4 PUSH2 0x34F1 JUMP JUMPDEST PUSH2 0x156C JUMP JUMPDEST PUSH1 0x40 MLOAD PUSH2 0x326 SWAP12 SWAP11 SWAP10 SWAP9 SWAP8 SWAP7 SWAP6 SWAP5 SWAP4 SWAP3 SWAP2 SWAP1 PUSH2 0x3648 JUMP JUMPDEST CALLVALUE DUP1 ISZERO PUSH2 0x647 JUMPI PUSH1 0x0 DUP1 REVERT JUMPDEST POP PUSH2 0x3BE PUSH2 0x15DB JUMP JUMPDEST CALLVALUE DUP1 ISZERO PUSH2 0x65C JUMPI PUSH1 0x0 DUP1 REVERT JUMPDEST POP PUSH2 0x2E2 PUSH2 0x15EA JUMP JUMPDEST CALLVALUE DUP1 ISZERO PUSH2 0x671 JUMPI PUSH1 0x0 DUP1 REVERT JUMPDEST POP PUSH2 0x685 PUSH2 0x680 CALLDATASIZE PUSH1 0x4 PUSH2 0x357C JUMP JUMPDEST PUSH2 0x1633 JUMP JUMPDEST PUSH1 0x40 MLOAD PUSH2 0x326 SWAP3 SWAP2 SWAP1 PUSH2 0x36BA JUMP JUMPDEST CALLVALUE DUP1 ISZERO PUSH2 0x69F JUMPI PUSH1 0x0 DUP1 REVERT JUMPDEST POP PUSH2 0x4A2 PUSH2 0x1676 JUMP JUMPDEST CALLVALUE DUP1 ISZERO PUSH2 0x6B4 JUMPI PUSH1 0x0 DUP1 REVERT JUMPDEST POP PUSH2 0x2E2 PUSH2 0x6C3 CALLDATASIZE PUSH1 0x4 PUSH2 0x3120 JUMP JUMPDEST PUSH2 0x167C JUMP JUMPDEST CALLVALUE DUP1 ISZERO PUSH2 0x6D4 JUMPI PUSH1 0x0 DUP1 REVERT JUMPDEST POP PUSH2 0x37C PUSH2 0x6E3 CALLDATASIZE PUSH1 0x4 PUSH2 0x34F1 JUMP JUMPDEST PUSH2 0x172F JUMP JUMPDEST CALLVALUE DUP1 ISZERO PUSH2 0x6F4 JUMPI PUSH1 0x0 DUP1 REVERT JUMPDEST POP PUSH2 0x319 PUSH2 0x703 CALLDATASIZE PUSH1 0x4 PUSH2 0x3158 JUMP JUMPDEST PUSH2 0x18CB JUMP JUMPDEST CALLVALUE DUP1 ISZERO PUSH2 0x714 JUMPI PUSH1 0x0 DUP1 REVERT JUMPDEST POP PUSH2 0x2E2 PUSH2 0x723 CALLDATASIZE PUSH1 0x4 PUSH2 0x33D9 JUMP JUMPDEST PUSH2 0x1B00 JUMP JUMPDEST CALLVALUE DUP1 ISZERO PUSH2 0x734 JUMPI PUSH1 0x0 DUP1 REVERT JUMPDEST POP PUSH2 0x2E2 PUSH2 0x743 CALLDATASIZE PUSH1 0x4 PUSH2 0x32A7 JUMP JUMPDEST PUSH2 0x213C JUMP JUMPDEST CALLVALUE DUP1 ISZERO PUSH2 0x754 JUMPI PUSH1 0x0 DUP1 REVERT JUMPDEST POP PUSH2 0x37C PUSH2 0x763 CALLDATASIZE PUSH1 0x4 PUSH2 0x3120 JUMP JUMPDEST PUSH2 0x227C JUMP JUMPDEST PUSH2 0x2E2 PUSH2 0x776 CALLDATASIZE PUSH1 0x4 PUSH2 0x357C JUMP JUMPDEST PUSH2 0x2291 JUMP JUMPDEST CALLVALUE DUP1 ISZERO PUSH2 0x787 JUMPI PUSH1 0x0 DUP1 REVERT JUMPDEST POP PUSH2 0x4A2 PUSH2 0x2599 JUMP JUMPDEST CALLVALUE DUP1 ISZERO PUSH2 0x79C JUMPI PUSH1 0x0 DUP1 REVERT JUMPDEST POP PUSH2 0x3BE PUSH2 0x259F JUMP JUMPDEST CALLVALUE DUP1 ISZERO PUSH2 0x7B1 JUMPI PUSH1 0x0 DUP1 REVERT JUMPDEST POP PUSH2 0x4A2 PUSH2 0x25AE JUMP JUMPDEST CALLVALUE DUP1 ISZERO PUSH2 0x7C6 JUMPI PUSH1 0x0 DUP1 REVERT JUMPDEST POP PUSH2 0x2E2 PUSH2 0x7D5 CALLDATASIZE PUSH1 0x4 PUSH2 0x3521 JUMP JUMPDEST PUSH2 0x25B4 JUMP JUMPDEST CALLVALUE DUP1 ISZERO PUSH2 0x7E6 JUMPI PUSH1 0x0 DUP1 REVERT JUMPDEST POP PUSH2 0x4A2 PUSH2 0x7F5 CALLDATASIZE PUSH1 0x4 PUSH2 0x3273 JUMP JUMPDEST PUSH2 0x26C9 JUMP JUMPDEST CALLVALUE DUP1 ISZERO PUSH2 0x806 JUMPI PUSH1 0x0 DUP1 REVERT JUMPDEST POP PUSH2 0x319 PUSH2 0x815 CALLDATASIZE PUSH1 0x4 PUSH2 0x3120 JUMP JUMPDEST PUSH2 0x270D JUMP JUMPDEST CALLVALUE DUP1 ISZERO PUSH2 0x826 JUMPI PUSH1 0x0 DUP1 REVERT JUMPDEST POP PUSH2 0x3BE PUSH2 0x2779 JUMP JUMPDEST CALLVALUE DUP1 ISZERO PUSH2 0x83B JUMPI PUSH1 0x0 DUP1 REVERT JUMPDEST POP PUSH2 0x84F PUSH2 0x84A CALLDATASIZE PUSH1 0x4 PUSH2 0x3545 JUMP JUMPDEST PUSH2 0x2788 JUMP JUMPDEST PUSH1 0x40 MLOAD PUSH2 0x326 SWAP4 SWAP3 SWAP2 SWAP1 PUSH2 0x3EF6 JUMP JUMPDEST CALLVALUE DUP1 ISZERO PUSH2 0x86A JUMPI PUSH1 0x0 DUP1 REVERT JUMPDEST POP PUSH2 0x2E2 PUSH2 0x879 CALLDATASIZE PUSH1 0x4 PUSH2 0x34F1 JUMP JUMPDEST PUSH2 0x2828 JUMP JUMPDEST PUSH1 0x11 SLOAD PUSH1 0x1 PUSH1 0x1 PUSH1 0xA0 SHL SUB AND PUSH2 0x892 PUSH2 0x298B JUMP JUMPDEST PUSH1 0x1 PUSH1 0x1 PUSH1 0xA0 SHL SUB AND EQ PUSH2 0x8B8 JUMPI PUSH1 0x40 MLOAD PUSH3 0x461BCD PUSH1 0xE5 SHL DUP2 MSTORE PUSH1 0x4 ADD PUSH2 0x2B4 SWAP1 PUSH2 0x3B92 JUMP JUMPDEST PUSH1 0x15 SSTORE JUMP JUMPDEST PUSH1 0x11 SLOAD PUSH1 0x1 PUSH1 0x1 PUSH1 0xA0 SHL SUB AND PUSH2 0x8D1 PUSH2 0x298B JUMP JUMPDEST PUSH1 0x1 PUSH1 0x1 PUSH1 0xA0 SHL SUB AND EQ PUSH2 0x8F7 JUMPI PUSH1 0x40 MLOAD PUSH3 0x461BCD PUSH1 0xE5 SHL DUP2 MSTORE PUSH1 0x4 ADD PUSH2 0x2B4 SWAP1 PUSH2 0x3B92 JUMP JUMPDEST PUSH1 0x14 SSTORE JUMP JUMPDEST PUSH1 0x60 PUSH1 0x9 DUP1 SLOAD DUP1 PUSH1 0x20 MUL PUSH1 0x20 ADD PUSH1 0x40 MLOAD SWAP1 DUP2 ADD PUSH1 0x40 MSTORE DUP1 SWAP3 SWAP2 SWAP1 DUP2 DUP2 MSTORE PUSH1 0x20 ADD DUP3 DUP1 SLOAD DUP1 ISZERO PUSH2 0x94A JUMPI PUSH1 0x20 MUL DUP3 ADD SWAP2 SWAP1 PUSH1 0x0 MSTORE PUSH1 0x20 PUSH1 0x0 KECCAK256 SWAP1 JUMPDEST DUP2 SLOAD DUP2 MSTORE PUSH1 0x20 ADD SWAP1 PUSH1 0x1 ADD SWAP1 DUP1 DUP4 GT PUSH2 0x936 JUMPI JUMPDEST POP POP POP POP POP SWAP1 POP SWAP1 JUMP JUMPDEST PUSH4 0xA85BD01 PUSH1 0xE1 SHL SWAP5 SWAP4 POP POP POP POP JUMP JUMPDEST PUSH1 0x17 SLOAD PUSH1 0x0 SWAP1 PUSH1 0xFF AND ISZERO PUSH2 0x98A JUMPI PUSH1 0x40 MLOAD PUSH3 0x461BCD PUSH1 0xE5 SHL DUP2 MSTORE PUSH1 0x4 ADD PUSH2 0x2B4 SWAP1 PUSH2 0x3B10 JUMP JUMPDEST PUSH1 0x0 DUP4 DUP2 MSTORE PUSH1 0x1 PUSH1 0x20 MSTORE PUSH1 0x40 SWAP1 KECCAK256 DUP1 SLOAD DUP5 SWAP2 SWAP1 PUSH1 0x1 PUSH1 0x1 PUSH1 0xA0 SHL SUB AND PUSH2 0x9AE PUSH2 0x298B JUMP JUMPDEST PUSH1 0x1 PUSH1 0x1 PUSH1 0xA0 SHL SUB AND EQ PUSH2 0x9D4 JUMPI PUSH1 0x40 MLOAD PUSH3 0x461BCD PUSH1 0xE5 SHL DUP2 MSTORE PUSH1 0x4 ADD PUSH2 0x2B4 SWAP1 PUSH2 0x3A90 JUMP JUMPDEST PUSH1 0x0 DUP6 DUP2 MSTORE PUSH1 0x1 PUSH1 0x20 MSTORE PUSH1 0x40 SWAP1 KECCAK256 PUSH1 0x5 DUP2 ADD SLOAD DUP7 SWAP2 SWAP1 ISZERO DUP1 ISZERO PUSH2 0x9F9 JUMPI POP PUSH1 0xA DUP2 ADD SLOAD ISZERO JUMPDEST PUSH2 0xA15 JUMPI PUSH1 0x40 MLOAD PUSH3 0x461BCD PUSH1 0xE5 SHL DUP2 MSTORE PUSH1 0x4 ADD PUSH2 0x2B4 SWAP1 PUSH2 0x3C88 JUMP JUMPDEST PUSH1 0x0 DUP8 DUP2 MSTORE PUSH1 0x1 PUSH1 0x20 MSTORE PUSH1 0x40 SWAP1 DUP2 SWAP1 KECCAK256 PUSH1 0x4 DUP2 ADD DUP1 SLOAD SWAP1 DUP10 SWAP1 SSTORE PUSH1 0x8 DUP3 ADD SLOAD SWAP3 MLOAD SWAP2 SWAP3 SWAP1 SWAP2 PUSH32 0x15819DD2FD9F6418B142E798D08A18D0BF06EA368F4480B7B0D3F75BD966BC48 SWAP2 PUSH2 0xA69 SWAP2 DUP5 SWAP1 DUP13 SWAP1 PUSH2 0x3EF6 JUMP JUMPDEST PUSH1 0x40 MLOAD DUP1 SWAP2 SUB SWAP1 LOG1 POP PUSH1 0x1 SWAP9 SWAP8 POP POP POP POP POP POP POP POP JUMP JUMPDEST PUSH1 0x11 SLOAD PUSH1 0x1 PUSH1 0x1 PUSH1 0xA0 SHL SUB AND PUSH2 0xA94 PUSH2 0x298B JUMP JUMPDEST PUSH1 0x1 PUSH1 0x1 PUSH1 0xA0 SHL SUB AND EQ PUSH2 0xABA JUMPI PUSH1 0x40 MLOAD PUSH3 0x461BCD PUSH1 0xE5 SHL DUP2 MSTORE PUSH1 0x4 ADD PUSH2 0x2B4 SWAP1 PUSH2 0x3B92 JUMP JUMPDEST PUSH1 0x12 SSTORE JUMP JUMPDEST PUSH1 0x10 SLOAD PUSH1 0x1 PUSH1 0x1 PUSH1 0xA0 SHL SUB AND DUP2 JUMP JUMPDEST PUSH1 0x17 SLOAD PUSH1 0x0 SWAP1 PUSH1 0xFF AND ISZERO PUSH2 0xAF4 JUMPI PUSH1 0x40 MLOAD PUSH3 0x461BCD PUSH1 0xE5 SHL DUP2 MSTORE PUSH1 0x4 ADD PUSH2 0x2B4 SWAP1 PUSH2 0x3B10 JUMP JUMPDEST PUSH1 0x2 PUSH1 0x0 SLOAD EQ ISZERO PUSH2 0xB17 JUMPI PUSH1 0x40 MLOAD PUSH3 0x461BCD PUSH1 0xE5 SHL DUP2 MSTORE PUSH1 0x4 ADD PUSH2 0x2B4 SWAP1 PUSH2 0x3DDA JUMP JUMPDEST PUSH1 0x2 PUSH1 0x0 SWAP1 DUP2 SSTORE DUP3 DUP2 MSTORE PUSH1 0x1 PUSH1 0x20 MSTORE PUSH1 0x40 SWAP1 KECCAK256 DUP1 SLOAD PUSH1 0x1 PUSH1 0x1 PUSH1 0xA0 SHL SUB AND PUSH2 0xB3D PUSH2 0x298B JUMP JUMPDEST PUSH1 0x1 PUSH1 0x1 PUSH1 0xA0 SHL SUB AND EQ DUP1 PUSH2 0xB6E JUMPI POP PUSH1 0x2 DUP2 ADD SLOAD PUSH1 0x1 PUSH1 0x1 PUSH1 0xA0 SHL SUB AND PUSH2 0xB63 PUSH2 0x298B JUMP JUMPDEST PUSH1 0x1 PUSH1 0x1 PUSH1 0xA0 SHL SUB AND EQ JUMPDEST PUSH2 0xB8A JUMPI PUSH1 0x40 MLOAD PUSH3 0x461BCD PUSH1 0xE5 SHL DUP2 MSTORE PUSH1 0x4 ADD PUSH2 0x2B4 SWAP1 PUSH2 0x3D42 JUMP JUMPDEST DUP1 PUSH1 0x4 ADD SLOAD DUP2 PUSH1 0x5 ADD SLOAD LT ISZERO PUSH2 0xBB2 JUMPI PUSH1 0x40 MLOAD PUSH3 0x461BCD PUSH1 0xE5 SHL DUP2 MSTORE PUSH1 0x4 ADD PUSH2 0x2B4 SWAP1 PUSH2 0x3C3F JUMP JUMPDEST DUP1 PUSH1 0xA ADD SLOAD PUSH2 0xBBF PUSH2 0x298F JUMP JUMPDEST LT ISZERO PUSH2 0xBDD JUMPI PUSH1 0x40 MLOAD PUSH3 0x461BCD PUSH1 0xE5 SHL DUP2 MSTORE PUSH1 0x4 ADD PUSH2 0x2B4 SWAP1 PUSH2 0x3C08 JUMP JUMPDEST DUP1 SLOAD PUSH1 0x5 DUP3 ADD SLOAD PUSH1 0x0 SWAP2 DUP3 SWAP2 DUP3 SWAP2 PUSH2 0xC00 SWAP2 DUP9 SWAP2 PUSH1 0x1 PUSH1 0x1 PUSH1 0xA0 SHL SUB AND SWAP1 PUSH2 0x2788 JUMP JUMPDEST PUSH1 0x6 DUP8 ADD SLOAD SWAP3 SWAP6 POP SWAP1 SWAP4 POP SWAP2 POP PUSH1 0x1 PUSH1 0x1 PUSH1 0xA0 SHL SUB AND PUSH2 0xD1F JUMPI PUSH1 0x10 SLOAD PUSH2 0xC30 SWAP1 PUSH1 0x1 PUSH1 0x1 PUSH1 0xA0 SHL SUB AND DUP5 PUSH2 0x2993 JUMP JUMPDEST DUP2 ISZERO PUSH2 0xD1A JUMPI PUSH1 0x8 DUP5 ADD SLOAD PUSH1 0x0 SWAP1 DUP2 MSTORE PUSH1 0x7 PUSH1 0x20 MSTORE PUSH1 0x40 SWAP1 KECCAK256 SLOAD PUSH2 0xC5D SWAP1 PUSH1 0x1 PUSH1 0x1 PUSH1 0xA0 SHL SUB AND DUP4 PUSH2 0x2993 JUMP JUMPDEST PUSH1 0x8 DUP5 ADD DUP1 SLOAD PUSH1 0x0 SWAP1 DUP2 MSTORE PUSH1 0x7 PUSH1 0x20 DUP2 DUP2 MSTORE PUSH1 0x40 DUP1 DUP5 KECCAK256 SLOAD PUSH1 0x1 PUSH1 0x1 PUSH1 0xA0 SHL SUB SWAP1 DUP2 AND DUP6 MSTORE PUSH1 0x6 DUP1 DUP5 MSTORE DUP3 DUP7 KECCAK256 DUP12 SLOAD DUP4 AND DUP8 MSTORE DUP5 MSTORE DUP3 DUP7 KECCAK256 DUP1 SLOAD PUSH1 0x1 SWAP1 DUP2 ADD SWAP1 SWAP2 SSTORE DUP12 SLOAD DUP4 AND DUP8 MSTORE DUP2 DUP6 MSTORE DUP4 DUP8 KECCAK256 DUP9 SLOAD DUP9 MSTORE DUP7 DUP7 MSTORE DUP5 DUP9 KECCAK256 SLOAD DUP5 AND DUP9 MSTORE DUP6 MSTORE DUP4 DUP8 KECCAK256 DUP1 SLOAD SWAP1 SWAP2 ADD SWAP1 SSTORE SWAP6 SLOAD DUP6 MSTORE SWAP3 SWAP1 SWAP2 MSTORE SWAP2 DUP3 SWAP1 KECCAK256 SLOAD SWAP3 DUP8 ADD SLOAD SWAP2 MLOAD PUSH32 0xD910938F9DDBA683B335A0A42DC6648F7C07ED578FA8B289F4694A3C21922CD2 SWAP4 PUSH2 0xD11 SWAP4 DUP12 SWAP4 SWAP2 DUP3 AND SWAP3 DUP9 SWAP3 SWAP2 SWAP1 SWAP2 AND SWAP1 PUSH2 0x3E84 JUMP JUMPDEST PUSH1 0x40 MLOAD DUP1 SWAP2 SUB SWAP1 LOG1 JUMPDEST PUSH2 0xE31 JUMP JUMPDEST PUSH1 0x6 DUP5 ADD SLOAD PUSH1 0x10 SLOAD PUSH2 0xD3E SWAP2 PUSH1 0x1 PUSH1 0x1 PUSH1 0xA0 SHL SUB SWAP1 DUP2 AND SWAP2 AND DUP6 PUSH2 0x2A0F JUMP JUMPDEST DUP2 ISZERO PUSH2 0xE31 JUMPI PUSH1 0x6 DUP5 ADD SLOAD PUSH1 0x8 DUP6 ADD SLOAD PUSH1 0x0 SWAP1 DUP2 MSTORE PUSH1 0x7 PUSH1 0x20 MSTORE PUSH1 0x40 SWAP1 KECCAK256 SLOAD PUSH2 0xD74 SWAP2 PUSH1 0x1 PUSH1 0x1 PUSH1 0xA0 SHL SUB SWAP1 DUP2 AND SWAP2 AND DUP5 PUSH2 0x2A0F JUMP JUMPDEST PUSH1 0x8 DUP5 ADD DUP1 SLOAD PUSH1 0x0 SWAP1 DUP2 MSTORE PUSH1 0x7 PUSH1 0x20 DUP2 DUP2 MSTORE PUSH1 0x40 DUP1 DUP5 KECCAK256 SLOAD PUSH1 0x1 PUSH1 0x1 PUSH1 0xA0 SHL SUB SWAP1 DUP2 AND DUP6 MSTORE PUSH1 0x6 DUP1 DUP5 MSTORE DUP3 DUP7 KECCAK256 DUP12 SLOAD DUP4 AND DUP8 MSTORE DUP5 MSTORE DUP3 DUP7 KECCAK256 DUP1 SLOAD PUSH1 0x1 SWAP1 DUP2 ADD SWAP1 SWAP2 SSTORE DUP12 SLOAD DUP4 AND DUP8 MSTORE DUP2 DUP6 MSTORE DUP4 DUP8 KECCAK256 DUP9 SLOAD DUP9 MSTORE DUP7 DUP7 MSTORE DUP5 DUP9 KECCAK256 SLOAD DUP5 AND DUP9 MSTORE DUP6 MSTORE DUP4 DUP8 KECCAK256 DUP1 SLOAD SWAP1 SWAP2 ADD SWAP1 SSTORE SWAP6 SLOAD DUP6 MSTORE SWAP3 SWAP1 SWAP2 MSTORE SWAP2 DUP3 SWAP1 KECCAK256 SLOAD SWAP3 DUP8 ADD SLOAD SWAP2 MLOAD PUSH32 0xD910938F9DDBA683B335A0A42DC6648F7C07ED578FA8B289F4694A3C21922CD2 SWAP4 PUSH2 0xE28 SWAP4 DUP12 SWAP4 SWAP2 DUP3 AND SWAP3 DUP9 SWAP3 SWAP2 SWAP1 SWAP2 AND SWAP1 PUSH2 0x3E84 JUMP JUMPDEST PUSH1 0x40 MLOAD DUP1 SWAP2 SUB SWAP1 LOG1 JUMPDEST PUSH1 0x8 DUP5 ADD SLOAD PUSH1 0x1 DUP6 ADD SLOAD PUSH1 0x3 DUP7 ADD SLOAD PUSH1 0x5 DUP8 ADD SLOAD PUSH1 0x6 DUP9 ADD SLOAD PUSH2 0xE63 SWAP5 SWAP4 PUSH1 0x1 PUSH1 0x1 PUSH1 0xA0 SHL SUB SWAP1 DUP2 AND SWAP4 SWAP3 SWAP2 AND PUSH2 0x2A23 JUMP JUMPDEST PUSH1 0x1 DUP5 ADD SLOAD PUSH1 0x3 DUP6 ADD SLOAD PUSH1 0x5 DUP7 ADD SLOAD PUSH1 0x0 SWAP3 PUSH2 0xE8A SWAP3 PUSH1 0x1 PUSH1 0x1 PUSH1 0xA0 SHL SUB SWAP1 SWAP2 AND SWAP2 PUSH2 0x26C9 JUMP JUMPDEST PUSH1 0x6 DUP7 ADD SLOAD SWAP1 SWAP2 POP PUSH2 0xEA7 SWAP1 DUP9 SWAP1 PUSH1 0x1 PUSH1 0x1 PUSH1 0xA0 SHL SUB AND DUP4 PUSH2 0x2B2B JUMP JUMPDEST PUSH1 0x1 DUP6 ADD SLOAD PUSH1 0x2 DUP7 ADD SLOAD PUSH1 0x3 DUP8 ADD SLOAD PUSH1 0x40 MLOAD PUSH4 0x21421707 PUSH1 0xE1 SHL DUP2 MSTORE PUSH1 0x1 PUSH1 0x1 PUSH1 0xA0 SHL SUB SWAP4 DUP5 AND SWAP4 DUP5 SWAP4 PUSH4 0x42842E0E SWAP4 PUSH2 0xEE9 SWAP4 ADDRESS SWAP4 SWAP1 SWAP3 AND SWAP2 PUSH1 0x4 ADD PUSH2 0x3624 JUMP JUMPDEST PUSH1 0x0 PUSH1 0x40 MLOAD DUP1 DUP4 SUB DUP2 PUSH1 0x0 DUP8 DUP1 EXTCODESIZE ISZERO DUP1 ISZERO PUSH2 0xF03 JUMPI PUSH1 0x0 DUP1 REVERT JUMPDEST POP GAS CALL ISZERO DUP1 ISZERO PUSH2 0xF17 JUMPI RETURNDATASIZE PUSH1 0x0 DUP1 RETURNDATACOPY RETURNDATASIZE PUSH1 0x0 REVERT JUMPDEST POP POP POP POP PUSH1 0x9 DUP7 ADD DUP1 SLOAD PUSH1 0xFF NOT AND PUSH1 0x2 OR SWAP1 SSTORE PUSH1 0x8 DUP7 ADD SLOAD PUSH1 0x1 DUP8 ADD SLOAD PUSH1 0x3 DUP9 ADD SLOAD PUSH1 0x40 MLOAD PUSH32 0xFDC6C9BF7681F58DE9134DB5FA17741BDABC968CEE7548BCDA287F6E82B8D54D SWAP4 PUSH2 0xF79 SWAP4 SWAP1 SWAP3 PUSH1 0x1 PUSH1 0x1 PUSH1 0xA0 SHL SUB SWAP1 SWAP2 AND SWAP2 DUP8 SWAP1 DUP10 SWAP1 PUSH2 0x3ECA JUMP JUMPDEST PUSH1 0x40 MLOAD DUP1 SWAP2 SUB SWAP1 LOG1 PUSH1 0x1 SWAP7 POP POP POP POP POP POP POP PUSH1 0x1 PUSH1 0x0 SSTORE SWAP2 SWAP1 POP JUMP JUMPDEST PUSH1 0xD SLOAD PUSH1 0x40 MLOAD PUSH4 0x7A99DC01 PUSH1 0xE1 SHL DUP2 MSTORE PUSH1 0x60 SWAP2 DUP3 SWAP2 PUSH1 0x0 SWAP2 PUSH1 0x1 PUSH1 0x1 PUSH1 0xA0 SHL SUB AND SWAP1 PUSH4 0xF533B802 SWAP1 PUSH2 0xFCF SWAP1 DUP10 SWAP1 DUP10 SWAP1 DUP10 SWAP1 PUSH1 0x4 ADD PUSH2 0x373F JUMP JUMPDEST PUSH1 0x0 PUSH1 0x40 MLOAD DUP1 DUP4 SUB DUP2 DUP7 DUP1 EXTCODESIZE ISZERO DUP1 ISZERO PUSH2 0xFE7 JUMPI PUSH1 0x0 DUP1 REVERT JUMPDEST POP GAS STATICCALL ISZERO DUP1 ISZERO PUSH2 0xFFB JUMPI RETURNDATASIZE PUSH1 0x0 DUP1 RETURNDATACOPY RETURNDATASIZE PUSH1 0x0 REVERT JUMPDEST POP POP POP POP PUSH1 0x40 MLOAD RETURNDATASIZE PUSH1 0x0 DUP3 RETURNDATACOPY PUSH1 0x1F RETURNDATASIZE SWAP1 DUP2 ADD PUSH1 0x1F NOT AND DUP3 ADD PUSH1 0x40 MSTORE PUSH2 0x1023 SWAP2 SWAP1 DUP2 ADD SWAP1 PUSH2 0x3316 JUMP JUMPDEST SWAP1 SWAP4 POP SWAP2 POP PUSH1 0x0 JUMPDEST DUP3 MLOAD DUP2 LT ISZERO PUSH2 0x1064 JUMPI PUSH2 0x105A DUP4 DUP3 DUP2 MLOAD DUP2 LT PUSH2 0x1043 JUMPI INVALID JUMPDEST PUSH1 0x20 MUL PUSH1 0x20 ADD ADD MLOAD DUP4 PUSH2 0x2D36 SWAP1 SWAP2 SWAP1 PUSH4 0xFFFFFFFF AND JUMP JUMPDEST SWAP2 POP PUSH1 0x1 ADD PUSH2 0x102B JUMP JUMPDEST POP SWAP4 POP SWAP4 POP SWAP4 SWAP1 POP JUMP JUMPDEST PUSH1 0x7 PUSH1 0x20 MSTORE PUSH1 0x0 SWAP1 DUP2 MSTORE PUSH1 0x40 SWAP1 KECCAK256 SLOAD PUSH1 0x1 PUSH1 0x1 PUSH1 0xA0 SHL SUB AND DUP2 JUMP JUMPDEST PUSH1 0xB SLOAD PUSH1 0x1 PUSH1 0x1 PUSH1 0xA0 SHL SUB AND DUP2 JUMP JUMPDEST PUSH1 0x11 SLOAD PUSH1 0x1 PUSH1 0x1 PUSH1 0xA0 SHL SUB AND PUSH2 0x10AC PUSH2 0x298B JUMP JUMPDEST PUSH1 0x1 PUSH1 0x1 PUSH1 0xA0 SHL SUB AND EQ PUSH2 0x10D2 JUMPI PUSH1 0x40 MLOAD PUSH3 0x461BCD PUSH1 0xE5 SHL DUP2 MSTORE PUSH1 0x4 ADD PUSH2 0x2B4 SWAP1 PUSH2 0x3B92 JUMP JUMPDEST PUSH1 0xD DUP1 SLOAD PUSH1 0x1 PUSH1 0x1 PUSH1 0xA0 SHL SUB NOT AND PUSH1 0x1 PUSH1 0x1 PUSH1 0xA0 SHL SUB SWAP3 SWAP1 SWAP3 AND SWAP2 SWAP1 SWAP2 OR SWAP1 SSTORE JUMP JUMPDEST PUSH1 0x11 SLOAD PUSH1 0x1 PUSH1 0x1 PUSH1 0xA0 SHL SUB AND PUSH2 0x1108 PUSH2 0x298B JUMP JUMPDEST PUSH1 0x1 PUSH1 0x1 PUSH1 0xA0 SHL SUB AND EQ PUSH2 0x112E JUMPI PUSH1 0x40 MLOAD PUSH3 0x461BCD PUSH1 0xE5 SHL DUP2 MSTORE PUSH1 0x4 ADD PUSH2 0x2B4 SWAP1 PUSH2 0x3B92 JUMP JUMPDEST PUSH1 0x10 DUP1 SLOAD PUSH1 0x1 PUSH1 0x1 PUSH1 0xA0 SHL SUB NOT AND PUSH1 0x1 PUSH1 0x1 PUSH1 0xA0 SHL SUB SWAP3 SWAP1 SWAP3 AND SWAP2 SWAP1 SWAP2 OR SWAP1 SSTORE JUMP JUMPDEST PUSH1 0x6 PUSH1 0x20 SWAP1 DUP2 MSTORE PUSH1 0x0 SWAP3 DUP4 MSTORE PUSH1 0x40 DUP1 DUP5 KECCAK256 SWAP1 SWAP2 MSTORE SWAP1 DUP3 MSTORE SWAP1 KECCAK256 SLOAD DUP2 JUMP JUMPDEST PUSH1 0x11 SLOAD PUSH1 0x1 PUSH1 0x1 PUSH1 0xA0 SHL SUB AND PUSH2 0x1181 PUSH2 0x298B JUMP JUMPDEST PUSH1 0x1 PUSH1 0x1 PUSH1 0xA0 SHL SUB AND EQ PUSH2 0x11A7 JUMPI PUSH1 0x40 MLOAD PUSH3 0x461BCD PUSH1 0xE5 SHL DUP2 MSTORE PUSH1 0x4 ADD PUSH2 0x2B4 SWAP1 PUSH2 0x3B92 JUMP JUMPDEST PUSH1 0x17 DUP1 SLOAD PUSH1 0xFF NOT AND SWAP1 SSTORE JUMP JUMPDEST PUSH1 0x2 PUSH1 0x20 SWAP1 DUP2 MSTORE PUSH1 0x0 SWAP3 DUP4 MSTORE PUSH1 0x40 DUP1 DUP5 KECCAK256 SWAP1 SWAP2 MSTORE SWAP1 DUP3 MSTORE SWAP1 KECCAK256 SLOAD DUP2 JUMP JUMPDEST PUSH1 0x15 SLOAD DUP2 JUMP JUMPDEST PUSH1 0x11 SLOAD PUSH1 0x1 PUSH1 0x1 PUSH1 0xA0 SHL SUB AND PUSH2 0x11EA PUSH2 0x298B JUMP JUMPDEST PUSH1 0x1 PUSH1 0x1 PUSH1 0xA0 SHL SUB AND EQ PUSH2 0x1210 JUMPI PUSH1 0x40 MLOAD PUSH3 0x461BCD PUSH1 0xE5 SHL DUP2 MSTORE PUSH1 0x4 ADD PUSH2 0x2B4 SWAP1 PUSH2 0x3B92 JUMP JUMPDEST PUSH1 0xB SLOAD PUSH1 0x1 PUSH1 0x1 PUSH1 0xA0 SHL SUB AND ISZERO PUSH2 0x1237 JUMPI PUSH1 0xB DUP1 SLOAD PUSH1 0x1 PUSH1 0x1 PUSH1 0xA0 SHL SUB NOT AND SWAP1 SSTORE PUSH1 0x0 PUSH1 0xC SSTORE JUMPDEST PUSH32 0xF6E78B888697FF479EBF2BD530914C94038EF7A63DA1FBB639BC6D40A169B136 PUSH2 0x1260 PUSH2 0x298B JUMP JUMPDEST PUSH1 0xB SLOAD PUSH1 0x40 MLOAD PUSH2 0x127A SWAP3 SWAP2 PUSH1 0x1 PUSH1 0x1 PUSH1 0xA0 SHL SUB AND SWAP1 PUSH2 0x360A JUMP JUMPDEST PUSH1 0x40 MLOAD DUP1 SWAP2 SUB SWAP1 LOG1 JUMP JUMPDEST PUSH1 0x3 PUSH1 0x20 MSTORE PUSH1 0x0 SWAP1 DUP2 MSTORE PUSH1 0x40 SWAP1 KECCAK256 SLOAD PUSH1 0xFF AND DUP2 JUMP JUMPDEST PUSH1 0x16 SLOAD DUP2 JUMP JUMPDEST PUSH1 0x17 SLOAD PUSH1 0xFF AND DUP2 JUMP JUMPDEST PUSH1 0x60 PUSH1 0x8 PUSH1 0x0 DUP4 DUP2 MSTORE PUSH1 0x20 ADD SWAP1 DUP2 MSTORE PUSH1 0x20 ADD PUSH1 0x0 KECCAK256 DUP1 SLOAD DUP1 PUSH1 0x20 MUL PUSH1 0x20 ADD PUSH1 0x40 MLOAD SWAP1 DUP2 ADD PUSH1 0x40 MSTORE DUP1 SWAP3 SWAP2 SWAP1 DUP2 DUP2 MSTORE PUSH1 0x20 ADD PUSH1 0x0 SWAP1 JUMPDEST DUP3 DUP3 LT ISZERO PUSH2 0x1325 JUMPI PUSH1 0x0 DUP5 DUP2 MSTORE PUSH1 0x20 SWAP1 DUP2 SWAP1 KECCAK256 PUSH1 0x40 DUP1 MLOAD DUP1 DUP3 ADD SWAP1 SWAP2 MSTORE PUSH1 0x2 DUP6 MUL SWAP1 SWAP2 ADD DUP1 SLOAD PUSH1 0x1 PUSH1 0x1 PUSH1 0xA0 SHL SUB AND DUP3 MSTORE PUSH1 0x1 SWAP1 DUP2 ADD SLOAD DUP3 DUP5 ADD MSTORE SWAP1 DUP4 MSTORE SWAP1 SWAP3 ADD SWAP2 ADD PUSH2 0x12DD JUMP JUMPDEST POP POP POP POP SWAP1 POP SWAP2 SWAP1 POP JUMP JUMPDEST PUSH1 0x0 DUP3 DUP2 MSTORE PUSH1 0x1 PUSH1 0x20 MSTORE PUSH1 0x40 SWAP1 KECCAK256 DUP1 SLOAD DUP4 SWAP2 SWAP1 PUSH1 0x1 PUSH1 0x1 PUSH1 0xA0 SHL SUB AND PUSH2 0x1354 PUSH2 0x298B JUMP JUMPDEST PUSH1 0x1 PUSH1 0x1 PUSH1 0xA0 SHL SUB AND EQ PUSH2 0x137A JUMPI PUSH1 0x40 MLOAD PUSH3 0x461BCD PUSH1 0xE5 SHL DUP2 MSTORE PUSH1 0x4 ADD PUSH2 0x2B4 SWAP1 PUSH2 0x3A90 JUMP JUMPDEST PUSH1 0x0 DUP5 DUP2 MSTORE PUSH1 0x1 PUSH1 0x20 MSTORE PUSH1 0x40 SWAP1 DUP2 SWAP1 KECCAK256 DUP1 SLOAD PUSH1 0x1 PUSH1 0x1 PUSH1 0xA0 SHL SUB DUP7 DUP2 AND PUSH1 0x1 PUSH1 0x1 PUSH1 0xA0 SHL SUB NOT DUP4 AND OR DUP4 SSTORE SWAP3 MLOAD SWAP2 SWAP3 AND SWAP1 PUSH32 0x52675FA98882125168352BF9383F1F5F530CBDBA22E63A59E50BEA405C9008F1 SWAP1 PUSH2 0x13DC SWAP1 DUP9 SWAP1 DUP5 SWAP1 DUP10 SWAP1 PUSH2 0x3EAB JUMP JUMPDEST PUSH1 0x40 MLOAD DUP1 SWAP2 SUB SWAP1 LOG1 POP POP POP POP POP POP JUMP JUMPDEST PUSH1 0x11 SLOAD PUSH1 0x1 PUSH1 0x1 PUSH1 0xA0 SHL SUB AND PUSH2 0x1400 PUSH2 0x298B JUMP JUMPDEST PUSH1 0x1 PUSH1 0x1 PUSH1 0xA0 SHL SUB AND EQ PUSH2 0x1426 JUMPI PUSH1 0x40 MLOAD PUSH3 0x461BCD PUSH1 0xE5 SHL DUP2 MSTORE PUSH1 0x4 ADD PUSH2 0x2B4 SWAP1 PUSH2 0x3B92 JUMP JUMPDEST PUSH1 0x1 PUSH1 0x1 PUSH1 0xA0 SHL SUB DUP2 AND PUSH2 0x144C JUMPI PUSH1 0x40 MLOAD PUSH3 0x461BCD PUSH1 0xE5 SHL DUP2 MSTORE PUSH1 0x4 ADD PUSH2 0x2B4 SWAP1 PUSH2 0x3A6D JUMP JUMPDEST PUSH1 0xF DUP1 SLOAD PUSH1 0x1 PUSH1 0x1 PUSH1 0xA0 SHL SUB NOT AND PUSH1 0x1 PUSH1 0x1 PUSH1 0xA0 SHL SUB SWAP3 SWAP1 SWAP3 AND SWAP2 SWAP1 SWAP2 OR SWAP1 SSTORE JUMP JUMPDEST PUSH3 0x2A300 DUP2 JUMP JUMPDEST PUSH1 0x11 SLOAD PUSH1 0x1 PUSH1 0x1 PUSH1 0xA0 SHL SUB AND PUSH2 0x1489 PUSH2 0x298B JUMP JUMPDEST PUSH1 0x1 PUSH1 0x1 PUSH1 0xA0 SHL SUB AND EQ PUSH2 0x14AF JUMPI PUSH1 0x40 MLOAD PUSH3 0x461BCD PUSH1 0xE5 SHL DUP2 MSTORE PUSH1 0x4 ADD PUSH2 0x2B4 SWAP1 PUSH2 0x3B92 JUMP JUMPDEST PUSH1 0x0 PUSH1 0xC SLOAD GT DUP1 ISZERO PUSH2 0x14CB JUMPI POP PUSH1 0xB SLOAD PUSH1 0x1 PUSH1 0x1 PUSH1 0xA0 SHL SUB AND ISZERO ISZERO JUMPDEST ISZERO PUSH2 0x1523 JUMPI PUSH1 0xC SLOAD PUSH2 0x14DB PUSH2 0x298F JUMP JUMPDEST GT PUSH2 0x14F8 JUMPI PUSH1 0x40 MLOAD PUSH3 0x461BCD PUSH1 0xE5 SHL DUP2 MSTORE PUSH1 0x4 ADD PUSH2 0x2B4 SWAP1 PUSH2 0x3BC7 JUMP JUMPDEST PUSH1 0xB DUP1 SLOAD PUSH1 0x11 DUP1 SLOAD PUSH1 0x1 PUSH1 0x1 PUSH1 0xA0 SHL SUB NOT SWAP1 DUP2 AND PUSH1 0x1 PUSH1 0x1 PUSH1 0xA0 SHL SUB DUP5 AND OR SWAP1 SWAP2 SSTORE PUSH1 0x0 PUSH1 0xC SSTORE AND SWAP1 SSTORE JUMPDEST PUSH32 0xF33589017275DA9766C166BB90EE92C785A1C4412558882D367FB50165F51855 PUSH2 0x154C PUSH2 0x298B JUMP JUMPDEST PUSH1 0x11 SLOAD PUSH1 0x40 MLOAD PUSH2 0x127A SWAP3 SWAP2 PUSH1 0x1 PUSH1 0x1 PUSH1 0xA0 SHL SUB AND SWAP1 PUSH2 0x360A JUMP JUMPDEST PUSH1 0x13 SLOAD DUP2 JUMP JUMPDEST PUSH1 0x1 PUSH1 0x20 DUP2 SWAP1 MSTORE PUSH1 0x0 SWAP2 DUP3 MSTORE PUSH1 0x40 SWAP1 SWAP2 KECCAK256 DUP1 SLOAD SWAP2 DUP2 ADD SLOAD PUSH1 0x2 DUP3 ADD SLOAD PUSH1 0x3 DUP4 ADD SLOAD PUSH1 0x4 DUP5 ADD SLOAD PUSH1 0x5 DUP6 ADD SLOAD PUSH1 0x6 DUP7 ADD SLOAD PUSH1 0x7 DUP8 ADD SLOAD PUSH1 0x8 DUP9 ADD SLOAD PUSH1 0x9 DUP10 ADD SLOAD PUSH1 0xA SWAP1 SWAP10 ADD SLOAD PUSH1 0x1 PUSH1 0x1 PUSH1 0xA0 SHL SUB SWAP11 DUP12 AND SWAP11 SWAP9 DUP10 AND SWAP10 SWAP8 DUP10 AND SWAP9 SWAP7 SWAP8 SWAP6 SWAP7 SWAP5 SWAP6 SWAP5 SWAP1 SWAP4 AND SWAP4 SWAP2 SWAP3 SWAP1 SWAP2 PUSH1 0xFF AND SWAP1 DUP12 JUMP JUMPDEST PUSH1 0xF SLOAD PUSH1 0x1 PUSH1 0x1 PUSH1 0xA0 SHL SUB AND DUP2 JUMP JUMPDEST PUSH1 0x11 SLOAD PUSH1 0x1 PUSH1 0x1 PUSH1 0xA0 SHL SUB AND PUSH2 0x15FE PUSH2 0x298B JUMP JUMPDEST PUSH1 0x1 PUSH1 0x1 PUSH1 0xA0 SHL SUB AND EQ PUSH2 0x1624 JUMPI PUSH1 0x40 MLOAD PUSH3 0x461BCD PUSH1 0xE5 SHL DUP2 MSTORE PUSH1 0x4 ADD PUSH2 0x2B4 SWAP1 PUSH2 0x3B92 JUMP JUMPDEST PUSH1 0x17 DUP1 SLOAD PUSH1 0xFF NOT AND PUSH1 0x1 OR SWAP1 SSTORE JUMP JUMPDEST PUSH1 0x8 PUSH1 0x20 MSTORE DUP2 PUSH1 0x0 MSTORE PUSH1 0x40 PUSH1 0x0 KECCAK256 DUP2 DUP2 SLOAD DUP2 LT PUSH2 0x164C JUMPI INVALID JUMPDEST PUSH1 0x0 SWAP2 DUP3 MSTORE PUSH1 0x20 SWAP1 SWAP2 KECCAK256 PUSH1 0x2 SWAP1 SWAP2 MUL ADD DUP1 SLOAD PUSH1 0x1 SWAP1 SWAP2 ADD SLOAD PUSH1 0x1 PUSH1 0x1 PUSH1 0xA0 SHL SUB SWAP1 SWAP2 AND SWAP3 POP SWAP1 POP DUP3 JUMP JUMPDEST PUSH1 0x14 SLOAD DUP2 JUMP JUMPDEST PUSH1 0x11 SLOAD PUSH1 0x1 PUSH1 0x1 PUSH1 0xA0 SHL SUB AND PUSH2 0x1690 PUSH2 0x298B JUMP JUMPDEST PUSH1 0x1 PUSH1 0x1 PUSH1 0xA0 SHL SUB AND EQ PUSH2 0x16B6 JUMPI PUSH1 0x40 MLOAD PUSH3 0x461BCD PUSH1 0xE5 SHL DUP2 MSTORE PUSH1 0x4 ADD PUSH2 0x2B4 SWAP1 PUSH2 0x3B92 JUMP JUMPDEST PUSH1 0xB DUP1 SLOAD PUSH1 0x1 PUSH1 0x1 PUSH1 0xA0 SHL SUB NOT AND PUSH1 0x1 PUSH1 0x1 PUSH1 0xA0 SHL SUB DUP4 AND OR SWAP1 SSTORE PUSH3 0x2A300 PUSH2 0x16DD PUSH2 0x298F JUMP JUMPDEST ADD PUSH1 0xC SSTORE PUSH32 0xCF9B665E0639E0B81A8DB37B60AC7DDF45AEB1B484E11ADEB7DFF4BF4A3A6258 PUSH2 0x170A PUSH2 0x298B JUMP JUMPDEST PUSH1 0x11 SLOAD PUSH1 0x40 MLOAD PUSH2 0x1724 SWAP3 SWAP2 PUSH1 0x1 PUSH1 0x1 PUSH1 0xA0 SHL SUB AND SWAP1 PUSH2 0x360A JUMP JUMPDEST PUSH1 0x40 MLOAD DUP1 SWAP2 SUB SWAP1 LOG1 POP JUMP JUMPDEST PUSH1 0x17 SLOAD PUSH1 0x0 SWAP1 PUSH1 0xFF AND ISZERO PUSH2 0x1755 JUMPI PUSH1 0x40 MLOAD PUSH3 0x461BCD PUSH1 0xE5 SHL DUP2 MSTORE PUSH1 0x4 ADD PUSH2 0x2B4 SWAP1 PUSH2 0x3B10 JUMP JUMPDEST PUSH1 0x0 DUP3 DUP2 MSTORE PUSH1 0x1 PUSH1 0x20 MSTORE PUSH1 0x40 SWAP1 KECCAK256 DUP1 SLOAD DUP4 SWAP2 SWAP1 PUSH1 0x1 PUSH1 0x1 PUSH1 0xA0 SHL SUB AND PUSH2 0x1779 PUSH2 0x298B JUMP JUMPDEST PUSH1 0x1 PUSH1 0x1 PUSH1 0xA0 SHL SUB AND EQ PUSH2 0x179F JUMPI PUSH1 0x40 MLOAD PUSH3 0x461BCD PUSH1 0xE5 SHL DUP2 MSTORE PUSH1 0x4 ADD PUSH2 0x2B4 SWAP1 PUSH2 0x3A90 JUMP JUMPDEST PUSH1 0x0 DUP5 DUP2 MSTORE PUSH1 0x1 PUSH1 0x20 MSTORE PUSH1 0x40 SWAP1 KECCAK256 PUSH1 0x5 DUP2 ADD SLOAD DUP6 SWAP2 SWAP1 ISZERO DUP1 ISZERO PUSH2 0x17C4 JUMPI POP PUSH1 0xA DUP2 ADD SLOAD ISZERO JUMPDEST PUSH2 0x17E0 JUMPI PUSH1 0x40 MLOAD PUSH3 0x461BCD PUSH1 0xE5 SHL DUP2 MSTORE PUSH1 0x4 ADD PUSH2 0x2B4 SWAP1 PUSH2 0x3C88 JUMP JUMPDEST PUSH1 0x0 DUP7 DUP2 MSTORE PUSH1 0x1 PUSH1 0x20 DUP2 SWAP1 MSTORE PUSH1 0x40 SWAP2 DUP3 SWAP1 KECCAK256 SWAP1 DUP2 ADD SLOAD DUP2 SLOAD PUSH1 0x3 DUP4 ADD SLOAD SWAP4 MLOAD PUSH4 0x21421707 PUSH1 0xE1 SHL DUP2 MSTORE SWAP3 SWAP4 PUSH1 0x1 PUSH1 0x1 PUSH1 0xA0 SHL SUB SWAP3 DUP4 AND SWAP4 PUSH4 0x42842E0E SWAP4 PUSH2 0x182E SWAP4 ADDRESS SWAP4 SWAP2 AND SWAP2 PUSH1 0x4 ADD PUSH2 0x3624 JUMP JUMPDEST PUSH1 0x0 PUSH1 0x40 MLOAD DUP1 DUP4 SUB DUP2 PUSH1 0x0 DUP8 DUP1 EXTCODESIZE ISZERO DUP1 ISZERO PUSH2 0x1848 JUMPI PUSH1 0x0 DUP1 REVERT JUMPDEST POP GAS CALL ISZERO DUP1 ISZERO PUSH2 0x185C JUMPI RETURNDATASIZE PUSH1 0x0 DUP1 RETURNDATACOPY RETURNDATASIZE PUSH1 0x0 REVERT JUMPDEST POP POP POP POP PUSH1 0x9 DUP2 ADD DUP1 SLOAD PUSH1 0xFF NOT AND PUSH1 0x1 SWAP1 DUP2 OR SWAP1 SWAP2 SSTORE DUP2 ADD SLOAD PUSH1 0x3 DUP3 ADD SLOAD PUSH1 0x40 MLOAD PUSH32 0xAA17FDF5FFB610A4CC0887F35C13C501975A370005080F68441055871952EB81 SWAP3 PUSH2 0x18B6 SWAP3 DUP12 SWAP3 PUSH1 0x1 PUSH1 0x1 PUSH1 0xA0 SHL SUB SWAP1 SWAP3 AND SWAP2 PUSH2 0x3E65 JUMP JUMPDEST PUSH1 0x40 MLOAD DUP1 SWAP2 SUB SWAP1 LOG1 POP PUSH1 0x1 SWAP7 SWAP6 POP POP POP POP POP POP JUMP JUMPDEST PUSH1 0x40 MLOAD PUSH4 0x70A08231 PUSH1 0xE0 SHL DUP2 MSTORE PUSH1 0x60 SWAP1 DUP3 SWAP1 PUSH1 0x0 SWAP1 PUSH1 0x1 PUSH1 0x1 PUSH1 0xA0 SHL SUB DUP4 AND SWAP1 PUSH4 0x70A08231 SWAP1 PUSH2 0x18FF SWAP1 DUP9 SWAP1 PUSH1 0x4 ADD PUSH2 0x35F6 JUMP JUMPDEST PUSH1 0x20 PUSH1 0x40 MLOAD DUP1 DUP4 SUB DUP2 DUP7 DUP1 EXTCODESIZE ISZERO DUP1 ISZERO PUSH2 0x1917 JUMPI PUSH1 0x0 DUP1 REVERT JUMPDEST POP GAS STATICCALL ISZERO DUP1 ISZERO PUSH2 0x192B JUMPI RETURNDATASIZE PUSH1 0x0 DUP1 RETURNDATACOPY RETURNDATASIZE PUSH1 0x0 REVERT JUMPDEST POP POP POP POP PUSH1 0x40 MLOAD RETURNDATASIZE PUSH1 0x1F NOT PUSH1 0x1F DUP3 ADD AND DUP3 ADD DUP1 PUSH1 0x40 MSTORE POP DUP2 ADD SWAP1 PUSH2 0x194F SWAP2 SWAP1 PUSH2 0x3509 JUMP JUMPDEST SWAP1 POP DUP1 PUSH2 0x196E JUMPI POP POP PUSH1 0x40 DUP1 MLOAD PUSH1 0x0 DUP2 MSTORE PUSH1 0x20 DUP2 ADD SWAP1 SWAP2 MSTORE SWAP1 POP PUSH2 0x1AFA JUMP JUMPDEST PUSH1 0x60 DUP2 PUSH8 0xFFFFFFFFFFFFFFFF DUP2 GT DUP1 ISZERO PUSH2 0x1987 JUMPI PUSH1 0x0 DUP1 REVERT JUMPDEST POP PUSH1 0x40 MLOAD SWAP1 DUP1 DUP3 MSTORE DUP1 PUSH1 0x20 MUL PUSH1 0x20 ADD DUP3 ADD PUSH1 0x40 MSTORE DUP1 ISZERO PUSH2 0x19B1 JUMPI DUP2 PUSH1 0x20 ADD PUSH1 0x20 DUP3 MUL DUP1 CALLDATASIZE DUP4 CALLDATACOPY ADD SWAP1 POP JUMPDEST POP SWAP1 POP PUSH1 0x0 DUP4 PUSH1 0x1 PUSH1 0x1 PUSH1 0xA0 SHL SUB AND PUSH4 0x18160DDD PUSH1 0x40 MLOAD DUP2 PUSH4 0xFFFFFFFF AND PUSH1 0xE0 SHL DUP2 MSTORE PUSH1 0x4 ADD PUSH1 0x20 PUSH1 0x40 MLOAD DUP1 DUP4 SUB DUP2 DUP7 DUP1 EXTCODESIZE ISZERO DUP1 ISZERO PUSH2 0x19EF JUMPI PUSH1 0x0 DUP1 REVERT JUMPDEST POP GAS STATICCALL ISZERO DUP1 ISZERO PUSH2 0x1A03 JUMPI RETURNDATASIZE PUSH1 0x0 DUP1 RETURNDATACOPY RETURNDATASIZE PUSH1 0x0 REVERT JUMPDEST POP POP POP POP PUSH1 0x40 MLOAD RETURNDATASIZE PUSH1 0x1F NOT PUSH1 0x1F DUP3 ADD AND DUP3 ADD DUP1 PUSH1 0x40 MSTORE POP DUP2 ADD SWAP1 PUSH2 0x1A27 SWAP2 SWAP1 PUSH2 0x3509 JUMP JUMPDEST SWAP1 POP PUSH1 0x0 PUSH1 0x1 JUMPDEST DUP3 DUP2 GT PUSH2 0x1AF1 JUMPI DUP9 PUSH1 0x1 PUSH1 0x1 PUSH1 0xA0 SHL SUB AND DUP7 PUSH1 0x1 PUSH1 0x1 PUSH1 0xA0 SHL SUB AND PUSH4 0x6352211E DUP4 PUSH1 0x40 MLOAD DUP3 PUSH4 0xFFFFFFFF AND PUSH1 0xE0 SHL DUP2 MSTORE PUSH1 0x4 ADD PUSH2 0x1A6B SWAP2 SWAP1 PUSH2 0x3E5C JUMP JUMPDEST PUSH1 0x20 PUSH1 0x40 MLOAD DUP1 DUP4 SUB DUP2 DUP7 DUP1 EXTCODESIZE ISZERO DUP1 ISZERO PUSH2 0x1A83 JUMPI PUSH1 0x0 DUP1 REVERT JUMPDEST POP GAS STATICCALL ISZERO DUP1 ISZERO PUSH2 0x1A97 JUMPI RETURNDATASIZE PUSH1 0x0 DUP1 RETURNDATACOPY RETURNDATASIZE PUSH1 0x0 REVERT JUMPDEST POP POP POP POP PUSH1 0x40 MLOAD RETURNDATASIZE PUSH1 0x1F NOT PUSH1 0x1F DUP3 ADD AND DUP3 ADD DUP1 PUSH1 0x40 MSTORE POP DUP2 ADD SWAP1 PUSH2 0x1ABB SWAP2 SWAP1 PUSH2 0x313C JUMP JUMPDEST PUSH1 0x1 PUSH1 0x1 PUSH1 0xA0 SHL SUB AND EQ ISZERO PUSH2 0x1AE9 JUMPI DUP1 DUP5 DUP4 DUP2 MLOAD DUP2 LT PUSH2 0x1AD7 JUMPI INVALID JUMPDEST PUSH1 0x20 SWAP1 DUP2 MUL SWAP2 SWAP1 SWAP2 ADD ADD MSTORE PUSH1 0x1 SWAP1 SWAP2 ADD SWAP1 JUMPDEST PUSH1 0x1 ADD PUSH2 0x1A2E JUMP JUMPDEST POP SWAP2 SWAP5 POP POP POP POP POP JUMPDEST SWAP3 SWAP2 POP POP JUMP JUMPDEST PUSH1 0x17 SLOAD PUSH1 0xFF AND ISZERO PUSH2 0x1B23 JUMPI PUSH1 0x40 MLOAD PUSH3 0x461BCD PUSH1 0xE5 SHL DUP2 MSTORE PUSH1 0x4 ADD PUSH2 0x2B4 SWAP1 PUSH2 0x3B10 JUMP JUMPDEST DUP4 PUSH1 0x0 PUSH2 0x1B2F DUP8 PUSH2 0x2D5B JUMP JUMPDEST PUSH2 0x1B4B JUMPI PUSH1 0x40 MLOAD PUSH3 0x461BCD PUSH1 0xE5 SHL DUP2 MSTORE PUSH1 0x4 ADD PUSH2 0x2B4 SWAP1 PUSH2 0x3AC7 JUMP JUMPDEST PUSH1 0x1 PUSH1 0x1 PUSH1 0xA0 SHL SUB DUP4 AND PUSH1 0x0 SWAP1 DUP2 MSTORE PUSH1 0x3 PUSH1 0x20 MSTORE PUSH1 0x40 SWAP1 KECCAK256 SLOAD PUSH1 0xFF AND PUSH2 0x1B83 JUMPI PUSH1 0x40 MLOAD PUSH3 0x461BCD PUSH1 0xE5 SHL DUP2 MSTORE PUSH1 0x4 ADD PUSH2 0x2B4 SWAP1 PUSH2 0x3E11 JUMP JUMPDEST PUSH1 0x40 MLOAD PUSH4 0x31A9108F PUSH1 0xE1 SHL DUP2 MSTORE PUSH1 0x0 SWAP1 PUSH1 0x1 PUSH1 0x1 PUSH1 0xA0 SHL SUB DUP5 AND SWAP1 PUSH4 0x6352211E SWAP1 PUSH2 0x1BB2 SWAP1 DUP10 SWAP1 PUSH1 0x4 ADD PUSH2 0x3E5C JUMP JUMPDEST PUSH1 0x20 PUSH1 0x40 MLOAD DUP1 DUP4 SUB DUP2 DUP7 DUP1 EXTCODESIZE ISZERO DUP1 ISZERO PUSH2 0x1BCA JUMPI PUSH1 0x0 DUP1 REVERT JUMPDEST POP GAS STATICCALL ISZERO DUP1 ISZERO PUSH2 0x1BDE JUMPI RETURNDATASIZE PUSH1 0x0 DUP1 RETURNDATACOPY RETURNDATASIZE PUSH1 0x0 REVERT JUMPDEST POP POP POP POP PUSH1 0x40 MLOAD RETURNDATASIZE PUSH1 0x1F NOT PUSH1 0x1F DUP3 ADD AND DUP3 ADD DUP1 PUSH1 0x40 MSTORE POP DUP2 ADD SWAP1 PUSH2 0x1C02 SWAP2 SWAP1 PUSH2 0x313C JUMP JUMPDEST PUSH1 0x40 MLOAD PUSH4 0x21421707 PUSH1 0xE1 SHL DUP2 MSTORE SWAP1 SWAP2 POP PUSH1 0x1 PUSH1 0x1 PUSH1 0xA0 SHL SUB DUP5 AND SWAP1 PUSH4 0x42842E0E SWAP1 PUSH2 0x1C35 SWAP1 DUP5 SWAP1 ADDRESS SWAP1 DUP12 SWAP1 PUSH1 0x4 ADD PUSH2 0x3624 JUMP JUMPDEST PUSH1 0x0 PUSH1 0x40 MLOAD DUP1 DUP4 SUB DUP2 PUSH1 0x0 DUP8 DUP1 EXTCODESIZE ISZERO DUP1 ISZERO PUSH2 0x1C4F JUMPI PUSH1 0x0 DUP1 REVERT JUMPDEST POP GAS CALL ISZERO DUP1 ISZERO PUSH2 0x1C63 JUMPI RETURNDATASIZE PUSH1 0x0 DUP1 RETURNDATACOPY RETURNDATASIZE PUSH1 0x0 REVERT JUMPDEST POP POP PUSH1 0x40 MLOAD PUSH4 0x31A9108F PUSH1 0xE1 SHL DUP2 MSTORE ADDRESS SWAP3 POP PUSH1 0x1 PUSH1 0x1 PUSH1 0xA0 SHL SUB DUP7 AND SWAP2 POP PUSH4 0x6352211E SWAP1 PUSH2 0x1C95 SWAP1 DUP11 SWAP1 PUSH1 0x4 ADD PUSH2 0x3E5C JUMP JUMPDEST PUSH1 0x20 PUSH1 0x40 MLOAD DUP1 DUP4 SUB DUP2 DUP7 DUP1 EXTCODESIZE ISZERO DUP1 ISZERO PUSH2 0x1CAD JUMPI PUSH1 0x0 DUP1 REVERT JUMPDEST POP GAS STATICCALL ISZERO DUP1 ISZERO PUSH2 0x1CC1 JUMPI RETURNDATASIZE PUSH1 0x0 DUP1 RETURNDATACOPY RETURNDATASIZE PUSH1 0x0 REVERT JUMPDEST POP POP POP POP PUSH1 0x40 MLOAD RETURNDATASIZE PUSH1 0x1F NOT PUSH1 0x1F DUP3 ADD AND DUP3 ADD DUP1 PUSH1 0x40 MSTORE POP DUP2 ADD SWAP1 PUSH2 0x1CE5 SWAP2 SWAP1 PUSH2 0x313C JUMP JUMPDEST PUSH1 0x1 PUSH1 0x1 PUSH1 0xA0 SHL SUB AND EQ PUSH2 0x1D0B JUMPI PUSH1 0x40 MLOAD PUSH3 0x461BCD PUSH1 0xE5 SHL DUP2 MSTORE PUSH1 0x4 ADD PUSH2 0x2B4 SWAP1 PUSH2 0x39EF JUMP JUMPDEST PUSH2 0x1D15 PUSH1 0xE PUSH2 0x2DC0 JUMP JUMPDEST PUSH2 0x1D1F PUSH1 0xE PUSH2 0x2DC9 JUMP JUMPDEST PUSH1 0x8 DUP4 ADD SSTORE PUSH1 0x1 DUP3 ADD DUP1 SLOAD PUSH1 0x1 PUSH1 0x1 PUSH1 0xA0 SHL SUB DUP10 DUP2 AND PUSH1 0x1 PUSH1 0x1 PUSH1 0xA0 SHL SUB NOT SWAP3 DUP4 AND OR SWAP1 SWAP3 SSTORE DUP4 SLOAD DUP4 DUP4 AND SWAP1 DUP3 AND OR DUP5 SSTORE PUSH1 0x3 DUP5 ADD DUP9 SWAP1 SSTORE PUSH1 0x4 DUP5 ADD DUP8 SWAP1 SSTORE PUSH1 0x6 DUP5 ADD DUP1 SLOAD SWAP3 DUP8 AND SWAP3 SWAP1 SWAP2 AND SWAP2 SWAP1 SWAP2 OR SWAP1 SSTORE PUSH1 0x0 PUSH1 0xA DUP4 ADD DUP2 SWAP1 SSTORE PUSH1 0x5 DUP4 ADD SSTORE PUSH1 0x9 DUP3 ADD DUP1 SLOAD PUSH1 0xFF NOT AND SWAP1 SSTORE PUSH2 0x1D93 PUSH2 0x298F JUMP JUMPDEST PUSH1 0x7 DUP4 ADD SSTORE PUSH1 0x8 DUP3 ADD SLOAD PUSH1 0x9 DUP1 SLOAD PUSH1 0x1 DUP2 ADD DUP3 SSTORE PUSH1 0x0 SWAP2 DUP3 MSTORE PUSH32 0x6E1540171B6C0C960B71A7020D9F60077F6AF931A8BBF590DA0223DACF75C7AF ADD SWAP2 SWAP1 SWAP2 SSTORE PUSH1 0x4 SWAP1 PUSH2 0x1DDD PUSH2 0x298B JUMP JUMPDEST PUSH1 0x1 PUSH1 0x1 PUSH1 0xA0 SHL SUB SWAP1 DUP2 AND DUP3 MSTORE PUSH1 0x20 DUP1 DUP4 ADD SWAP4 SWAP1 SWAP4 MSTORE PUSH1 0x40 SWAP2 DUP3 ADD PUSH1 0x0 SWAP1 DUP2 KECCAK256 PUSH1 0x8 DUP1 DUP9 ADD DUP1 SLOAD DUP4 SLOAD PUSH1 0x1 DUP2 DUP2 ADD DUP7 SSTORE SWAP5 DUP7 MSTORE DUP9 DUP7 KECCAK256 ADD SSTORE DUP1 SLOAD DUP5 MSTORE SWAP6 DUP3 SWAP1 MSTORE SWAP4 SWAP1 SWAP2 KECCAK256 DUP7 SLOAD DUP2 SLOAD PUSH1 0x1 PUSH1 0x1 PUSH1 0xA0 SHL SUB NOT SWAP1 DUP2 AND SWAP2 DUP6 AND SWAP2 SWAP1 SWAP2 OR DUP3 SSTORE DUP3 DUP9 ADD SLOAD DUP3 DUP5 ADD DUP1 SLOAD DUP4 AND SWAP2 DUP7 AND SWAP2 SWAP1 SWAP2 OR SWAP1 SSTORE PUSH1 0x2 DUP1 DUP10 ADD SLOAD DUP2 DUP5 ADD DUP1 SLOAD DUP5 AND SWAP2 DUP8 AND SWAP2 SWAP1 SWAP2 OR SWAP1 SSTORE PUSH1 0x3 DUP1 DUP11 ADD SLOAD SWAP1 DUP5 ADD SSTORE PUSH1 0x4 DUP1 DUP11 ADD SLOAD SWAP1 DUP5 ADD SSTORE PUSH1 0x5 DUP1 DUP11 ADD SLOAD SWAP1 DUP5 ADD SSTORE PUSH1 0x6 DUP1 DUP11 ADD SLOAD SWAP1 DUP5 ADD DUP1 SLOAD SWAP1 SWAP4 AND SWAP6 AND SWAP5 SWAP1 SWAP5 OR SWAP1 SSTORE PUSH1 0x7 DUP1 DUP9 ADD SLOAD SWAP1 DUP3 ADD SSTORE SWAP4 SLOAD SWAP3 DUP5 ADD SWAP3 SWAP1 SWAP3 SSTORE PUSH1 0x9 DUP1 DUP7 ADD SLOAD SWAP1 DUP5 ADD DUP1 SLOAD DUP8 SWAP6 SWAP5 PUSH1 0xFF SWAP1 SWAP4 AND SWAP4 SWAP2 SWAP3 PUSH1 0xFF NOT SWAP1 SWAP2 AND SWAP2 DUP5 SWAP1 DUP2 GT ISZERO PUSH2 0x1ED3 JUMPI INVALID JUMPDEST MUL OR SWAP1 SSTORE POP PUSH1 0xA SWAP2 DUP3 ADD SLOAD SWAP2 ADD SSTORE PUSH1 0x0 JUMPDEST DUP9 MLOAD DUP2 LT ISZERO PUSH2 0x1F60 JUMPI PUSH1 0x8 PUSH1 0x0 DUP5 PUSH1 0x8 ADD SLOAD DUP2 MSTORE PUSH1 0x20 ADD SWAP1 DUP2 MSTORE PUSH1 0x20 ADD PUSH1 0x0 KECCAK256 DUP10 DUP3 DUP2 MLOAD DUP2 LT PUSH2 0x1F10 JUMPI INVALID JUMPDEST PUSH1 0x20 SWAP1 DUP2 MUL SWAP2 SWAP1 SWAP2 ADD DUP2 ADD MLOAD DUP3 SLOAD PUSH1 0x1 DUP1 DUP3 ADD DUP6 SSTORE PUSH1 0x0 SWAP5 DUP6 MSTORE SWAP4 DUP4 SWAP1 KECCAK256 DUP3 MLOAD PUSH1 0x2 SWAP1 SWAP3 MUL ADD DUP1 SLOAD PUSH1 0x1 PUSH1 0x1 PUSH1 0xA0 SHL SUB NOT AND PUSH1 0x1 PUSH1 0x1 PUSH1 0xA0 SHL SUB SWAP1 SWAP3 AND SWAP2 SWAP1 SWAP2 OR DUP2 SSTORE SWAP2 ADD MLOAD SWAP1 DUP3 ADD SSTORE ADD PUSH2 0x1EE4 JUMP JUMPDEST POP PUSH1 0xF SLOAD PUSH1 0x1 PUSH1 0x1 PUSH1 0xA0 SHL SUB DUP9 DUP2 AND SWAP2 AND EQ DUP1 ISZERO PUSH2 0x1FFB JUMPI POP PUSH1 0xF SLOAD PUSH1 0x40 MLOAD PUSH4 0x55138F0D PUSH1 0xE1 SHL DUP2 MSTORE PUSH1 0x1 PUSH1 0x1 PUSH1 0xA0 SHL SUB SWAP1 SWAP2 AND SWAP1 PUSH4 0xAA271E1A SWAP1 PUSH2 0x1FA9 SWAP1 DUP5 SWAP1 PUSH1 0x4 ADD PUSH2 0x35F6 JUMP JUMPDEST PUSH1 0x20 PUSH1 0x40 MLOAD DUP1 DUP4 SUB DUP2 PUSH1 0x0 DUP8 DUP1 EXTCODESIZE ISZERO DUP1 ISZERO PUSH2 0x1FC3 JUMPI PUSH1 0x0 DUP1 REVERT JUMPDEST POP GAS CALL ISZERO DUP1 ISZERO PUSH2 0x1FD7 JUMPI RETURNDATASIZE PUSH1 0x0 DUP1 RETURNDATACOPY RETURNDATASIZE PUSH1 0x0 REVERT JUMPDEST POP POP POP POP PUSH1 0x40 MLOAD RETURNDATASIZE PUSH1 0x1F NOT PUSH1 0x1F DUP3 ADD AND DUP3 ADD DUP1 PUSH1 0x40 MSTORE POP DUP2 ADD SWAP1 PUSH2 0x1FFB SWAP2 SWAP1 PUSH2 0x34D1 JUMP JUMPDEST ISZERO PUSH2 0x20D1 JUMPI PUSH1 0x1 PUSH1 0x1 PUSH1 0xA0 SHL SUB DUP1 DUP3 AND PUSH1 0x0 SWAP1 DUP2 MSTORE PUSH1 0x5 PUSH1 0x20 MSTORE PUSH1 0x40 SWAP1 DUP2 SWAP1 KECCAK256 DUP1 SLOAD PUSH1 0xFF NOT AND PUSH1 0x1 OR SWAP1 SSTORE DUP4 SLOAD SWAP1 MLOAD PUSH4 0x5487C74D PUSH1 0xE1 SHL DUP2 MSTORE DUP10 DUP4 AND SWAP3 PUSH4 0xA90F8E9A SWAP3 PUSH2 0x204D SWAP3 SWAP2 AND SWAP1 PUSH1 0x4 ADD PUSH2 0x35F6 JUMP JUMPDEST PUSH1 0x20 PUSH1 0x40 MLOAD DUP1 DUP4 SUB DUP2 PUSH1 0x0 DUP8 DUP1 EXTCODESIZE ISZERO DUP1 ISZERO PUSH2 0x2067 JUMPI PUSH1 0x0 DUP1 REVERT JUMPDEST POP GAS CALL ISZERO DUP1 ISZERO PUSH2 0x207B JUMPI RETURNDATASIZE PUSH1 0x0 DUP1 RETURNDATACOPY RETURNDATASIZE PUSH1 0x0 REVERT JUMPDEST POP POP POP POP PUSH1 0x40 MLOAD RETURNDATASIZE PUSH1 0x1F NOT PUSH1 0x1F DUP3 ADD AND DUP3 ADD DUP1 PUSH1 0x40 MSTORE POP DUP2 ADD SWAP1 PUSH2 0x209F SWAP2 SWAP1 PUSH2 0x313C JUMP JUMPDEST PUSH1 0x8 DUP4 ADD SLOAD PUSH1 0x0 SWAP1 DUP2 MSTORE PUSH1 0x7 PUSH1 0x20 MSTORE PUSH1 0x40 SWAP1 KECCAK256 DUP1 SLOAD PUSH1 0x1 PUSH1 0x1 PUSH1 0xA0 SHL SUB NOT AND PUSH1 0x1 PUSH1 0x1 PUSH1 0xA0 SHL SUB SWAP3 SWAP1 SWAP3 AND SWAP2 SWAP1 SWAP2 OR SWAP1 SSTORE JUMPDEST PUSH32 0x9D87B8CE3E92DA5E275D5C5F9E44D135DF14FCD26D1A930AE847875C13C2AC64 PUSH2 0x20FA PUSH2 0x298B JUMP JUMPDEST PUSH1 0x8 DUP5 ADD SLOAD PUSH1 0x1 DUP6 ADD SLOAD PUSH1 0x3 DUP7 ADD SLOAD PUSH1 0x4 DUP8 ADD SLOAD PUSH1 0x40 MLOAD PUSH2 0x212A SWAP6 SWAP5 SWAP4 PUSH1 0x1 PUSH1 0x1 PUSH1 0xA0 SHL SUB AND SWAP3 SWAP2 SWAP1 DUP12 SWAP1 PUSH2 0x3707 JUMP JUMPDEST PUSH1 0x40 MLOAD DUP1 SWAP2 SUB SWAP1 LOG1 POP POP POP POP POP POP POP POP JUMP JUMPDEST PUSH1 0x11 SLOAD PUSH1 0x1 PUSH1 0x1 PUSH1 0xA0 SHL SUB AND PUSH2 0x2150 PUSH2 0x298B JUMP JUMPDEST PUSH1 0x1 PUSH1 0x1 PUSH1 0xA0 SHL SUB AND EQ PUSH2 0x2176 JUMPI PUSH1 0x40 MLOAD PUSH3 0x461BCD PUSH1 0xE5 SHL DUP2 MSTORE PUSH1 0x4 ADD PUSH2 0x2B4 SWAP1 PUSH2 0x3B92 JUMP JUMPDEST PUSH1 0x0 JUMPDEST DUP2 DUP2 LT ISZERO PUSH2 0x2277 JUMPI PUSH1 0x0 DUP4 DUP4 DUP4 DUP2 DUP2 LT PUSH2 0x218F JUMPI INVALID JUMPDEST SWAP1 POP PUSH1 0x20 MUL ADD PUSH1 0x20 DUP2 ADD SWAP1 PUSH2 0x21A4 SWAP2 SWAP1 PUSH2 0x3120 JUMP JUMPDEST PUSH1 0x1 PUSH1 0x1 PUSH1 0xA0 SHL SUB AND EQ ISZERO PUSH2 0x21CB JUMPI PUSH1 0x40 MLOAD PUSH3 0x461BCD PUSH1 0xE5 SHL DUP2 MSTORE PUSH1 0x4 ADD PUSH2 0x2B4 SWAP1 PUSH2 0x3A6D JUMP JUMPDEST PUSH1 0xA DUP4 DUP4 DUP4 DUP2 DUP2 LT PUSH2 0x21D9 JUMPI INVALID JUMPDEST SWAP1 POP PUSH1 0x20 MUL ADD PUSH1 0x20 DUP2 ADD SWAP1 PUSH2 0x21EE SWAP2 SWAP1 PUSH2 0x3120 JUMP JUMPDEST DUP2 SLOAD PUSH1 0x1 DUP1 DUP3 ADD DUP5 SSTORE PUSH1 0x0 SWAP4 DUP5 MSTORE PUSH1 0x20 DUP5 KECCAK256 SWAP1 SWAP2 ADD DUP1 SLOAD PUSH1 0x1 PUSH1 0x1 PUSH1 0xA0 SHL SUB NOT AND PUSH1 0x1 PUSH1 0x1 PUSH1 0xA0 SHL SUB SWAP4 SWAP1 SWAP4 AND SWAP3 SWAP1 SWAP3 OR SWAP1 SWAP2 SSTORE SWAP1 PUSH1 0x3 SWAP1 DUP6 DUP6 DUP6 DUP2 DUP2 LT PUSH2 0x2232 JUMPI INVALID JUMPDEST SWAP1 POP PUSH1 0x20 MUL ADD PUSH1 0x20 DUP2 ADD SWAP1 PUSH2 0x2247 SWAP2 SWAP1 PUSH2 0x3120 JUMP JUMPDEST PUSH1 0x1 PUSH1 0x1 PUSH1 0xA0 SHL SUB AND DUP2 MSTORE PUSH1 0x20 DUP2 ADD SWAP2 SWAP1 SWAP2 MSTORE PUSH1 0x40 ADD PUSH1 0x0 KECCAK256 DUP1 SLOAD PUSH1 0xFF NOT AND SWAP2 ISZERO ISZERO SWAP2 SWAP1 SWAP2 OR SWAP1 SSTORE PUSH1 0x1 ADD PUSH2 0x2179 JUMP JUMPDEST POP POP POP JUMP JUMPDEST PUSH1 0x5 PUSH1 0x20 MSTORE PUSH1 0x0 SWAP1 DUP2 MSTORE PUSH1 0x40 SWAP1 KECCAK256 SLOAD PUSH1 0xFF AND DUP2 JUMP JUMPDEST PUSH1 0x17 SLOAD PUSH1 0xFF AND ISZERO PUSH2 0x22B4 JUMPI PUSH1 0x40 MLOAD PUSH3 0x461BCD PUSH1 0xE5 SHL DUP2 MSTORE PUSH1 0x4 ADD PUSH2 0x2B4 SWAP1 PUSH2 0x3B10 JUMP JUMPDEST PUSH1 0x2 PUSH1 0x0 SLOAD EQ ISZERO PUSH2 0x22D7 JUMPI PUSH1 0x40 MLOAD PUSH3 0x461BCD PUSH1 0xE5 SHL DUP2 MSTORE PUSH1 0x4 ADD PUSH2 0x2B4 SWAP1 PUSH2 0x3DDA JUMP JUMPDEST PUSH1 0x2 PUSH1 0x0 SWAP1 DUP2 SSTORE DUP3 DUP2 MSTORE PUSH1 0x1 PUSH1 0x20 MSTORE PUSH1 0x40 SWAP1 KECCAK256 PUSH1 0x5 DUP2 ADD SLOAD ISZERO DUP1 ISZERO PUSH2 0x22FE JUMPI POP PUSH1 0xA DUP2 ADD SLOAD ISZERO JUMPDEST ISZERO PUSH2 0x23B4 JUMPI PUSH1 0x6 DUP2 ADD SLOAD PUSH1 0x1 PUSH1 0x1 PUSH1 0xA0 SHL SUB AND PUSH2 0x233E JUMPI DUP1 PUSH1 0x4 ADD SLOAD CALLVALUE LT ISZERO PUSH2 0x2339 JUMPI PUSH1 0x40 MLOAD PUSH3 0x461BCD PUSH1 0xE5 SHL DUP2 MSTORE PUSH1 0x4 ADD PUSH2 0x2B4 SWAP1 PUSH2 0x3886 JUMP JUMPDEST PUSH2 0x2396 JUMP JUMPDEST PUSH1 0x6 DUP2 ADD SLOAD PUSH1 0x1 PUSH1 0x1 PUSH1 0xA0 SHL SUB AND ISZERO PUSH2 0x2396 JUMPI DUP1 PUSH1 0x4 ADD SLOAD DUP3 LT ISZERO PUSH2 0x2375 JUMPI PUSH1 0x40 MLOAD PUSH3 0x461BCD PUSH1 0xE5 SHL DUP2 MSTORE PUSH1 0x4 ADD PUSH2 0x2B4 SWAP1 PUSH2 0x3886 JUMP JUMPDEST PUSH2 0x2396 PUSH2 0x2380 PUSH2 0x298B JUMP JUMPDEST PUSH1 0x6 DUP4 ADD SLOAD PUSH1 0x1 PUSH1 0x1 PUSH1 0xA0 SHL SUB AND SWAP1 ADDRESS DUP6 PUSH2 0x2DCD JUMP JUMPDEST PUSH2 0x23AA PUSH1 0x12 SLOAD PUSH2 0x23A4 PUSH2 0x298F JUMP JUMPDEST SWAP1 PUSH2 0x2D36 JUMP JUMPDEST PUSH1 0xA DUP3 ADD SSTORE PUSH2 0x24FF JUMP JUMPDEST PUSH1 0x5 DUP2 ADD SLOAD ISZERO DUP1 ISZERO SWAP1 PUSH2 0x23CA JUMPI POP PUSH1 0xA DUP2 ADD SLOAD ISZERO ISZERO JUMPDEST ISZERO PUSH2 0x24FF JUMPI PUSH1 0x6 DUP2 ADD SLOAD PUSH1 0x1 PUSH1 0x1 PUSH1 0xA0 SHL SUB AND PUSH2 0x243E JUMPI PUSH2 0x23FE PUSH2 0x23F3 DUP3 PUSH1 0x5 ADD SLOAD PUSH1 0xA PUSH2 0x2E25 JUMP JUMPDEST PUSH1 0x5 DUP4 ADD SLOAD SWAP1 PUSH2 0x2D36 JUMP JUMPDEST CALLVALUE GT PUSH2 0x241C JUMPI PUSH1 0x40 MLOAD PUSH3 0x461BCD PUSH1 0xE5 SHL DUP2 MSTORE PUSH1 0x4 ADD PUSH2 0x2B4 SWAP1 PUSH2 0x3886 JUMP JUMPDEST PUSH1 0x2 DUP2 ADD SLOAD PUSH1 0x5 DUP3 ADD SLOAD PUSH2 0x2439 SWAP2 PUSH1 0x1 PUSH1 0x1 PUSH1 0xA0 SHL SUB AND SWAP1 PUSH2 0x2993 JUMP JUMPDEST PUSH2 0x24A1 JUMP JUMPDEST PUSH2 0x2450 PUSH2 0x23F3 DUP3 PUSH1 0x5 ADD SLOAD PUSH1 0xA PUSH2 0x2E25 JUMP JUMPDEST DUP3 LT ISZERO PUSH2 0x246F JUMPI PUSH1 0x40 MLOAD PUSH3 0x461BCD PUSH1 0xE5 SHL DUP2 MSTORE PUSH1 0x4 ADD PUSH2 0x2B4 SWAP1 PUSH2 0x3886 JUMP JUMPDEST PUSH2 0x247A PUSH2 0x2380 PUSH2 0x298B JUMP JUMPDEST PUSH1 0x2 DUP2 ADD SLOAD PUSH1 0x5 DUP3 ADD SLOAD PUSH1 0x6 DUP4 ADD SLOAD PUSH2 0x24A1 SWAP3 PUSH1 0x1 PUSH1 0x1 PUSH1 0xA0 SHL SUB SWAP2 DUP3 AND SWAP3 SWAP2 AND SWAP1 PUSH2 0x2E3C JUMP JUMPDEST PUSH1 0x0 DUP2 PUSH1 0xA ADD SLOAD GT DUP1 ISZERO PUSH2 0x24CC JUMPI POP PUSH1 0x13 SLOAD PUSH2 0x24C9 PUSH2 0x24BE PUSH2 0x298F JUMP JUMPDEST PUSH1 0xA DUP5 ADD SLOAD SWAP1 PUSH2 0x2E5B JUMP JUMPDEST GT ISZERO JUMPDEST DUP1 ISZERO PUSH2 0x24E3 JUMPI POP PUSH1 0x1 PUSH2 0x24E0 PUSH2 0x24BE PUSH2 0x298F JUMP JUMPDEST LT ISZERO JUMPDEST ISZERO PUSH2 0x24FF JUMPI PUSH1 0x13 SLOAD PUSH1 0xA DUP3 ADD SLOAD PUSH2 0x24F9 SWAP2 PUSH2 0x2D36 JUMP JUMPDEST PUSH1 0xA DUP3 ADD SSTORE JUMPDEST PUSH2 0x2507 PUSH2 0x298B JUMP JUMPDEST PUSH1 0x2 DUP3 ADD DUP1 SLOAD PUSH1 0x1 PUSH1 0x1 PUSH1 0xA0 SHL SUB NOT AND PUSH1 0x1 PUSH1 0x1 PUSH1 0xA0 SHL SUB SWAP3 SWAP1 SWAP3 AND SWAP2 SWAP1 SWAP2 OR SWAP1 SSTORE PUSH1 0x5 DUP2 ADD DUP3 SWAP1 SSTORE PUSH32 0xA65F0194DCDD5B8159745E76591D7E4B2E26B6F7DF9727F0F931290113510319 PUSH2 0x2559 PUSH2 0x298B JUMP JUMPDEST PUSH1 0x8 DUP4 ADD SLOAD PUSH1 0x1 DUP5 ADD SLOAD PUSH1 0x3 DUP6 ADD SLOAD PUSH1 0x5 DUP7 ADD SLOAD PUSH1 0x40 MLOAD PUSH2 0x2587 SWAP6 SWAP5 SWAP4 PUSH1 0x1 PUSH1 0x1 PUSH1 0xA0 SHL SUB AND SWAP3 SWAP2 SWAP1 PUSH2 0x36D3 JUMP JUMPDEST PUSH1 0x40 MLOAD DUP1 SWAP2 SUB SWAP1 LOG1 POP POP PUSH1 0x1 PUSH1 0x0 SSTORE POP JUMP JUMPDEST PUSH1 0xC SLOAD DUP2 JUMP JUMPDEST PUSH1 0xD SLOAD PUSH1 0x1 PUSH1 0x1 PUSH1 0xA0 SHL SUB AND DUP2 JUMP JUMPDEST PUSH1 0x12 SLOAD DUP2 JUMP JUMPDEST PUSH1 0x17 SLOAD PUSH1 0xFF AND ISZERO PUSH2 0x25D7 JUMPI PUSH1 0x40 MLOAD PUSH3 0x461BCD PUSH1 0xE5 SHL DUP2 MSTORE PUSH1 0x4 ADD PUSH2 0x2B4 SWAP1 PUSH2 0x3B10 JUMP JUMPDEST PUSH1 0x0 DUP3 DUP2 MSTORE PUSH1 0x1 PUSH1 0x20 MSTORE PUSH1 0x40 SWAP1 KECCAK256 DUP1 SLOAD DUP4 SWAP2 SWAP1 PUSH1 0x1 PUSH1 0x1 PUSH1 0xA0 SHL SUB AND PUSH2 0x25FB PUSH2 0x298B JUMP JUMPDEST PUSH1 0x1 PUSH1 0x1 PUSH1 0xA0 SHL SUB AND EQ PUSH2 0x2621 JUMPI PUSH1 0x40 MLOAD PUSH3 0x461BCD PUSH1 0xE5 SHL DUP2 MSTORE PUSH1 0x4 ADD PUSH2 0x2B4 SWAP1 PUSH2 0x3A90 JUMP JUMPDEST PUSH1 0x0 DUP5 DUP2 MSTORE PUSH1 0x1 PUSH1 0x20 MSTORE PUSH1 0x40 SWAP1 KECCAK256 PUSH1 0x5 DUP2 ADD SLOAD DUP6 SWAP2 SWAP1 ISZERO DUP1 ISZERO PUSH2 0x2646 JUMPI POP PUSH1 0xA DUP2 ADD SLOAD ISZERO JUMPDEST PUSH2 0x2662 JUMPI PUSH1 0x40 MLOAD PUSH3 0x461BCD PUSH1 0xE5 SHL DUP2 MSTORE PUSH1 0x4 ADD PUSH2 0x2B4 SWAP1 PUSH2 0x3C88 JUMP JUMPDEST PUSH1 0x0 DUP7 DUP2 MSTORE PUSH1 0x1 PUSH1 0x20 MSTORE PUSH1 0x40 SWAP1 DUP2 SWAP1 KECCAK256 PUSH1 0x6 DUP2 ADD DUP1 SLOAD PUSH1 0x1 PUSH1 0x1 PUSH1 0xA0 SHL SUB DUP10 DUP2 AND PUSH1 0x1 PUSH1 0x1 PUSH1 0xA0 SHL SUB NOT DUP4 AND OR SWAP1 SWAP3 SSTORE SWAP3 MLOAD SWAP2 SWAP3 AND SWAP1 PUSH32 0xB278BD6A44AB71CFADE954C8C5A58435704BAB83082A75360091BEE0395F32A0 SWAP1 PUSH2 0x212A SWAP1 DUP11 SWAP1 DUP5 SWAP1 DUP12 SWAP1 PUSH2 0x3EAB JUMP JUMPDEST PUSH1 0x0 DUP1 PUSH2 0x26D8 DUP4 PUSH1 0x14 SLOAD PUSH2 0x2E83 JUMP JUMPDEST SWAP1 POP PUSH1 0x0 PUSH2 0x26E7 DUP7 DUP7 DUP7 PUSH2 0xF95 JUMP JUMPDEST SWAP3 POP PUSH2 0x2701 SWAP2 POP DUP4 SWAP1 POP PUSH2 0x26FB DUP7 DUP5 PUSH2 0x2E5B JUMP JUMPDEST SWAP1 PUSH2 0x2E5B JUMP JUMPDEST SWAP3 POP POP POP JUMPDEST SWAP4 SWAP3 POP POP POP JUMP JUMPDEST PUSH1 0x1 PUSH1 0x1 PUSH1 0xA0 SHL SUB DUP2 AND PUSH1 0x0 SWAP1 DUP2 MSTORE PUSH1 0x4 PUSH1 0x20 SWAP1 DUP2 MSTORE PUSH1 0x40 SWAP2 DUP3 SWAP1 KECCAK256 DUP1 SLOAD DUP4 MLOAD DUP2 DUP5 MUL DUP2 ADD DUP5 ADD SWAP1 SWAP5 MSTORE DUP1 DUP5 MSTORE PUSH1 0x60 SWAP4 SWAP3 DUP4 ADD DUP3 DUP3 DUP1 ISZERO PUSH2 0x276D JUMPI PUSH1 0x20 MUL DUP3 ADD SWAP2 SWAP1 PUSH1 0x0 MSTORE PUSH1 0x20 PUSH1 0x0 KECCAK256 SWAP1 JUMPDEST DUP2 SLOAD DUP2 MSTORE PUSH1 0x20 ADD SWAP1 PUSH1 0x1 ADD SWAP1 DUP1 DUP4 GT PUSH2 0x2759 JUMPI JUMPDEST POP POP POP POP POP SWAP1 POP SWAP2 SWAP1 POP JUMP JUMPDEST PUSH1 0x11 SLOAD PUSH1 0x1 PUSH1 0x1 PUSH1 0xA0 SHL SUB AND DUP2 JUMP JUMPDEST PUSH1 0x0 DUP4 DUP2 MSTORE PUSH1 0x7 PUSH1 0x20 SWAP1 DUP2 MSTORE PUSH1 0x40 DUP1 DUP4 KECCAK256 SLOAD PUSH1 0x1 PUSH1 0x1 PUSH1 0xA0 SHL SUB SWAP1 DUP2 AND DUP5 MSTORE PUSH1 0x6 DUP4 MSTORE DUP2 DUP5 KECCAK256 SWAP1 DUP7 AND DUP5 MSTORE DUP3 MSTORE DUP1 DUP4 KECCAK256 SLOAD PUSH1 0x5 SWAP1 SWAP3 MSTORE DUP3 KECCAK256 SLOAD DUP3 SWAP2 DUP3 SWAP2 DUP6 SWAP2 SWAP1 PUSH1 0xFF AND DUP1 ISZERO PUSH2 0x27D8 JUMPI POP PUSH1 0x16 SLOAD DUP2 LT JUMPDEST ISZERO PUSH2 0x2802 JUMPI PUSH2 0x27E9 DUP3 PUSH1 0x15 SLOAD PUSH2 0x2E83 JUMP JUMPDEST SWAP4 POP PUSH2 0x27FB DUP5 PUSH2 0x26FB DUP5 PUSH1 0x14 SLOAD PUSH2 0x2E83 JUMP JUMPDEST SWAP5 POP PUSH2 0x2811 JUMP JUMPDEST PUSH2 0x280E DUP3 PUSH1 0x14 SLOAD PUSH2 0x2E83 JUMP JUMPDEST SWAP5 POP JUMPDEST PUSH2 0x281B DUP6 DUP6 PUSH2 0x2D36 JUMP JUMPDEST SWAP3 POP POP POP SWAP4 POP SWAP4 POP SWAP4 SWAP1 POP JUMP JUMPDEST PUSH1 0x11 SLOAD PUSH1 0x1 PUSH1 0x1 PUSH1 0xA0 SHL SUB AND PUSH2 0x283C PUSH2 0x298B JUMP JUMPDEST PUSH1 0x1 PUSH1 0x1 PUSH1 0xA0 SHL SUB AND EQ PUSH2 0x2862 JUMPI PUSH1 0x40 MLOAD PUSH3 0x461BCD PUSH1 0xE5 SHL DUP2 MSTORE PUSH1 0x4 ADD PUSH2 0x2B4 SWAP1 PUSH2 0x3B92 JUMP JUMPDEST PUSH1 0x17 DUP1 SLOAD PUSH1 0xFF NOT AND PUSH1 0x1 SWAP1 DUP2 OR SWAP1 SWAP2 SSTORE PUSH1 0x0 DUP3 DUP2 MSTORE PUSH1 0x20 SWAP2 SWAP1 SWAP2 MSTORE PUSH1 0x40 SWAP1 KECCAK256 PUSH1 0xA DUP2 ADD SLOAD ISZERO DUP1 ISZERO SWAP1 PUSH2 0x2897 JUMPI POP PUSH1 0x5 DUP2 ADD SLOAD ISZERO ISZERO JUMPDEST ISZERO PUSH2 0x28F7 JUMPI PUSH1 0x6 DUP2 ADD SLOAD PUSH1 0x1 PUSH1 0x1 PUSH1 0xA0 SHL SUB AND ISZERO PUSH2 0x28DA JUMPI PUSH1 0x6 DUP2 ADD SLOAD PUSH1 0x2 DUP3 ADD SLOAD PUSH1 0x5 DUP4 ADD SLOAD PUSH2 0x28D5 SWAP3 PUSH1 0x1 PUSH1 0x1 PUSH1 0xA0 SHL SUB SWAP1 DUP2 AND SWAP3 AND SWAP1 PUSH2 0x2A0F JUMP JUMPDEST PUSH2 0x28F7 JUMP JUMPDEST PUSH1 0x2 DUP2 ADD SLOAD PUSH1 0x5 DUP3 ADD SLOAD PUSH2 0x28F7 SWAP2 PUSH1 0x1 PUSH1 0x1 PUSH1 0xA0 SHL SUB AND SWAP1 PUSH2 0x2993 JUMP JUMPDEST PUSH1 0x1 DUP2 ADD SLOAD DUP2 SLOAD PUSH1 0x3 DUP4 ADD SLOAD PUSH1 0x40 MLOAD PUSH4 0x21421707 PUSH1 0xE1 SHL DUP2 MSTORE PUSH1 0x1 PUSH1 0x1 PUSH1 0xA0 SHL SUB SWAP4 DUP5 AND SWAP4 DUP5 SWAP4 PUSH4 0x42842E0E SWAP4 PUSH2 0x2936 SWAP4 ADDRESS SWAP4 SWAP1 SWAP3 AND SWAP2 PUSH1 0x4 ADD PUSH2 0x3624 JUMP JUMPDEST PUSH1 0x0 PUSH1 0x40 MLOAD DUP1 DUP4 SUB DUP2 PUSH1 0x0 DUP8 DUP1 EXTCODESIZE ISZERO DUP1 ISZERO PUSH2 0x2950 JUMPI PUSH1 0x0 DUP1 REVERT JUMPDEST POP GAS CALL ISZERO DUP1 ISZERO PUSH2 0x2964 JUMPI RETURNDATASIZE PUSH1 0x0 DUP1 RETURNDATACOPY RETURNDATASIZE PUSH1 0x0 REVERT JUMPDEST POP POP POP PUSH1 0x9 DUP4 ADD DUP1 SLOAD PUSH1 0x1 SWAP3 POP PUSH1 0xFF NOT AND DUP3 DUP1 MUL OR SWAP1 SSTORE POP POP PUSH1 0x17 DUP1 SLOAD PUSH1 0xFF NOT AND SWAP1 SSTORE POP POP JUMP JUMPDEST CALLER SWAP1 JUMP JUMPDEST TIMESTAMP SWAP1 JUMP JUMPDEST PUSH1 0x0 DUP3 PUSH1 0x1 PUSH1 0x1 PUSH1 0xA0 SHL SUB AND DUP3 PUSH1 0x40 MLOAD PUSH2 0x29AC SWAP1 PUSH2 0x35F3 JUMP JUMPDEST PUSH1 0x0 PUSH1 0x40 MLOAD DUP1 DUP4 SUB DUP2 DUP6 DUP8 GAS CALL SWAP3 POP POP POP RETURNDATASIZE DUP1 PUSH1 0x0 DUP2 EQ PUSH2 0x29E9 JUMPI PUSH1 0x40 MLOAD SWAP2 POP PUSH1 0x1F NOT PUSH1 0x3F RETURNDATASIZE ADD AND DUP3 ADD PUSH1 0x40 MSTORE RETURNDATASIZE DUP3 MSTORE RETURNDATASIZE PUSH1 0x0 PUSH1 0x20 DUP5 ADD RETURNDATACOPY PUSH2 0x29EE JUMP JUMPDEST PUSH1 0x60 SWAP2 POP JUMPDEST POP POP SWAP1 POP DUP1 PUSH2 0x2277 JUMPI PUSH1 0x40 MLOAD PUSH3 0x461BCD PUSH1 0xE5 SHL DUP2 MSTORE PUSH1 0x4 ADD PUSH2 0x2B4 SWAP1 PUSH2 0x38D7 JUMP JUMPDEST PUSH2 0x2277 PUSH1 0x1 PUSH1 0x1 PUSH1 0xA0 SHL SUB DUP5 AND DUP4 DUP4 PUSH2 0x2E3C JUMP JUMPDEST PUSH1 0x60 DUP1 PUSH2 0x2A31 DUP7 DUP7 DUP7 PUSH2 0xF95 JUMP JUMPDEST POP SWAP2 POP SWAP2 POP PUSH1 0x0 JUMPDEST DUP3 MLOAD DUP2 LT ISZERO PUSH2 0x2B21 JUMPI PUSH1 0x1 PUSH1 0x1 PUSH1 0xA0 SHL SUB DUP5 AND PUSH2 0x2A85 JUMPI PUSH2 0x2A80 DUP4 DUP3 DUP2 MLOAD DUP2 LT PUSH2 0x2A5F JUMPI INVALID JUMPDEST PUSH1 0x20 MUL PUSH1 0x20 ADD ADD MLOAD DUP4 DUP4 DUP2 MLOAD DUP2 LT PUSH2 0x2A73 JUMPI INVALID JUMPDEST PUSH1 0x20 MUL PUSH1 0x20 ADD ADD MLOAD PUSH2 0x2993 JUMP JUMPDEST PUSH2 0x2AB6 JUMP JUMPDEST PUSH2 0x2AB6 DUP5 DUP5 DUP4 DUP2 MLOAD DUP2 LT PUSH2 0x2A95 JUMPI INVALID JUMPDEST PUSH1 0x20 MUL PUSH1 0x20 ADD ADD MLOAD DUP5 DUP5 DUP2 MLOAD DUP2 LT PUSH2 0x2AA9 JUMPI INVALID JUMPDEST PUSH1 0x20 MUL PUSH1 0x20 ADD ADD MLOAD PUSH2 0x2A0F JUMP JUMPDEST PUSH32 0xAD5D994C2F75BC7FBBF9BCCA36808F3634611BFFFDE7356CA273D32AF155BC8D DUP9 DUP5 DUP4 DUP2 MLOAD DUP2 LT PUSH2 0x2AE4 JUMPI INVALID JUMPDEST PUSH1 0x20 MUL PUSH1 0x20 ADD ADD MLOAD DUP5 DUP5 DUP2 MLOAD DUP2 LT PUSH2 0x2AF8 JUMPI INVALID JUMPDEST PUSH1 0x20 MUL PUSH1 0x20 ADD ADD MLOAD DUP8 PUSH1 0x40 MLOAD PUSH2 0x2B11 SWAP5 SWAP4 SWAP3 SWAP2 SWAP1 PUSH2 0x3E84 JUMP JUMPDEST PUSH1 0x40 MLOAD DUP1 SWAP2 SUB SWAP1 LOG1 PUSH1 0x1 ADD PUSH2 0x2A39 JUMP JUMPDEST POP POP POP POP POP POP POP POP JUMP JUMPDEST DUP1 DUP1 ISZERO PUSH2 0x2D30 JUMPI PUSH1 0x0 JUMPDEST PUSH1 0x0 DUP6 DUP2 MSTORE PUSH1 0x8 PUSH1 0x20 MSTORE PUSH1 0x40 SWAP1 KECCAK256 SLOAD DUP2 LT ISZERO PUSH2 0x2D2E JUMPI PUSH1 0x0 DUP6 DUP2 MSTORE PUSH1 0x8 PUSH1 0x20 MSTORE PUSH1 0x40 DUP2 KECCAK256 SLOAD PUSH1 0x0 NOT ADD DUP3 LT ISZERO PUSH2 0x2BAF JUMPI PUSH1 0x0 DUP7 DUP2 MSTORE PUSH1 0x8 PUSH1 0x20 MSTORE PUSH1 0x40 SWAP1 KECCAK256 DUP1 SLOAD PUSH2 0x2B9C SWAP2 DUP7 SWAP2 DUP6 SWAP1 DUP2 LT PUSH2 0x2B85 JUMPI INVALID JUMPDEST SWAP1 PUSH1 0x0 MSTORE PUSH1 0x20 PUSH1 0x0 KECCAK256 SWAP1 PUSH1 0x2 MUL ADD PUSH1 0x1 ADD SLOAD PUSH2 0x2E83 JUMP JUMPDEST SWAP1 POP PUSH2 0x2BA8 DUP4 DUP3 PUSH2 0x2E5B JUMP JUMPDEST SWAP3 POP PUSH2 0x2BB2 JUMP JUMPDEST POP DUP2 JUMPDEST PUSH1 0x1 PUSH1 0x1 PUSH1 0xA0 SHL SUB DUP6 AND PUSH2 0x2C74 JUMPI PUSH1 0x0 DUP7 DUP2 MSTORE PUSH1 0x8 PUSH1 0x20 MSTORE PUSH1 0x40 SWAP1 KECCAK256 DUP1 SLOAD PUSH2 0x2BFF SWAP2 SWAP1 DUP5 SWAP1 DUP2 LT PUSH2 0x2BDF JUMPI INVALID JUMPDEST PUSH1 0x0 SWAP2 DUP3 MSTORE PUSH1 0x20 SWAP1 SWAP2 KECCAK256 PUSH1 0x2 SWAP1 SWAP2 MUL ADD SLOAD PUSH1 0x1 PUSH1 0x1 PUSH1 0xA0 SHL SUB AND DUP3 PUSH2 0x2993 JUMP JUMPDEST PUSH1 0x0 DUP7 DUP2 MSTORE PUSH1 0x8 PUSH1 0x20 MSTORE PUSH1 0x40 SWAP1 KECCAK256 DUP1 SLOAD PUSH32 0xC978478A05AC4ABD47AF9EF43A7656E78CD783262621455FF33493B670421E65 SWAP2 DUP9 SWAP2 DUP6 SWAP1 DUP2 LT PUSH2 0x2C3D JUMPI INVALID JUMPDEST PUSH1 0x0 SWAP2 DUP3 MSTORE PUSH1 0x20 SWAP1 SWAP2 KECCAK256 PUSH1 0x2 SWAP1 SWAP2 MUL ADD SLOAD PUSH1 0x40 MLOAD PUSH2 0x2C67 SWAP3 SWAP2 PUSH1 0x1 PUSH1 0x1 PUSH1 0xA0 SHL SUB AND SWAP1 DUP6 SWAP1 PUSH2 0x3E65 JUMP JUMPDEST PUSH1 0x40 MLOAD DUP1 SWAP2 SUB SWAP1 LOG1 PUSH2 0x2D25 JUMP JUMPDEST PUSH1 0x0 DUP7 DUP2 MSTORE PUSH1 0x8 PUSH1 0x20 MSTORE PUSH1 0x40 SWAP1 KECCAK256 DUP1 SLOAD PUSH2 0x2CB4 SWAP2 DUP8 SWAP2 DUP6 SWAP1 DUP2 LT PUSH2 0x2C94 JUMPI INVALID JUMPDEST PUSH1 0x0 SWAP2 DUP3 MSTORE PUSH1 0x20 SWAP1 SWAP2 KECCAK256 PUSH1 0x2 SWAP1 SWAP2 MUL ADD SLOAD PUSH1 0x1 PUSH1 0x1 PUSH1 0xA0 SHL SUB AND DUP4 PUSH2 0x2A0F JUMP JUMPDEST PUSH1 0x0 DUP7 DUP2 MSTORE PUSH1 0x8 PUSH1 0x20 MSTORE PUSH1 0x40 SWAP1 KECCAK256 DUP1 SLOAD PUSH32 0xC978478A05AC4ABD47AF9EF43A7656E78CD783262621455FF33493B670421E65 SWAP2 DUP9 SWAP2 DUP6 SWAP1 DUP2 LT PUSH2 0x2CF2 JUMPI INVALID JUMPDEST PUSH1 0x0 SWAP2 DUP3 MSTORE PUSH1 0x20 SWAP1 SWAP2 KECCAK256 PUSH1 0x2 SWAP1 SWAP2 MUL ADD SLOAD PUSH1 0x40 MLOAD PUSH2 0x2D1C SWAP3 SWAP2 PUSH1 0x1 PUSH1 0x1 PUSH1 0xA0 SHL SUB AND SWAP1 DUP6 SWAP1 PUSH2 0x3E65 JUMP JUMPDEST PUSH1 0x40 MLOAD DUP1 SWAP2 SUB SWAP1 LOG1 JUMPDEST POP PUSH1 0x1 ADD PUSH2 0x2B35 JUMP JUMPDEST POP JUMPDEST POP POP POP POP JUMP JUMPDEST PUSH1 0x0 DUP3 DUP3 ADD DUP4 DUP2 LT ISZERO PUSH2 0x2706 JUMPI PUSH1 0x40 MLOAD PUSH3 0x461BCD PUSH1 0xE5 SHL DUP2 MSTORE PUSH1 0x4 ADD PUSH2 0x2B4 SWAP1 PUSH2 0x3904 JUMP JUMPDEST PUSH1 0x0 PUSH1 0xA DUP3 MLOAD GT ISZERO PUSH2 0x2D7F JUMPI PUSH1 0x40 MLOAD PUSH3 0x461BCD PUSH1 0xE5 SHL DUP2 MSTORE PUSH1 0x4 ADD PUSH2 0x2B4 SWAP1 PUSH2 0x3D01 JUMP JUMPDEST PUSH1 0x0 DUP1 JUMPDEST DUP4 MLOAD DUP2 LT ISZERO PUSH2 0x2DB5 JUMPI DUP4 DUP2 DUP2 MLOAD DUP2 LT PUSH2 0x2D98 JUMPI INVALID JUMPDEST PUSH1 0x20 MUL PUSH1 0x20 ADD ADD MLOAD PUSH1 0x20 ADD MLOAD DUP3 ADD SWAP2 POP DUP1 DUP1 PUSH1 0x1 ADD SWAP2 POP POP PUSH2 0x2D83 JUMP JUMPDEST POP PUSH2 0x3E8 EQ SWAP3 SWAP2 POP POP JUMP JUMPDEST DUP1 SLOAD PUSH1 0x1 ADD SWAP1 SSTORE JUMP JUMPDEST SLOAD SWAP1 JUMP JUMPDEST PUSH2 0x2D30 DUP5 PUSH4 0x23B872DD PUSH1 0xE0 SHL DUP6 DUP6 DUP6 PUSH1 0x40 MLOAD PUSH1 0x24 ADD PUSH2 0x2DEE SWAP4 SWAP3 SWAP2 SWAP1 PUSH2 0x3624 JUMP JUMPDEST PUSH1 0x40 DUP1 MLOAD PUSH1 0x1F NOT DUP2 DUP5 SUB ADD DUP2 MSTORE SWAP2 SWAP1 MSTORE PUSH1 0x20 DUP2 ADD DUP1 MLOAD PUSH1 0x1 PUSH1 0x1 PUSH1 0xE0 SHL SUB AND PUSH1 0x1 PUSH1 0x1 PUSH1 0xE0 SHL SUB NOT SWAP1 SWAP4 AND SWAP3 SWAP1 SWAP3 OR SWAP1 SWAP2 MSTORE PUSH2 0x2E95 JUMP JUMPDEST PUSH1 0x0 PUSH2 0x2706 PUSH1 0x64 PUSH2 0x2E36 DUP6 DUP6 PUSH2 0x2F24 JUMP JUMPDEST SWAP1 PUSH2 0x2F5E JUMP JUMPDEST PUSH2 0x2277 DUP4 PUSH4 0xA9059CBB PUSH1 0xE0 SHL DUP5 DUP5 PUSH1 0x40 MLOAD PUSH1 0x24 ADD PUSH2 0x2DEE SWAP3 SWAP2 SWAP1 PUSH2 0x36BA JUMP JUMPDEST PUSH1 0x0 DUP3 DUP3 GT ISZERO PUSH2 0x2E7D JUMPI PUSH1 0x40 MLOAD PUSH3 0x461BCD PUSH1 0xE5 SHL DUP2 MSTORE PUSH1 0x4 ADD PUSH2 0x2B4 SWAP1 PUSH2 0x393B JUMP JUMPDEST POP SWAP1 SUB SWAP1 JUMP JUMPDEST PUSH1 0x0 PUSH2 0x2706 PUSH2 0x3E8 PUSH2 0x2E36 DUP6 DUP6 PUSH2 0x2F24 JUMP JUMPDEST PUSH1 0x60 PUSH2 0x2EEA DUP3 PUSH1 0x40 MLOAD DUP1 PUSH1 0x40 ADD PUSH1 0x40 MSTORE DUP1 PUSH1 0x20 DUP2 MSTORE PUSH1 0x20 ADD PUSH32 0x5361666545524332303A206C6F772D6C6576656C2063616C6C206661696C6564 DUP2 MSTORE POP DUP6 PUSH1 0x1 PUSH1 0x1 PUSH1 0xA0 SHL SUB AND PUSH2 0x2F90 SWAP1 SWAP3 SWAP2 SWAP1 PUSH4 0xFFFFFFFF AND JUMP JUMPDEST DUP1 MLOAD SWAP1 SWAP2 POP ISZERO PUSH2 0x2277 JUMPI DUP1 DUP1 PUSH1 0x20 ADD SWAP1 MLOAD DUP2 ADD SWAP1 PUSH2 0x2F08 SWAP2 SWAP1 PUSH2 0x34D1 JUMP JUMPDEST PUSH2 0x2277 JUMPI PUSH1 0x40 MLOAD PUSH3 0x461BCD PUSH1 0xE5 SHL DUP2 MSTORE PUSH1 0x4 ADD PUSH2 0x2B4 SWAP1 PUSH2 0x3D90 JUMP JUMPDEST PUSH1 0x0 DUP3 PUSH2 0x2F33 JUMPI POP PUSH1 0x0 PUSH2 0x1AFA JUMP JUMPDEST DUP3 DUP3 MUL DUP3 DUP5 DUP3 DUP2 PUSH2 0x2F40 JUMPI INVALID JUMPDEST DIV EQ PUSH2 0x2706 JUMPI PUSH1 0x40 MLOAD PUSH3 0x461BCD PUSH1 0xE5 SHL DUP2 MSTORE PUSH1 0x4 ADD PUSH2 0x2B4 SWAP1 PUSH2 0x3B51 JUMP JUMPDEST PUSH1 0x0 DUP1 DUP3 GT PUSH2 0x2F7F JUMPI PUSH1 0x40 MLOAD PUSH3 0x461BCD PUSH1 0xE5 SHL DUP2 MSTORE PUSH1 0x4 ADD PUSH2 0x2B4 SWAP1 PUSH2 0x39B8 JUMP JUMPDEST DUP2 DUP4 DUP2 PUSH2 0x2F88 JUMPI INVALID JUMPDEST DIV SWAP4 SWAP3 POP POP POP JUMP JUMPDEST PUSH1 0x60 PUSH2 0x2F9F DUP5 DUP5 PUSH1 0x0 DUP6 PUSH2 0x2FA7 JUMP JUMPDEST SWAP5 SWAP4 POP POP POP POP JUMP JUMPDEST PUSH1 0x60 DUP3 SELFBALANCE LT ISZERO PUSH2 0x2FC9 JUMPI PUSH1 0x40 MLOAD PUSH3 0x461BCD PUSH1 0xE5 SHL DUP2 MSTORE PUSH1 0x4 ADD PUSH2 0x2B4 SWAP1 PUSH2 0x3972 JUMP JUMPDEST PUSH2 0x2FD2 DUP6 PUSH2 0x3068 JUMP JUMPDEST PUSH2 0x2FEE JUMPI PUSH1 0x40 MLOAD PUSH3 0x461BCD PUSH1 0xE5 SHL DUP2 MSTORE PUSH1 0x4 ADD PUSH2 0x2B4 SWAP1 PUSH2 0x3CCA JUMP JUMPDEST PUSH1 0x0 PUSH1 0x60 DUP7 PUSH1 0x1 PUSH1 0x1 PUSH1 0xA0 SHL SUB AND DUP6 DUP8 PUSH1 0x40 MLOAD PUSH2 0x300B SWAP2 SWAP1 PUSH2 0x35D7 JUMP JUMPDEST PUSH1 0x0 PUSH1 0x40 MLOAD DUP1 DUP4 SUB DUP2 DUP6 DUP8 GAS CALL SWAP3 POP POP POP RETURNDATASIZE DUP1 PUSH1 0x0 DUP2 EQ PUSH2 0x3048 JUMPI PUSH1 0x40 MLOAD SWAP2 POP PUSH1 0x1F NOT PUSH1 0x3F RETURNDATASIZE ADD AND DUP3 ADD PUSH1 0x40 MSTORE RETURNDATASIZE DUP3 MSTORE RETURNDATASIZE PUSH1 0x0 PUSH1 0x20 DUP5 ADD RETURNDATACOPY PUSH2 0x304D JUMP JUMPDEST PUSH1 0x60 SWAP2 POP JUMPDEST POP SWAP2 POP SWAP2 POP PUSH2 0x305D DUP3 DUP3 DUP7 PUSH2 0x306E JUMP JUMPDEST SWAP8 SWAP7 POP POP POP POP POP POP POP JUMP JUMPDEST EXTCODESIZE ISZERO ISZERO SWAP1 JUMP JUMPDEST PUSH1 0x60 DUP4 ISZERO PUSH2 0x307D JUMPI POP DUP2 PUSH2 0x2706 JUMP JUMPDEST DUP3 MLOAD ISZERO PUSH2 0x308D JUMPI DUP3 MLOAD DUP1 DUP5 PUSH1 0x20 ADD REVERT JUMPDEST DUP2 PUSH1 0x40 MLOAD PUSH3 0x461BCD PUSH1 0xE5 SHL DUP2 MSTORE PUSH1 0x4 ADD PUSH2 0x2B4 SWAP2 SWAP1 PUSH2 0x3853 JUMP JUMPDEST DUP1 CALLDATALOAD PUSH2 0x1AFA DUP2 PUSH2 0x3F7F JUMP JUMPDEST PUSH1 0x0 DUP3 PUSH1 0x1F DUP4 ADD SLT PUSH2 0x30C2 JUMPI DUP1 DUP2 REVERT JUMPDEST DUP2 MLOAD PUSH2 0x30D5 PUSH2 0x30D0 DUP3 PUSH2 0x3F33 JUMP JUMPDEST PUSH2 0x3F0C JUMP JUMPDEST DUP2 DUP2 MSTORE SWAP2 POP PUSH1 0x20 DUP1 DUP4 ADD SWAP1 DUP5 DUP2 ADD DUP2 DUP5 MUL DUP7 ADD DUP3 ADD DUP8 LT ISZERO PUSH2 0x30F6 JUMPI PUSH1 0x0 DUP1 REVERT JUMPDEST PUSH1 0x0 JUMPDEST DUP5 DUP2 LT ISZERO PUSH2 0x3115 JUMPI DUP2 MLOAD DUP5 MSTORE SWAP3 DUP3 ADD SWAP3 SWAP1 DUP3 ADD SWAP1 PUSH1 0x1 ADD PUSH2 0x30F9 JUMP JUMPDEST POP POP POP POP POP SWAP3 SWAP2 POP POP JUMP JUMPDEST PUSH1 0x0 PUSH1 0x20 DUP3 DUP5 SUB SLT ISZERO PUSH2 0x3131 JUMPI DUP1 DUP2 REVERT JUMPDEST DUP2 CALLDATALOAD PUSH2 0x2706 DUP2 PUSH2 0x3F7F JUMP JUMPDEST PUSH1 0x0 PUSH1 0x20 DUP3 DUP5 SUB SLT ISZERO PUSH2 0x314D JUMPI DUP1 DUP2 REVERT JUMPDEST DUP2 MLOAD PUSH2 0x2706 DUP2 PUSH2 0x3F7F JUMP JUMPDEST PUSH1 0x0 DUP1 PUSH1 0x40 DUP4 DUP6 SUB SLT ISZERO PUSH2 0x316A JUMPI DUP1 DUP2 REVERT JUMPDEST DUP3 CALLDATALOAD PUSH2 0x3175 DUP2 PUSH2 0x3F7F JUMP JUMPDEST SWAP2 POP PUSH1 0x20 DUP4 ADD CALLDATALOAD PUSH2 0x3185 DUP2 PUSH2 0x3F7F JUMP JUMPDEST DUP1 SWAP2 POP POP SWAP3 POP SWAP3 SWAP1 POP JUMP JUMPDEST PUSH1 0x0 DUP1 PUSH1 0x0 DUP1 PUSH1 0x80 DUP6 DUP8 SUB SLT ISZERO PUSH2 0x31A5 JUMPI DUP2 DUP3 REVERT JUMPDEST DUP5 CALLDATALOAD PUSH2 0x31B0 DUP2 PUSH2 0x3F7F JUMP JUMPDEST SWAP4 POP PUSH1 0x20 DUP6 DUP2 ADD CALLDATALOAD PUSH2 0x31C1 DUP2 PUSH2 0x3F7F JUMP JUMPDEST SWAP4 POP PUSH1 0x40 DUP7 ADD CALLDATALOAD SWAP3 POP PUSH1 0x60 DUP7 ADD CALLDATALOAD PUSH8 0xFFFFFFFFFFFFFFFF DUP1 DUP3 GT ISZERO PUSH2 0x31E4 JUMPI DUP4 DUP5 REVERT JUMPDEST DUP2 DUP9 ADD SWAP2 POP DUP9 PUSH1 0x1F DUP4 ADD SLT PUSH2 0x31F7 JUMPI DUP4 DUP5 REVERT JUMPDEST DUP2 CALLDATALOAD DUP2 DUP2 GT ISZERO PUSH2 0x3205 JUMPI DUP5 DUP6 REVERT JUMPDEST PUSH2 0x3217 PUSH1 0x1F DUP3 ADD PUSH1 0x1F NOT AND DUP6 ADD PUSH2 0x3F0C JUMP JUMPDEST SWAP2 POP DUP1 DUP3 MSTORE DUP10 DUP5 DUP3 DUP6 ADD ADD GT ISZERO PUSH2 0x322C JUMPI DUP5 DUP6 REVERT JUMPDEST DUP1 DUP5 DUP5 ADD DUP6 DUP5 ADD CALLDATACOPY DUP2 ADD SWAP1 SWAP3 ADD SWAP3 SWAP1 SWAP3 MSTORE SWAP4 SWAP7 SWAP3 SWAP6 POP SWAP1 SWAP4 POP POP JUMP JUMPDEST PUSH1 0x0 DUP1 PUSH1 0x40 DUP4 DUP6 SUB SLT ISZERO PUSH2 0x325A JUMPI DUP2 DUP3 REVERT JUMPDEST DUP3 CALLDATALOAD PUSH2 0x3265 DUP2 PUSH2 0x3F7F JUMP JUMPDEST SWAP5 PUSH1 0x20 SWAP4 SWAP1 SWAP4 ADD CALLDATALOAD SWAP4 POP POP POP JUMP JUMPDEST PUSH1 0x0 DUP1 PUSH1 0x0 PUSH1 0x60 DUP5 DUP7 SUB SLT ISZERO PUSH2 0x3287 JUMPI DUP3 DUP4 REVERT JUMPDEST DUP4 CALLDATALOAD PUSH2 0x3292 DUP2 PUSH2 0x3F7F JUMP JUMPDEST SWAP6 PUSH1 0x20 DUP6 ADD CALLDATALOAD SWAP6 POP PUSH1 0x40 SWAP1 SWAP5 ADD CALLDATALOAD SWAP4 SWAP3 POP POP POP JUMP JUMPDEST PUSH1 0x0 DUP1 PUSH1 0x20 DUP4 DUP6 SUB SLT ISZERO PUSH2 0x32B9 JUMPI DUP2 DUP3 REVERT JUMPDEST DUP3 CALLDATALOAD PUSH8 0xFFFFFFFFFFFFFFFF DUP1 DUP3 GT ISZERO PUSH2 0x32D0 JUMPI DUP4 DUP5 REVERT JUMPDEST DUP2 DUP6 ADD SWAP2 POP DUP6 PUSH1 0x1F DUP4 ADD SLT PUSH2 0x32E3 JUMPI DUP4 DUP5 REVERT JUMPDEST DUP2 CALLDATALOAD DUP2 DUP2 GT ISZERO PUSH2 0x32F1 JUMPI DUP5 DUP6 REVERT JUMPDEST DUP7 PUSH1 0x20 DUP1 DUP4 MUL DUP6 ADD ADD GT ISZERO PUSH2 0x3304 JUMPI DUP5 DUP6 REVERT JUMPDEST PUSH1 0x20 SWAP3 SWAP1 SWAP3 ADD SWAP7 SWAP2 SWAP6 POP SWAP1 SWAP4 POP POP POP POP JUMP JUMPDEST PUSH1 0x0 DUP1 PUSH1 0x40 DUP4 DUP6 SUB SLT ISZERO PUSH2 0x3328 JUMPI DUP2 DUP3 REVERT JUMPDEST DUP3 MLOAD PUSH8 0xFFFFFFFFFFFFFFFF DUP1 DUP3 GT ISZERO PUSH2 0x333F JUMPI DUP4 DUP5 REVERT JUMPDEST DUP2 DUP6 ADD SWAP2 POP DUP6 PUSH1 0x1F DUP4 ADD SLT PUSH2 0x3352 JUMPI DUP4 DUP5 REVERT JUMPDEST DUP2 MLOAD PUSH2 0x3360 PUSH2 0x30D0 DUP3 PUSH2 0x3F33 JUMP JUMPDEST DUP1 DUP3 DUP3 MSTORE PUSH1 0x20 DUP1 DUP4 ADD SWAP3 POP DUP1 DUP7 ADD DUP11 DUP3 DUP4 DUP8 MUL DUP10 ADD ADD GT ISZERO PUSH2 0x3380 JUMPI DUP9 DUP10 REVERT JUMPDEST DUP9 SWAP7 POP JUMPDEST DUP5 DUP8 LT ISZERO PUSH2 0x33AB JUMPI DUP1 MLOAD PUSH2 0x3397 DUP2 PUSH2 0x3F7F JUMP JUMPDEST DUP5 MSTORE PUSH1 0x1 SWAP7 SWAP1 SWAP7 ADD SWAP6 SWAP3 DUP2 ADD SWAP3 DUP2 ADD PUSH2 0x3384 JUMP JUMPDEST POP DUP9 ADD MLOAD SWAP1 SWAP7 POP SWAP4 POP POP POP DUP1 DUP3 GT ISZERO PUSH2 0x33C2 JUMPI DUP3 DUP4 REVERT JUMPDEST POP PUSH2 0x33CF DUP6 DUP3 DUP7 ADD PUSH2 0x30B2 JUMP JUMPDEST SWAP2 POP POP SWAP3 POP SWAP3 SWAP1 POP JUMP JUMPDEST PUSH1 0x0 DUP1 PUSH1 0x0 DUP1 PUSH1 0x0 PUSH1 0xA0 DUP7 DUP9 SUB SLT ISZERO PUSH2 0x33F0 JUMPI DUP1 DUP2 REVERT JUMPDEST DUP6 CALLDATALOAD PUSH8 0xFFFFFFFFFFFFFFFF DUP2 GT ISZERO PUSH2 0x3406 JUMPI DUP2 DUP3 REVERT JUMPDEST DUP7 ADD PUSH1 0x1F DUP2 ADD DUP9 SGT PUSH2 0x3416 JUMPI DUP2 DUP3 REVERT JUMPDEST DUP1 CALLDATALOAD PUSH2 0x3424 PUSH2 0x30D0 DUP3 PUSH2 0x3F33 JUMP JUMPDEST DUP1 DUP3 DUP3 MSTORE PUSH1 0x20 DUP1 DUP4 ADD SWAP3 POP DUP1 DUP6 ADD PUSH1 0x40 DUP14 DUP4 DUP3 DUP9 MUL DUP10 ADD ADD GT ISZERO PUSH2 0x3446 JUMPI DUP8 DUP9 REVERT JUMPDEST DUP8 SWAP7 POP JUMPDEST DUP6 DUP8 LT ISZERO PUSH2 0x3493 JUMPI DUP1 DUP3 DUP16 SUB SLT ISZERO PUSH2 0x3460 JUMPI DUP8 DUP9 REVERT JUMPDEST PUSH2 0x3469 DUP2 PUSH2 0x3F0C JUMP JUMPDEST PUSH2 0x3473 DUP16 DUP5 PUSH2 0x30A7 JUMP JUMPDEST DUP2 MSTORE DUP3 DUP5 ADD CALLDATALOAD DUP5 DUP3 ADD MSTORE DUP6 MSTORE PUSH1 0x1 SWAP7 SWAP1 SWAP7 ADD SWAP6 SWAP4 DUP3 ADD SWAP4 SWAP1 DUP2 ADD SWAP1 PUSH2 0x344A JUMP JUMPDEST DUP4 SWAP12 POP PUSH2 0x34A2 DUP15 DUP5 DUP16 ADD PUSH2 0x30A7 JUMP JUMPDEST SWAP11 POP DUP1 DUP14 ADD CALLDATALOAD SWAP10 POP POP POP POP POP POP POP POP PUSH1 0x60 DUP7 ADD CALLDATALOAD SWAP2 POP PUSH2 0x34C5 DUP8 PUSH1 0x80 DUP9 ADD PUSH2 0x30A7 JUMP JUMPDEST SWAP1 POP SWAP3 SWAP6 POP SWAP3 SWAP6 SWAP1 SWAP4 POP JUMP JUMPDEST PUSH1 0x0 PUSH1 0x20 DUP3 DUP5 SUB SLT ISZERO PUSH2 0x34E2 JUMPI DUP1 DUP2 REVERT JUMPDEST DUP2 MLOAD DUP1 ISZERO ISZERO DUP2 EQ PUSH2 0x2706 JUMPI DUP2 DUP3 REVERT JUMPDEST PUSH1 0x0 PUSH1 0x20 DUP3 DUP5 SUB SLT ISZERO PUSH2 0x3502 JUMPI DUP1 DUP2 REVERT JUMPDEST POP CALLDATALOAD SWAP2 SWAP1 POP JUMP JUMPDEST PUSH1 0x0 PUSH1 0x20 DUP3 DUP5 SUB SLT ISZERO PUSH2 0x351A JUMPI DUP1 DUP2 REVERT JUMPDEST POP MLOAD SWAP2 SWAP1 POP JUMP JUMPDEST PUSH1 0x0 DUP1 PUSH1 0x40 DUP4 DUP6 SUB SLT ISZERO PUSH2 0x3533 JUMPI DUP2 DUP3 REVERT JUMPDEST DUP3 CALLDATALOAD SWAP2 POP PUSH1 0x20 DUP4 ADD CALLDATALOAD PUSH2 0x3185 DUP2 PUSH2 0x3F7F JUMP JUMPDEST PUSH1 0x0 DUP1 PUSH1 0x0 PUSH1 0x60 DUP5 DUP7 SUB SLT ISZERO PUSH2 0x3559 JUMPI DUP1 DUP2 REVERT JUMPDEST DUP4 CALLDATALOAD SWAP3 POP PUSH1 0x20 DUP5 ADD CALLDATALOAD PUSH2 0x356B DUP2 PUSH2 0x3F7F JUMP JUMPDEST SWAP3 SWAP6 SWAP3 SWAP5 POP POP POP PUSH1 0x40 SWAP2 SWAP1 SWAP2 ADD CALLDATALOAD SWAP1 JUMP JUMPDEST PUSH1 0x0 DUP1 PUSH1 0x40 DUP4 DUP6 SUB SLT ISZERO PUSH2 0x358E JUMPI DUP2 DUP3 REVERT JUMPDEST POP POP DUP1 CALLDATALOAD SWAP3 PUSH1 0x20 SWAP1 SWAP2 ADD CALLDATALOAD SWAP2 POP JUMP JUMPDEST PUSH1 0x0 DUP2 MLOAD DUP1 DUP5 MSTORE PUSH1 0x20 DUP1 DUP6 ADD SWAP5 POP DUP1 DUP5 ADD DUP4 JUMPDEST DUP4 DUP2 LT ISZERO PUSH2 0x35CC JUMPI DUP2 MLOAD DUP8 MSTORE SWAP6 DUP3 ADD SWAP6 SWAP1 DUP3 ADD SWAP1 PUSH1 0x1 ADD PUSH2 0x35B0 JUMP JUMPDEST POP SWAP5 SWAP6 SWAP5 POP POP POP POP POP JUMP JUMPDEST PUSH1 0x0 DUP3 MLOAD PUSH2 0x35E9 DUP2 DUP5 PUSH1 0x20 DUP8 ADD PUSH2 0x3F53 JUMP JUMPDEST SWAP2 SWAP1 SWAP2 ADD SWAP3 SWAP2 POP POP JUMP JUMPDEST SWAP1 JUMP JUMPDEST PUSH1 0x1 PUSH1 0x1 PUSH1 0xA0 SHL SUB SWAP2 SWAP1 SWAP2 AND DUP2 MSTORE PUSH1 0x20 ADD SWAP1 JUMP JUMPDEST PUSH1 0x1 PUSH1 0x1 PUSH1 0xA0 SHL SUB SWAP3 DUP4 AND DUP2 MSTORE SWAP2 AND PUSH1 0x20 DUP3 ADD MSTORE PUSH1 0x40 ADD SWAP1 JUMP JUMPDEST PUSH1 0x1 PUSH1 0x1 PUSH1 0xA0 SHL SUB SWAP4 DUP5 AND DUP2 MSTORE SWAP2 SWAP1 SWAP3 AND PUSH1 0x20 DUP3 ADD MSTORE PUSH1 0x40 DUP2 ADD SWAP2 SWAP1 SWAP2 MSTORE PUSH1 0x60 ADD SWAP1 JUMP JUMPDEST PUSH1 0x1 PUSH1 0x1 PUSH1 0xA0 SHL SUB DUP13 DUP2 AND DUP3 MSTORE DUP12 DUP2 AND PUSH1 0x20 DUP4 ADD MSTORE DUP11 DUP2 AND PUSH1 0x40 DUP4 ADD MSTORE PUSH1 0x60 DUP3 ADD DUP11 SWAP1 MSTORE PUSH1 0x80 DUP3 ADD DUP10 SWAP1 MSTORE PUSH1 0xA0 DUP3 ADD DUP9 SWAP1 MSTORE DUP7 AND PUSH1 0xC0 DUP3 ADD MSTORE PUSH1 0xE0 DUP2 ADD DUP6 SWAP1 MSTORE PUSH2 0x100 DUP2 ADD DUP5 SWAP1 MSTORE PUSH2 0x160 DUP2 ADD PUSH1 0x3 DUP5 LT PUSH2 0x369F JUMPI INVALID JUMPDEST PUSH2 0x120 DUP3 ADD SWAP4 SWAP1 SWAP4 MSTORE PUSH2 0x140 ADD MSTORE SWAP10 SWAP9 POP POP POP POP POP POP POP POP POP JUMP JUMPDEST PUSH1 0x1 PUSH1 0x1 PUSH1 0xA0 SHL SUB SWAP3 SWAP1 SWAP3 AND DUP3 MSTORE PUSH1 0x20 DUP3 ADD MSTORE PUSH1 0x40 ADD SWAP1 JUMP JUMPDEST PUSH1 0x1 PUSH1 0x1 PUSH1 0xA0 SHL SUB SWAP6 DUP7 AND DUP2 MSTORE PUSH1 0x20 DUP2 ADD SWAP5 SWAP1 SWAP5 MSTORE SWAP2 SWAP1 SWAP4 AND PUSH1 0x40 DUP4 ADD MSTORE PUSH1 0x60 DUP3 ADD SWAP3 SWAP1 SWAP3 MSTORE PUSH1 0x80 DUP2 ADD SWAP2 SWAP1 SWAP2 MSTORE PUSH1 0xA0 ADD SWAP1 JUMP JUMPDEST PUSH1 0x1 PUSH1 0x1 PUSH1 0xA0 SHL SUB SWAP7 DUP8 AND DUP2 MSTORE PUSH1 0x20 DUP2 ADD SWAP6 SWAP1 SWAP6 MSTORE SWAP3 DUP6 AND PUSH1 0x40 DUP6 ADD MSTORE PUSH1 0x60 DUP5 ADD SWAP2 SWAP1 SWAP2 MSTORE PUSH1 0x80 DUP4 ADD MSTORE SWAP1 SWAP2 AND PUSH1 0xA0 DUP3 ADD MSTORE PUSH1 0xC0 ADD SWAP1 JUMP JUMPDEST PUSH1 0x1 PUSH1 0x1 PUSH1 0xA0 SHL SUB SWAP4 SWAP1 SWAP4 AND DUP4 MSTORE PUSH1 0x20 DUP4 ADD SWAP2 SWAP1 SWAP2 MSTORE PUSH1 0x40 DUP3 ADD MSTORE PUSH1 0x60 ADD SWAP1 JUMP JUMPDEST PUSH1 0x60 DUP1 DUP3 MSTORE DUP5 MLOAD SWAP1 DUP3 ADD DUP2 SWAP1 MSTORE PUSH1 0x0 SWAP1 PUSH1 0x20 SWAP1 PUSH1 0x80 DUP5 ADD SWAP1 DUP3 DUP9 ADD DUP5 JUMPDEST DUP3 DUP2 LT ISZERO PUSH2 0x37A2 JUMPI DUP2 MLOAD PUSH1 0x1 PUSH1 0x1 PUSH1 0xA0 SHL SUB AND DUP5 MSTORE SWAP3 DUP5 ADD SWAP3 SWAP1 DUP5 ADD SWAP1 PUSH1 0x1 ADD PUSH2 0x377D JUMP JUMPDEST POP POP POP DUP4 DUP2 SUB DUP3 DUP6 ADD MSTORE PUSH2 0x37B6 DUP2 DUP8 PUSH2 0x359D JUMP JUMPDEST SWAP3 POP POP POP DUP3 PUSH1 0x40 DUP4 ADD MSTORE SWAP5 SWAP4 POP POP POP POP JUMP JUMPDEST PUSH1 0x20 DUP1 DUP3 MSTORE DUP3 MLOAD DUP3 DUP3 ADD DUP2 SWAP1 MSTORE PUSH1 0x0 SWAP2 SWAP1 PUSH1 0x40 SWAP1 DUP2 DUP6 ADD SWAP1 DUP7 DUP5 ADD DUP6 JUMPDEST DUP3 DUP2 LT ISZERO PUSH2 0x3813 JUMPI DUP2 MLOAD DUP1 MLOAD PUSH1 0x1 PUSH1 0x1 PUSH1 0xA0 SHL SUB AND DUP6 MSTORE DUP7 ADD MLOAD DUP7 DUP6 ADD MSTORE SWAP3 DUP5 ADD SWAP3 SWAP1 DUP6 ADD SWAP1 PUSH1 0x1 ADD PUSH2 0x37E5 JUMP JUMPDEST POP SWAP2 SWAP8 SWAP7 POP POP POP POP POP POP POP JUMP JUMPDEST PUSH1 0x0 PUSH1 0x20 DUP3 MSTORE PUSH2 0x2706 PUSH1 0x20 DUP4 ADD DUP5 PUSH2 0x359D JUMP JUMPDEST SWAP1 ISZERO ISZERO DUP2 MSTORE PUSH1 0x20 ADD SWAP1 JUMP JUMPDEST PUSH1 0x1 PUSH1 0x1 PUSH1 0xE0 SHL SUB NOT SWAP2 SWAP1 SWAP2 AND DUP2 MSTORE PUSH1 0x20 ADD SWAP1 JUMP JUMPDEST PUSH1 0x0 PUSH1 0x20 DUP3 MSTORE DUP3 MLOAD DUP1 PUSH1 0x20 DUP5 ADD MSTORE PUSH2 0x3872 DUP2 PUSH1 0x40 DUP6 ADD PUSH1 0x20 DUP8 ADD PUSH2 0x3F53 JUMP JUMPDEST PUSH1 0x1F ADD PUSH1 0x1F NOT AND SWAP2 SWAP1 SWAP2 ADD PUSH1 0x40 ADD SWAP3 SWAP2 POP POP JUMP JUMPDEST PUSH1 0x20 DUP1 DUP3 MSTORE PUSH1 0x31 SWAP1 DUP3 ADD MSTORE PUSH32 0x44656C66794D61726B65743A204269645F76616C75655F6D7573745F62655F3E PUSH1 0x40 DUP3 ADD MSTORE PUSH17 0x63757272656E745F6269645F76616C7565 PUSH1 0x78 SHL PUSH1 0x60 DUP3 ADD MSTORE PUSH1 0x80 ADD SWAP1 JUMP JUMPDEST PUSH1 0x20 DUP1 DUP3 MSTORE PUSH1 0x13 SWAP1 DUP3 ADD MSTORE PUSH19 0x11551217DD1C985B9CD9995C97D9985A5B1959 PUSH1 0x6A SHL PUSH1 0x40 DUP3 ADD MSTORE PUSH1 0x60 ADD SWAP1 JUMP JUMPDEST PUSH1 0x20 DUP1 DUP3 MSTORE PUSH1 0x1B SWAP1 DUP3 ADD MSTORE PUSH32 0x536166654D6174683A206164646974696F6E206F766572666C6F770000000000 PUSH1 0x40 DUP3 ADD MSTORE PUSH1 0x60 ADD SWAP1 JUMP JUMPDEST PUSH1 0x20 DUP1 DUP3 MSTORE PUSH1 0x1E SWAP1 DUP3 ADD MSTORE PUSH32 0x536166654D6174683A207375627472616374696F6E206F766572666C6F770000 PUSH1 0x40 DUP3 ADD MSTORE PUSH1 0x60 ADD SWAP1 JUMP JUMPDEST PUSH1 0x20 DUP1 DUP3 MSTORE PUSH1 0x26 SWAP1 DUP3 ADD MSTORE PUSH32 0x416464726573733A20696E73756666696369656E742062616C616E636520666F PUSH1 0x40 DUP3 ADD MSTORE PUSH6 0x1C8818D85B1B PUSH1 0xD2 SHL PUSH1 0x60 DUP3 ADD MSTORE PUSH1 0x80 ADD SWAP1 JUMP JUMPDEST PUSH1 0x20 DUP1 DUP3 MSTORE PUSH1 0x1A SWAP1 DUP3 ADD MSTORE PUSH32 0x536166654D6174683A206469766973696F6E206279207A65726F000000000000 PUSH1 0x40 DUP3 ADD MSTORE PUSH1 0x60 ADD SWAP1 JUMP JUMPDEST PUSH1 0x20 DUP1 DUP3 MSTORE PUSH1 0x1C SWAP1 DUP3 ADD MSTORE PUSH32 0x44656C66794D61726B65743A205472616E73666572204661696C656400000000 PUSH1 0x40 DUP3 ADD MSTORE PUSH1 0x60 ADD SWAP1 JUMP JUMPDEST PUSH1 0x20 DUP1 DUP3 MSTORE PUSH1 0x27 SWAP1 DUP3 ADD MSTORE PUSH32 0x44656C66794D61726B65743A20596F75206861766520746F206D616B65207075 PUSH1 0x40 DUP3 ADD MSTORE PUSH7 0x72636861736521 PUSH1 0xC8 SHL PUSH1 0x60 DUP3 ADD MSTORE PUSH1 0x80 ADD SWAP1 JUMP JUMPDEST PUSH1 0x20 DUP1 DUP3 MSTORE PUSH1 0x9 SWAP1 DUP3 ADD MSTORE PUSH9 0x616464726573735F3 PUSH1 0xBC SHL PUSH1 0x40 DUP3 ADD MSTORE PUSH1 0x60 ADD SWAP1 JUMP JUMPDEST PUSH1 0x20 DUP1 DUP3 MSTORE PUSH1 0x1F SWAP1 DUP3 ADD MSTORE PUSH32 0x44656C66794D61726B65743A206F6E6C795F61756374696F6E5F6F776E657200 PUSH1 0x40 DUP3 ADD MSTORE PUSH1 0x60 ADD SWAP1 JUMP JUMPDEST PUSH1 0x20 DUP1 DUP3 MSTORE PUSH1 0x29 SWAP1 DUP3 ADD MSTORE PUSH32 0x44656C66794D61726B65743A20696E76616C6964207061796D656E7420646973 PUSH1 0x40 DUP3 ADD MSTORE PUSH9 0x3A3934B13ABA34B7B7 PUSH1 0xB9 SHL PUSH1 0x60 DUP3 ADD MSTORE PUSH1 0x80 ADD SWAP1 JUMP JUMPDEST PUSH1 0x20 DUP1 DUP3 MSTORE PUSH1 0x21 SWAP1 DUP3 ADD MSTORE PUSH32 0x44656C66794D61726B65743A206F6E6C795F7768656E5F6E6F745F7061757365 PUSH1 0x40 DUP3 ADD MSTORE PUSH1 0x19 PUSH1 0xFA SHL PUSH1 0x60 DUP3 ADD MSTORE PUSH1 0x80 ADD SWAP1 JUMP JUMPDEST PUSH1 0x20 DUP1 DUP3 MSTORE PUSH1 0x21 SWAP1 DUP3 ADD MSTORE PUSH32 0x536166654D6174683A206D756C7469706C69636174696F6E206F766572666C6F PUSH1 0x40 DUP3 ADD MSTORE PUSH1 0x77 PUSH1 0xF8 SHL PUSH1 0x60 DUP3 ADD MSTORE PUSH1 0x80 ADD SWAP1 JUMP JUMPDEST PUSH1 0x20 DUP1 DUP3 MSTORE DUP2 DUP2 ADD MSTORE PUSH32 0x4F776E61626C653A2063616C6C6572206973206E6F7420746865206F776E6572 PUSH1 0x40 DUP3 ADD MSTORE PUSH1 0x60 ADD SWAP1 JUMP JUMPDEST PUSH1 0x20 DUP1 DUP3 MSTORE PUSH1 0x21 SWAP1 DUP3 ADD MSTORE PUSH32 0x44656C667945524332303A206F776E6572206170706C7920746F6F206561726C PUSH1 0x40 DUP3 ADD MSTORE PUSH1 0x79 PUSH1 0xF8 SHL PUSH1 0x60 DUP3 ADD MSTORE PUSH1 0x80 ADD SWAP1 JUMP JUMPDEST PUSH1 0x20 DUP1 DUP3 MSTORE PUSH1 0x1F SWAP1 DUP3 ADD MSTORE PUSH32 0x44656C66794D61726B65743A2041756374696F6E5F6E6F745F636C6F73656400 PUSH1 0x40 DUP3 ADD MSTORE PUSH1 0x60 ADD SWAP1 JUMP JUMPDEST PUSH1 0x20 DUP1 DUP3 MSTORE PUSH1 0x29 SWAP1 DUP3 ADD MSTORE PUSH32 0x44656C66794D61726B65743A20636C6F73655F73616C655F62795F63616E6365 PUSH1 0x40 DUP3 ADD MSTORE PUSH9 0x362FB0BAB1BA34B7B7 PUSH1 0xB9 SHL PUSH1 0x60 DUP3 ADD MSTORE PUSH1 0x80 ADD SWAP1 JUMP JUMPDEST PUSH1 0x20 DUP1 DUP3 MSTORE PUSH1 0x22 SWAP1 DUP3 ADD MSTORE PUSH32 0x44656C66794D61726B65743A206F6E6C795F6265666F72655F66697273745F62 PUSH1 0x40 DUP3 ADD MSTORE PUSH2 0x1A59 PUSH1 0xF2 SHL PUSH1 0x60 DUP3 ADD MSTORE PUSH1 0x80 ADD SWAP1 JUMP JUMPDEST PUSH1 0x20 DUP1 DUP3 MSTORE PUSH1 0x1D SWAP1 DUP3 ADD MSTORE PUSH32 0x416464726573733A2063616C6C20746F206E6F6E2D636F6E7472616374000000 PUSH1 0x40 DUP3 ADD MSTORE PUSH1 0x60 ADD SWAP1 JUMP JUMPDEST PUSH1 0x20 DUP1 DUP3 MSTORE PUSH1 0x21 SWAP1 DUP3 ADD MSTORE PUSH32 0x44656C66794D61726B65743A20696E76616C696420706179746F206C656E6774 PUSH1 0x40 DUP3 ADD MSTORE PUSH1 0xD PUSH1 0xFB SHL PUSH1 0x60 DUP3 ADD MSTORE PUSH1 0x80 ADD SWAP1 JUMP JUMPDEST PUSH1 0x20 DUP1 DUP3 MSTORE PUSH1 0x2E SWAP1 DUP3 ADD MSTORE PUSH32 0x44656C66794D61726B65743A206F6E6C795F61756374696F6E5F6F776E65725F PUSH1 0x40 DUP3 ADD MSTORE PUSH14 0x30B7322FB630B9BA2134B23232B9 PUSH1 0x91 SHL PUSH1 0x60 DUP3 ADD MSTORE PUSH1 0x80 ADD SWAP1 JUMP JUMPDEST PUSH1 0x20 DUP1 DUP3 MSTORE PUSH1 0x2A SWAP1 DUP3 ADD MSTORE PUSH32 0x5361666545524332303A204552433230206F7065726174696F6E20646964206E PUSH1 0x40 DUP3 ADD MSTORE PUSH10 0x1BDD081CDD58D8D95959 PUSH1 0xB2 SHL PUSH1 0x60 DUP3 ADD MSTORE PUSH1 0x80 ADD SWAP1 JUMP JUMPDEST PUSH1 0x20 DUP1 DUP3 MSTORE PUSH1 0x1F SWAP1 DUP3 ADD MSTORE PUSH32 0x5265656E7472616E637947756172643A207265656E7472616E742063616C6C00 PUSH1 0x40 DUP3 ADD MSTORE PUSH1 0x60 ADD SWAP1 JUMP JUMPDEST PUSH1 0x20 DUP1 DUP3 MSTORE PUSH1 0x2B SWAP1 DUP3 ADD MSTORE PUSH32 0x44656C66794D61726B65743A206F6E6C7920737570706F72746564207061796D PUSH1 0x40 DUP3 ADD MSTORE PUSH11 0x656E74206D6574686F6473 PUSH1 0xA8 SHL PUSH1 0x60 DUP3 ADD MSTORE PUSH1 0x80 ADD SWAP1 JUMP JUMPDEST SWAP1 DUP2 MSTORE PUSH1 0x20 ADD SWAP1 JUMP JUMPDEST SWAP3 DUP4 MSTORE PUSH1 0x1 PUSH1 0x1 PUSH1 0xA0 SHL SUB SWAP2 SWAP1 SWAP2 AND PUSH1 0x20 DUP4 ADD MSTORE PUSH1 0x40 DUP3 ADD MSTORE PUSH1 0x60 ADD SWAP1 JUMP JUMPDEST SWAP4 DUP5 MSTORE PUSH1 0x1 PUSH1 0x1 PUSH1 0xA0 SHL SUB SWAP3 DUP4 AND PUSH1 0x20 DUP6 ADD MSTORE PUSH1 0x40 DUP5 ADD SWAP2 SWAP1 SWAP2 MSTORE AND PUSH1 0x60 DUP3 ADD MSTORE PUSH1 0x80 ADD SWAP1 JUMP JUMPDEST SWAP3 DUP4 MSTORE PUSH1 0x1 PUSH1 0x1 PUSH1 0xA0 SHL SUB SWAP2 DUP3 AND PUSH1 0x20 DUP5 ADD MSTORE AND PUSH1 0x40 DUP3 ADD MSTORE PUSH1 0x60 ADD SWAP1 JUMP JUMPDEST SWAP5 DUP6 MSTORE PUSH1 0x1 PUSH1 0x1 PUSH1 0xA0 SHL SUB SWAP4 SWAP1 SWAP4 AND PUSH1 0x20 DUP6 ADD MSTORE PUSH1 0x40 DUP5 ADD SWAP2 SWAP1 SWAP2 MSTORE PUSH1 0x60 DUP4 ADD MSTORE PUSH1 0x80 DUP3 ADD MSTORE PUSH1 0xA0 ADD SWAP1 JUMP JUMPDEST SWAP3 DUP4 MSTORE PUSH1 0x20 DUP4 ADD SWAP2 SWAP1 SWAP2 MSTORE PUSH1 0x40 DUP3 ADD MSTORE PUSH1 0x60 ADD SWAP1 JUMP JUMPDEST PUSH1 0x40 MLOAD DUP2 DUP2 ADD PUSH8 0xFFFFFFFFFFFFFFFF DUP2 GT DUP3 DUP3 LT OR ISZERO PUSH2 0x3F2B JUMPI PUSH1 0x0 DUP1 REVERT JUMPDEST PUSH1 0x40 MSTORE SWAP2 SWAP1 POP JUMP JUMPDEST PUSH1 0x0 PUSH8 0xFFFFFFFFFFFFFFFF DUP3 GT ISZERO PUSH2 0x3F49 JUMPI DUP1 DUP2 REVERT JUMPDEST POP PUSH1 0x20 SWAP1 DUP2 MUL ADD SWAP1 JUMP JUMPDEST PUSH1 0x0 JUMPDEST DUP4 DUP2 LT ISZERO PUSH2 0x3F6E JUMPI DUP2 DUP2 ADD MLOAD DUP4 DUP3 ADD MSTORE PUSH1 0x20 ADD PUSH2 0x3F56 JUMP JUMPDEST DUP4 DUP2 GT ISZERO PUSH2 0x2D30 JUMPI POP POP PUSH1 0x0 SWAP2 ADD MSTORE JUMP JUMPDEST PUSH1 0x1 PUSH1 0x1 PUSH1 0xA0 SHL SUB DUP2 AND DUP2 EQ PUSH2 0x3F94 JUMPI PUSH1 0x0 DUP1 REVERT JUMPDEST POP JUMP INVALID LOG2 PUSH5 0x6970667358 0x22 SLT KECCAK256 0xC5 0xD6 0xF9 0xFC LOG0 EXP DUP1 0x2D 0xE1 0xC3 0xAE SAR PUSH6 0xA7B553E4C580 SWAP2 0xB3 DUP4 0x28 PUSH12 0xA4131D47241083B464736F6C PUSH4 0x4300060C STOP CALLER "
        },
        "methodIdentifiers": {
          "ROYALTY_REGISTRY()": "bf47dac2",
          "acceptPendingAdmin()": "709920c1",
          "addDelfyERC721(address)": "69f6f948",
          "addRoyaltyRegistry(address)": "26e245c0",
          "addSupportedpaymentMethods(address[])": "9fa2709b",
          "admin()": "f851a440",
          "adminCancelAuction(uint256)": "ff698469",
          "bidExtension()": "751f8af7",
          "bidWindow()": "dc74f198",
          "cancelAuction(uint256)": "96b5a755",
          "changeAdmin(address)": "8f283970",
          "changeAdminDelay()": "b1893f17",
          "changeAuctionOwnerAddress(uint256,address)": "68d52565",
          "closeAuction(uint256)": "236ed8f3",
          "createAuction((address,uint256)[],address,uint256,uint256,address)": "9c040e7f",
          "creatorCut(address,uint256)": "42a96e94",
          "delay()": "6a42b8f8",
          "delfyERC721()": "8337e95c",
          "getAuction(uint256)": "78bd7935",
          "getAuctionIds()": "1094db1b",
          "getOwnerAuctions(address)": "ebaa4470",
          "getOwnerPayment(address,uint256,uint256)": "e1edc079",
          "getOwnerTokenIds(address,address)": "990ae82b",
          "getPaymentTo(uint256)": "5e3b1577",
          "getPlatformCut(uint256,address,uint256)": "f9e454d0",
          "getRef(uint256)": "2598f253",
          "getRefBonusPaidCount(address,address)": "393271ed",
          "isMinter(address)": "aa271e1a",
          "isSupportedPaymentMethod(address)": "56b602f6",
          "makeBid(uint256,uint256)": "adfcdc11",
          "onERC721Received(address,address,uint256,bytes)": "150b7a02",
          "pause()": "8456cb59",
          "paused()": "5c975abb",
          "payTo(uint256,uint256)": "87a80883",
          "pendingAdmin()": "26782247",
          "platformCut()": "8b9e8594",
          "platformVault()": "20f094f8",
          "refBonus()": "42da271a",
          "refBonusLimit()": "59e65e3c",
          "rejectPendingAdmin()": "4ebf0bcc",
          "unpause()": "3f4ba83a",
          "updateBasePrice(uint256,uint256)": "158bfcfe",
          "updateBidWindow(uint256)": "1f0e1571",
          "updateMinterRefBonus(uint256)": "0d25375d",
          "updatePaymentMethod(uint256,address)": "dd4b7b9f",
          "updatePlatformCut(uint256)": "0e5a5abe",
          "updatePlatformVault(address)": "28fec8a5",
          "viewRoyaltyPayments(address,uint256,uint256)": "23dcbec6"
        }
      }
    }
  }
}