{
  "_format": "hh-sol-artifact-1",
  "contractName": "Registry",
  "sourceName": "contracts/RoyaltyRegistry.sol",
  "abi": [
    {
      "anonymous": false,
      "inputs": [
        {
          "indexed": true,
          "internalType": "address",
          "name": "previousOwner",
          "type": "address"
        },
        {
          "indexed": true,
          "internalType": "address",
          "name": "newOwner",
          "type": "address"
        }
      ],
      "name": "OwnershipTransferred",
      "type": "event"
    },
    {
      "anonymous": false,
      "inputs": [
        {
          "indexed": false,
          "internalType": "address",
          "name": "owner",
          "type": "address"
        },
        {
          "indexed": false,
          "internalType": "address",
          "name": "tokenAddress",
          "type": "address"
        },
        {
          "indexed": false,
          "internalType": "address",
          "name": "royaltyAddress",
          "type": "address"
        }
      ],
      "name": "RoyaltyOverride",
      "type": "event"
    },
    {
      "inputs": [
        {
          "internalType": "address",
          "name": "tokenAddress",
          "type": "address"
        },
        {
          "internalType": "uint256",
          "name": "tokenId",
          "type": "uint256"
        },
        {
          "internalType": "uint256",
          "name": "value",
          "type": "uint256"
        }
      ],
      "name": "getRoyalty",
      "outputs": [
        {
          "internalType": "address payable[]",
          "name": "recipients",
          "type": "address[]"
        },
        {
          "internalType": "uint256[]",
          "name": "amounts",
          "type": "uint256[]"
        }
      ],
      "stateMutability": "view",
      "type": "function"
    },
    {
      "inputs": [],
      "name": "initialize",
      "outputs": [],
      "stateMutability": "nonpayable",
      "type": "function"
    },
    {
      "inputs": [
        {
          "internalType": "address",
          "name": "tokenAddress",
          "type": "address"
        },
        {
          "internalType": "address",
          "name": "royaltyAddress",
          "type": "address"
        }
      ],
      "name": "overrideAddress",
      "outputs": [],
      "stateMutability": "nonpayable",
      "type": "function"
    },
    {
      "inputs": [],
      "name": "owner",
      "outputs": [
        {
          "internalType": "address",
          "name": "",
          "type": "address"
        }
      ],
      "stateMutability": "view",
      "type": "function"
    },
    {
      "inputs": [],
      "name": "renounceOwnership",
      "outputs": [],
      "stateMutability": "nonpayable",
      "type": "function"
    },
    {
      "inputs": [
        {
          "internalType": "bytes4",
          "name": "interfaceId",
          "type": "bytes4"
        }
      ],
      "name": "supportsInterface",
      "outputs": [
        {
          "internalType": "bool",
          "name": "",
          "type": "bool"
        }
      ],
      "stateMutability": "view",
      "type": "function"
    },
    {
      "inputs": [
        {
          "internalType": "address",
          "name": "newOwner",
          "type": "address"
        }
      ],
      "name": "transferOwnership",
      "outputs": [],
      "stateMutability": "nonpayable",
      "type": "function"
    }
  ],
  "bytecode": "0x608060405234801561001057600080fd5b506125b6806100206000396000f3fe608060405234801561001057600080fd5b506004361061007d5760003560e01c80638129fc1c1161005b5780638129fc1c146100d85780638da5cb5b146100e2578063f2fde38b14610100578063f533b8021461011c5761007d565b806301ffc9a7146100825780633a39ec85146100b2578063715018a6146100ce575b600080fd5b61009c60048036038101906100979190611bcf565b61014d565b6040516100a99190611ee7565b60405180910390f35b6100cc60048036038101906100c791906119b0565b6101c7565b005b6100d6610446565b005b6100e06104ce565b005b6100ea6105af565b6040516100f79190611e35565b60405180910390f35b61011a6004803603810190610115919061195e565b6105d9565b005b61013660048036038101906101319190611a28565b6106d1565b604051610144929190611eb0565b60405180910390f35b60007fcf0a5487000000000000000000000000000000000000000000000000000000007bffffffffffffffffffffffffffffffffffffffffffffffffffffffff1916827bffffffffffffffffffffffffffffffffffffffffffffffffffffffff191614806101c057506101bf8261119f565b5b9050919050565b6101e68273ffffffffffffffffffffffffffffffffffffffff16611209565b801561020d575061020c8173ffffffffffffffffffffffffffffffffffffffff16611209565b5b61024c576040517f08c379a000000000000000000000000000000000000000000000000000000000815260040161024390611f9d565b60405180910390fd5b61025461121c565b73ffffffffffffffffffffffffffffffffffffffff166102726105af565b73ffffffffffffffffffffffffffffffffffffffff161480610343575061029761121c565b73ffffffffffffffffffffffffffffffffffffffff168273ffffffffffffffffffffffffffffffffffffffff16638da5cb5b6040518163ffffffff1660e01b815260040160206040518083038186803b1580156102f357600080fd5b505afa158015610307573d6000803e3d6000fd5b505050506040513d601f19601f8201168201806040525081019061032b9190611987565b73ffffffffffffffffffffffffffffffffffffffff16145b610382576040517f08c379a000000000000000000000000000000000000000000000000000000000815260040161037990611f5d565b60405180910390fd5b80606560008473ffffffffffffffffffffffffffffffffffffffff1673ffffffffffffffffffffffffffffffffffffffff16815260200190815260200160002060006101000a81548173ffffffffffffffffffffffffffffffffffffffff021916908373ffffffffffffffffffffffffffffffffffffffff1602179055507f22fb05840ad0d4b2be640c56e11065f26b799d2918d8f81190416f62b154b9c661042961121c565b838360405161043a93929190611e50565b60405180910390a15050565b61044e61121c565b73ffffffffffffffffffffffffffffffffffffffff1661046c6105af565b73ffffffffffffffffffffffffffffffffffffffff16146104c2576040517f08c379a00000000000000000000000000000000000000000000000000000000081526004016104b990611f7d565b60405180910390fd5b6104cc6000611224565b565b600060019054906101000a900460ff16806104f4575060008054906101000a900460ff16155b610533576040517f08c379a000000000000000000000000000000000000000000000000000000000815260040161052a90611f3d565b60405180910390fd5b60008060019054906101000a900460ff161590508015610583576001600060016101000a81548160ff02191690831515021790555060016000806101000a81548160ff0219169083151502179055505b61058b6112ea565b80156105ac5760008060016101000a81548160ff0219169083151502179055505b50565b6000603360009054906101000a900473ffffffffffffffffffffffffffffffffffffffff16905090565b6105e161121c565b73ffffffffffffffffffffffffffffffffffffffff166105ff6105af565b73ffffffffffffffffffffffffffffffffffffffff1614610655576040517f08c379a000000000000000000000000000000000000000000000000000000000815260040161064c90611f7d565b60405180910390fd5b600073ffffffffffffffffffffffffffffffffffffffff168173ffffffffffffffffffffffffffffffffffffffff1614156106c5576040517f08c379a00000000000000000000000000000000000000000000000000000000081526004016106bc90611f1d565b60405180910390fd5b6106ce81611224565b50565b6060806000859050600073ffffffffffffffffffffffffffffffffffffffff16606560008873ffffffffffffffffffffffffffffffffffffffff1673ffffffffffffffffffffffffffffffffffffffff16815260200190815260200160002060009054906101000a900473ffffffffffffffffffffffffffffffffffffffff1673ffffffffffffffffffffffffffffffffffffffff16146107cf57606560008773ffffffffffffffffffffffffffffffffffffffff1673ffffffffffffffffffffffffffffffffffffffff16815260200190815260200160002060009054906101000a900473ffffffffffffffffffffffffffffffffffffffff1695505b6107f9867fbb3bafd6000000000000000000000000000000000000000000000000000000006113d3565b156108ba5760608673ffffffffffffffffffffffffffffffffffffffff1663bb3bafd6876040518263ffffffff1660e01b81526004016108399190611fbd565b60006040518083038186803b15801561085157600080fd5b505afa158015610865573d6000803e3d6000fd5b505050506040513d6000823e3d601f19601f8201168201806040525081019061088e9190611ab8565b809250819550505080518451146108a457600080fd5b836108af86836113f8565b935093505050611197565b6108e4867fcad96cca000000000000000000000000000000000000000000000000000000006113d3565b15610bee5760008673ffffffffffffffffffffffffffffffffffffffff1663cad96cca876040518263ffffffff1660e01b81526004016109249190611fbd565b60006040518083038186803b15801561093c57600080fd5b505afa158015610950573d6000803e3d6000fd5b505050506040513d6000823e3d601f19601f820116820180604052508101906109799190611b24565b9050805167ffffffffffffffff8111156109bc577f4e487b7100000000000000000000000000000000000000000000000000000000600052604160045260246000fd5b6040519080825280602002602001820160405280156109ea5781602001602082028036833780820191505090505b509350805167ffffffffffffffff811115610a2e577f4e487b7100000000000000000000000000000000000000000000000000000000600052604160045260246000fd5b604051908082528060200260200182016040528015610a5c5781602001602082028036833780820191505090505b50925060005b8151811015610be657818181518110610aa4577f4e487b7100000000000000000000000000000000000000000000000000000000600052603260045260246000fd5b602002602001015160000151858281518110610ae9577f4e487b7100000000000000000000000000000000000000000000000000000000600052603260045260246000fd5b602002602001019073ffffffffffffffffffffffffffffffffffffffff16908173ffffffffffffffffffffffffffffffffffffffff1681525050612710828281518110610b5f577f4e487b7100000000000000000000000000000000000000000000000000000000600052603260045260246000fd5b6020026020010151602001516bffffffffffffffffffffffff1687610b849190612174565b610b8e9190612143565b848281518110610bc7577f4e487b7100000000000000000000000000000000000000000000000000000000600052603260045260246000fd5b6020026020010181815250508080610bde906122d0565b915050610a62565b505050611197565b610c18867fb7799584000000000000000000000000000000000000000000000000000000006113d3565b15610d63578573ffffffffffffffffffffffffffffffffffffffff1663b9c4d9fb866040518263ffffffff1660e01b8152600401610c569190611fbd565b60006040518083038186803b158015610c6e57600080fd5b505afa158015610c82573d6000803e3d6000fd5b505050506040513d6000823e3d601f19601f82011682018060405250810190610cab9190611a77565b925060008673ffffffffffffffffffffffffffffffffffffffff16630ebd4c7f876040518263ffffffff1660e01b8152600401610ce89190611fbd565b60006040518083038186803b158015610d0057600080fd5b505afa158015610d14573d6000803e3d6000fd5b505050506040513d6000823e3d601f19601f82011682018060405250810190610d3d9190611b65565b90508051845114610d4d57600080fd5b83610d5886836113f8565b935093505050611197565b610d8d867fd5a06d4c000000000000000000000000000000000000000000000000000000006113d3565b15610e4e5760608673ffffffffffffffffffffffffffffffffffffffff1663d5a06d4c876040518263ffffffff1660e01b8152600401610dcd9190611fbd565b60006040518083038186803b158015610de557600080fd5b505afa158015610df9573d6000803e3d6000fd5b505050506040513d6000823e3d601f19601f82011682018060405250810190610e229190611ab8565b80925081955050508051845114610e3857600080fd5b83610e4386836113f8565b935093505050611197565b610e78867f2a55205a000000000000000000000000000000000000000000000000000000006113d3565b156110b5576000808773ffffffffffffffffffffffffffffffffffffffff16632a55205a88886040518363ffffffff1660e01b8152600401610ebb929190611fd8565b604080518083038186803b158015610ed257600080fd5b505afa158015610ee6573d6000803e3d6000fd5b505050506040513d601f19601f82011682018060405250810190610f0a91906119ec565b91509150600167ffffffffffffffff811115610f4f577f4e487b7100000000000000000000000000000000000000000000000000000000600052604160045260246000fd5b604051908082528060200260200182016040528015610f7d5781602001602082028036833780820191505090505b509450600167ffffffffffffffff811115610fc1577f4e487b7100000000000000000000000000000000000000000000000000000000600052604160045260246000fd5b604051908082528060200260200182016040528015610fef5781602001602082028036833780820191505090505b509350818560008151811061102d577f4e487b7100000000000000000000000000000000000000000000000000000000600052603260045260246000fd5b602002602001019073ffffffffffffffffffffffffffffffffffffffff16908173ffffffffffffffffffffffffffffffffffffffff168152505080846000815181106110a2577f4e487b7100000000000000000000000000000000000000000000000000000000600052603260045260246000fd5b6020026020010181815250505050611195565b6110df867ff6622074000000000000000000000000000000000000000000000000000000006113d3565b156111945760608673ffffffffffffffffffffffffffffffffffffffff1663f662207483886040518363ffffffff1660e01b8152600401611121929190611e87565b60006040518083038186803b15801561113957600080fd5b505afa15801561114d573d6000803e3d6000fd5b505050506040513d6000823e3d601f19601f820116820180604052508101906111769190611ab8565b80925081955050508361118986836113f8565b935093505050611197565b5b505b935093915050565b60007f01ffc9a7000000000000000000000000000000000000000000000000000000007bffffffffffffffffffffffffffffffffffffffffffffffffffffffff1916827bffffffffffffffffffffffffffffffffffffffffffffffffffffffff1916149050919050565b600080823b905060008111915050919050565b600033905090565b6000603360009054906101000a900473ffffffffffffffffffffffffffffffffffffffff16905081603360006101000a81548173ffffffffffffffffffffffffffffffffffffffff021916908373ffffffffffffffffffffffffffffffffffffffff1602179055508173ffffffffffffffffffffffffffffffffffffffff168173ffffffffffffffffffffffffffffffffffffffff167f8be0079c531659141344cd1fd0a4f28419497f9722a3daafe3b4186f6b6457e060405160405180910390a35050565b600060019054906101000a900460ff1680611310575060008054906101000a900460ff16155b61134f576040517f08c379a000000000000000000000000000000000000000000000000000000000815260040161134690611f3d565b60405180910390fd5b60008060019054906101000a900460ff16159050801561139f576001600060016101000a81548160ff02191690831515021790555060016000806101000a81548160ff0219169083151502179055505b6113af6113aa61121c565b611224565b80156113d05760008060016101000a81548160ff0219169083151502179055505b50565b60006113de83611530565b80156113f057506113ef838361157d565b5b905092915050565b6060815167ffffffffffffffff81111561143b577f4e487b7100000000000000000000000000000000000000000000000000000000600052604160045260246000fd5b6040519080825280602002602001820160405280156114695781602001602082028036833780820191505090505b50905060005b8251811015611529576127108382815181106114b4577f4e487b7100000000000000000000000000000000000000000000000000000000600052603260045260246000fd5b6020026020010151856114c79190612174565b6114d19190612143565b82828151811061150a577f4e487b7100000000000000000000000000000000000000000000000000000000600052603260045260246000fd5b6020026020010181815250508080611521906122d0565b91505061146f565b5092915050565b600061155c827f01ffc9a70000000000000000000000000000000000000000000000000000000061157d565b801561157657506115748263ffffffff60e01b61157d565b155b9050919050565b6000806301ffc9a760e01b836040516024016115999190611f02565b604051602081830303815290604052907bffffffffffffffffffffffffffffffffffffffffffffffffffffffff19166020820180517bffffffffffffffffffffffffffffffffffffffffffffffffffffffff838183161783525050505090506000808573ffffffffffffffffffffffffffffffffffffffff16617530846040516116239190611e1e565b6000604051808303818686fa925050503d806000811461165f576040519150601f19603f3d011682016040523d82523d6000602084013e611664565b606091505b509150915060208151101561167f57600093505050506116a2565b81801561169c57508080602001905181019061169b9190611ba6565b5b93505050505b92915050565b60006116bb6116b684612026565b612001565b905080838252602082019050828560208602820111156116da57600080fd5b60005b8581101561170a57816116f08882611816565b8452602084019350602083019250506001810190506116dd565b5050509392505050565b600061172761172284612052565b612001565b9050808382526020820190508285604086028201111561174657600080fd5b60005b85811015611776578161175c88826118d3565b845260208401935060408301925050600181019050611749565b5050509392505050565b600061179361178e8461207e565b612001565b905080838252602082019050828560208602820111156117b257600080fd5b60005b858110156117e257816117c88882611934565b8452602084019350602083019250506001810190506117b5565b5050509392505050565b6000813590506117fb816124f6565b92915050565b600081519050611810816124f6565b92915050565b6000815190506118258161250d565b92915050565b600082601f83011261183c57600080fd5b815161184c8482602086016116a8565b91505092915050565b600082601f83011261186657600080fd5b8151611876848260208601611714565b91505092915050565b600082601f83011261189057600080fd5b81516118a0848260208601611780565b91505092915050565b6000815190506118b881612524565b92915050565b6000813590506118cd8161253b565b92915050565b6000604082840312156118e557600080fd5b6118ef6040612001565b905060006118ff84828501611816565b600083015250602061191384828501611949565b60208301525092915050565b60008135905061192e81612552565b92915050565b60008151905061194381612552565b92915050565b60008151905061195881612569565b92915050565b60006020828403121561197057600080fd5b600061197e848285016117ec565b91505092915050565b60006020828403121561199957600080fd5b60006119a784828501611801565b91505092915050565b600080604083850312156119c357600080fd5b60006119d1858286016117ec565b92505060206119e2858286016117ec565b9150509250929050565b600080604083850312156119ff57600080fd5b6000611a0d85828601611801565b9250506020611a1e85828601611934565b9150509250929050565b600080600060608486031215611a3d57600080fd5b6000611a4b868287016117ec565b9350506020611a5c8682870161191f565b9250506040611a6d8682870161191f565b9150509250925092565b600060208284031215611a8957600080fd5b600082015167ffffffffffffffff811115611aa357600080fd5b611aaf8482850161182b565b91505092915050565b60008060408385031215611acb57600080fd5b600083015167ffffffffffffffff811115611ae557600080fd5b611af18582860161182b565b925050602083015167ffffffffffffffff811115611b0e57600080fd5b611b1a8582860161187f565b9150509250929050565b600060208284031215611b3657600080fd5b600082015167ffffffffffffffff811115611b5057600080fd5b611b5c84828501611855565b91505092915050565b600060208284031215611b7757600080fd5b600082015167ffffffffffffffff811115611b9157600080fd5b611b9d8482850161187f565b91505092915050565b600060208284031215611bb857600080fd5b6000611bc6848285016118a9565b91505092915050565b600060208284031215611be157600080fd5b6000611bef848285016118be565b91505092915050565b6000611c048383611c28565b60208301905092915050565b6000611c1c8383611e00565b60208301905092915050565b611c31816121e0565b82525050565b611c40816121ce565b82525050565b6000611c51826120ca565b611c5b8185612105565b9350611c66836120aa565b8060005b83811015611c97578151611c7e8882611bf8565b9750611c89836120eb565b925050600181019050611c6a565b5085935050505092915050565b6000611caf826120d5565b611cb98185612116565b9350611cc4836120ba565b8060005b83811015611cf5578151611cdc8882611c10565b9750611ce7836120f8565b925050600181019050611cc8565b5085935050505092915050565b611d0b816121f2565b82525050565b611d1a816121fe565b82525050565b6000611d2b826120e0565b611d358185612127565b9350611d4581856020860161226c565b80840191505092915050565b6000611d5e602683612132565b9150611d69826123b7565b604082019050919050565b6000611d81602e83612132565b9150611d8c82612406565b604082019050919050565b6000611da4602283612132565b9150611daf82612455565b604082019050919050565b6000611dc7602083612132565b9150611dd2826124a4565b602082019050919050565b6000611dea600d83612132565b9150611df5826124cd565b602082019050919050565b611e098161224a565b82525050565b611e188161224a565b82525050565b6000611e2a8284611d20565b915081905092915050565b6000602082019050611e4a6000830184611c37565b92915050565b6000606082019050611e656000830186611c37565b611e726020830185611c37565b611e7f6040830184611c37565b949350505050565b6000604082019050611e9c6000830185611c37565b611ea96020830184611e0f565b9392505050565b60006040820190508181036000830152611eca8185611c46565b90508181036020830152611ede8184611ca4565b90509392505050565b6000602082019050611efc6000830184611d02565b92915050565b6000602082019050611f176000830184611d11565b92915050565b60006020820190508181036000830152611f3681611d51565b9050919050565b60006020820190508181036000830152611f5681611d74565b9050919050565b60006020820190508181036000830152611f7681611d97565b9050919050565b60006020820190508181036000830152611f9681611dba565b9050919050565b60006020820190508181036000830152611fb681611ddd565b9050919050565b6000602082019050611fd26000830184611e0f565b92915050565b6000604082019050611fed6000830185611e0f565b611ffa6020830184611e0f565b9392505050565b600061200b61201c565b9050612017828261229f565b919050565b6000604051905090565b600067ffffffffffffffff82111561204157612040612377565b5b602082029050602081019050919050565b600067ffffffffffffffff82111561206d5761206c612377565b5b602082029050602081019050919050565b600067ffffffffffffffff82111561209957612098612377565b5b602082029050602081019050919050565b6000819050602082019050919050565b6000819050602082019050919050565b600081519050919050565b600081519050919050565b600081519050919050565b6000602082019050919050565b6000602082019050919050565b600082825260208201905092915050565b600082825260208201905092915050565b600081905092915050565b600082825260208201905092915050565b600061214e8261224a565b91506121598361224a565b92508261216957612168612348565b5b828204905092915050565b600061217f8261224a565b915061218a8361224a565b9250817fffffffffffffffffffffffffffffffffffffffffffffffffffffffffffffffff04831182151516156121c3576121c2612319565b5b828202905092915050565b60006121d98261222a565b9050919050565b60006121eb8261222a565b9050919050565b60008115159050919050565b60007fffffffff0000000000000000000000000000000000000000000000000000000082169050919050565b600073ffffffffffffffffffffffffffffffffffffffff82169050919050565b6000819050919050565b60006bffffffffffffffffffffffff82169050919050565b60005b8381101561228a57808201518184015260208101905061226f565b83811115612299576000848401525b50505050565b6122a8826123a6565b810181811067ffffffffffffffff821117156122c7576122c6612377565b5b80604052505050565b60006122db8261224a565b91507fffffffffffffffffffffffffffffffffffffffffffffffffffffffffffffffff82141561230e5761230d612319565b5b600182019050919050565b7f4e487b7100000000000000000000000000000000000000000000000000000000600052601160045260246000fd5b7f4e487b7100000000000000000000000000000000000000000000000000000000600052601260045260246000fd5b7f4e487b7100000000000000000000000000000000000000000000000000000000600052604160045260246000fd5b6000601f19601f8301169050919050565b7f4f776e61626c653a206e6577206f776e657220697320746865207a65726f206160008201527f6464726573730000000000000000000000000000000000000000000000000000602082015250565b7f496e697469616c697a61626c653a20636f6e747261637420697320616c72656160008201527f647920696e697469616c697a6564000000000000000000000000000000000000602082015250565b7f4d75737420626520636f6e7472616374206f776e657220746f206f766572726960008201527f6465000000000000000000000000000000000000000000000000000000000000602082015250565b7f4f776e61626c653a2063616c6c6572206973206e6f7420746865206f776e6572600082015250565b7f496e76616c696420696e70757400000000000000000000000000000000000000600082015250565b6124ff816121ce565b811461250a57600080fd5b50565b612516816121e0565b811461252157600080fd5b50565b61252d816121f2565b811461253857600080fd5b50565b612544816121fe565b811461254f57600080fd5b50565b61255b8161224a565b811461256657600080fd5b50565b61257281612254565b811461257d57600080fd5b5056fea264697066735822122040aad1039b7b62cd0d08a27a42b9d010016faf24015a5a4ab00cbfb66693bd6c64736f6c63430008040033",
  "linkReferences": {},
  "deployedLinkReferences": {}
}