{
  "_format": "hh-sol-artifact-1",
  "contractName": "DelfyNFT",
  "sourceName": "contracts/DelfyNft.sol",
  "abi": [
    {
      "inputs": [],
      "stateMutability": "nonpayable",
      "type": "constructor"
    },
    {
      "anonymous": false,
      "inputs": [
        {
          "indexed": false,
          "internalType": "address",
          "name": "sender",
          "type": "address"
        },
        {
          "indexed": false,
          "internalType": "address",
          "name": "newOwner",
          "type": "address"
        }
      ],
      "name": "AcceptPendingOwner",
      "type": "event"
    },
    {
      "anonymous": false,
      "inputs": [
        {
          "indexed": true,
          "internalType": "address",
          "name": "owner",
          "type": "address"
        },
        {
          "indexed": true,
          "internalType": "address",
          "name": "approved",
          "type": "address"
        },
        {
          "indexed": true,
          "internalType": "uint256",
          "name": "tokenId",
          "type": "uint256"
        }
      ],
      "name": "Approval",
      "type": "event"
    },
    {
      "anonymous": false,
      "inputs": [
        {
          "indexed": true,
          "internalType": "address",
          "name": "owner",
          "type": "address"
        },
        {
          "indexed": true,
          "internalType": "address",
          "name": "operator",
          "type": "address"
        },
        {
          "indexed": false,
          "internalType": "bool",
          "name": "approved",
          "type": "bool"
        }
      ],
      "name": "ApprovalForAll",
      "type": "event"
    },
    {
      "anonymous": false,
      "inputs": [
        {
          "indexed": false,
          "internalType": "address",
          "name": "sender",
          "type": "address"
        },
        {
          "indexed": false,
          "internalType": "address",
          "name": "newOwner",
          "type": "address"
        }
      ],
      "name": "ChangeOwner",
      "type": "event"
    },
    {
      "anonymous": false,
      "inputs": [
        {
          "indexed": true,
          "internalType": "address",
          "name": "prevMinter",
          "type": "address"
        },
        {
          "indexed": true,
          "internalType": "address",
          "name": "newMinter",
          "type": "address"
        }
      ],
      "name": "MinterAdded",
      "type": "event"
    },
    {
      "anonymous": false,
      "inputs": [
        {
          "indexed": true,
          "internalType": "address",
          "name": "oldAddress",
          "type": "address"
        },
        {
          "indexed": true,
          "internalType": "address",
          "name": "newAddress",
          "type": "address"
        }
      ],
      "name": "MinterAddressUpdated",
      "type": "event"
    },
    {
      "anonymous": false,
      "inputs": [
        {
          "indexed": true,
          "internalType": "address",
          "name": "previousOwner",
          "type": "address"
        },
        {
          "indexed": true,
          "internalType": "address",
          "name": "newOwner",
          "type": "address"
        }
      ],
      "name": "OwnershipTransferred",
      "type": "event"
    },
    {
      "anonymous": false,
      "inputs": [
        {
          "indexed": true,
          "internalType": "address",
          "name": "creator",
          "type": "address"
        },
        {
          "indexed": true,
          "internalType": "address",
          "name": "buyer",
          "type": "address"
        },
        {
          "indexed": true,
          "internalType": "uint256",
          "name": "amount",
          "type": "uint256"
        }
      ],
      "name": "RecievedRoyalties",
      "type": "event"
    },
    {
      "anonymous": false,
      "inputs": [
        {
          "indexed": false,
          "internalType": "address",
          "name": "sender",
          "type": "address"
        },
        {
          "indexed": false,
          "internalType": "address",
          "name": "newOwner",
          "type": "address"
        }
      ],
      "name": "RejectPendingOwner",
      "type": "event"
    },
    {
      "anonymous": false,
      "inputs": [
        {
          "indexed": true,
          "internalType": "address",
          "name": "sender",
          "type": "address"
        },
        {
          "indexed": true,
          "internalType": "address",
          "name": "minter",
          "type": "address"
        }
      ],
      "name": "RestoreMinter",
      "type": "event"
    },
    {
      "anonymous": false,
      "inputs": [
        {
          "indexed": true,
          "internalType": "address",
          "name": "sender",
          "type": "address"
        },
        {
          "indexed": true,
          "internalType": "address",
          "name": "minter",
          "type": "address"
        }
      ],
      "name": "RestrictMinter",
      "type": "event"
    },
    {
      "anonymous": false,
      "inputs": [
        {
          "indexed": false,
          "internalType": "address",
          "name": "minter",
          "type": "address"
        },
        {
          "indexed": false,
          "internalType": "uint256",
          "name": "tokenId",
          "type": "uint256"
        }
      ],
      "name": "RoyaltyUpdated",
      "type": "event"
    },
    {
      "anonymous": false,
      "inputs": [
        {
          "indexed": true,
          "internalType": "address",
          "name": "from",
          "type": "address"
        },
        {
          "indexed": true,
          "internalType": "address",
          "name": "to",
          "type": "address"
        },
        {
          "indexed": true,
          "internalType": "uint256",
          "name": "tokenId",
          "type": "uint256"
        }
      ],
      "name": "Transfer",
      "type": "event"
    },
    {
      "inputs": [],
      "name": "acceptPendingOwner",
      "outputs": [],
      "stateMutability": "nonpayable",
      "type": "function"
    },
    {
      "inputs": [
        {
          "internalType": "address",
          "name": "_minter",
          "type": "address"
        }
      ],
      "name": "addMinter",
      "outputs": [],
      "stateMutability": "nonpayable",
      "type": "function"
    },
    {
      "inputs": [
        {
          "internalType": "address",
          "name": "to",
          "type": "address"
        },
        {
          "internalType": "uint256",
          "name": "tokenId",
          "type": "uint256"
        }
      ],
      "name": "approve",
      "outputs": [],
      "stateMutability": "nonpayable",
      "type": "function"
    },
    {
      "inputs": [
        {
          "internalType": "address",
          "name": "owner",
          "type": "address"
        }
      ],
      "name": "balanceOf",
      "outputs": [
        {
          "internalType": "uint256",
          "name": "",
          "type": "uint256"
        }
      ],
      "stateMutability": "view",
      "type": "function"
    },
    {
      "inputs": [],
      "name": "baseURI",
      "outputs": [
        {
          "internalType": "string",
          "name": "",
          "type": "string"
        }
      ],
      "stateMutability": "view",
      "type": "function"
    },
    {
      "inputs": [
        {
          "internalType": "uint256",
          "name": "_tokenId",
          "type": "uint256"
        }
      ],
      "name": "burn",
      "outputs": [],
      "stateMutability": "nonpayable",
      "type": "function"
    },
    {
      "inputs": [
        {
          "internalType": "address",
          "name": "__owner",
          "type": "address"
        }
      ],
      "name": "changeOwner",
      "outputs": [],
      "stateMutability": "nonpayable",
      "type": "function"
    },
    {
      "inputs": [],
      "name": "changeOwnerDelay",
      "outputs": [
        {
          "internalType": "uint256",
          "name": "",
          "type": "uint256"
        }
      ],
      "stateMutability": "view",
      "type": "function"
    },
    {
      "inputs": [],
      "name": "delay",
      "outputs": [
        {
          "internalType": "uint256",
          "name": "",
          "type": "uint256"
        }
      ],
      "stateMutability": "pure",
      "type": "function"
    },
    {
      "inputs": [
        {
          "internalType": "uint256",
          "name": "tokenId",
          "type": "uint256"
        }
      ],
      "name": "getApproved",
      "outputs": [
        {
          "internalType": "address",
          "name": "",
          "type": "address"
        }
      ],
      "stateMutability": "view",
      "type": "function"
    },
    {
      "inputs": [
        {
          "internalType": "uint256",
          "name": "tokenId",
          "type": "uint256"
        }
      ],
      "name": "getRoyalties",
      "outputs": [
        {
          "internalType": "address payable[]",
          "name": "",
          "type": "address[]"
        },
        {
          "internalType": "uint256[]",
          "name": "",
          "type": "uint256[]"
        }
      ],
      "stateMutability": "view",
      "type": "function"
    },
    {
      "inputs": [
        {
          "internalType": "address",
          "name": "owner",
          "type": "address"
        },
        {
          "internalType": "address",
          "name": "operator",
          "type": "address"
        }
      ],
      "name": "isApprovedForAll",
      "outputs": [
        {
          "internalType": "bool",
          "name": "",
          "type": "bool"
        }
      ],
      "stateMutability": "view",
      "type": "function"
    },
    {
      "inputs": [
        {
          "internalType": "address",
          "name": "",
          "type": "address"
        }
      ],
      "name": "isMinter",
      "outputs": [
        {
          "internalType": "bool",
          "name": "",
          "type": "bool"
        }
      ],
      "stateMutability": "view",
      "type": "function"
    },
    {
      "inputs": [
        {
          "internalType": "address",
          "name": "",
          "type": "address"
        },
        {
          "internalType": "uint256",
          "name": "",
          "type": "uint256"
        }
      ],
      "name": "isRoyalty",
      "outputs": [
        {
          "internalType": "bool",
          "name": "",
          "type": "bool"
        }
      ],
      "stateMutability": "view",
      "type": "function"
    },
    {
      "inputs": [
        {
          "internalType": "address",
          "name": "to",
          "type": "address"
        },
        {
          "internalType": "string",
          "name": "tokenURI",
          "type": "string"
        }
      ],
      "name": "mint",
      "outputs": [
        {
          "internalType": "uint256",
          "name": "",
          "type": "uint256"
        }
      ],
      "stateMutability": "nonpayable",
      "type": "function"
    },
    {
      "inputs": [
        {
          "internalType": "address",
          "name": "to",
          "type": "address"
        },
        {
          "internalType": "string",
          "name": "tokenURI",
          "type": "string"
        },
        {
          "internalType": "address payable[]",
          "name": "royaltyAddrs",
          "type": "address[]"
        },
        {
          "internalType": "uint256[]",
          "name": "royaltyShares",
          "type": "uint256[]"
        }
      ],
      "name": "mintWithRoyalty",
      "outputs": [
        {
          "internalType": "uint256",
          "name": "",
          "type": "uint256"
        }
      ],
      "stateMutability": "nonpayable",
      "type": "function"
    },
    {
      "inputs": [],
      "name": "name",
      "outputs": [
        {
          "internalType": "string",
          "name": "",
          "type": "string"
        }
      ],
      "stateMutability": "view",
      "type": "function"
    },
    {
      "inputs": [
        {
          "internalType": "address",
          "name": "",
          "type": "address"
        }
      ],
      "name": "nonces",
      "outputs": [
        {
          "internalType": "uint256",
          "name": "",
          "type": "uint256"
        }
      ],
      "stateMutability": "view",
      "type": "function"
    },
    {
      "inputs": [],
      "name": "owner",
      "outputs": [
        {
          "internalType": "address",
          "name": "",
          "type": "address"
        }
      ],
      "stateMutability": "view",
      "type": "function"
    },
    {
      "inputs": [
        {
          "internalType": "uint256",
          "name": "tokenId",
          "type": "uint256"
        }
      ],
      "name": "ownerOf",
      "outputs": [
        {
          "internalType": "address",
          "name": "",
          "type": "address"
        }
      ],
      "stateMutability": "view",
      "type": "function"
    },
    {
      "inputs": [],
      "name": "pendinOwner",
      "outputs": [
        {
          "internalType": "address",
          "name": "",
          "type": "address"
        }
      ],
      "stateMutability": "view",
      "type": "function"
    },
    {
      "inputs": [
        {
          "internalType": "address",
          "name": "",
          "type": "address"
        }
      ],
      "name": "referredBy",
      "outputs": [
        {
          "internalType": "address",
          "name": "",
          "type": "address"
        }
      ],
      "stateMutability": "view",
      "type": "function"
    },
    {
      "inputs": [
        {
          "internalType": "address",
          "name": "newMinter",
          "type": "address"
        }
      ],
      "name": "registerNewMinter",
      "outputs": [],
      "stateMutability": "nonpayable",
      "type": "function"
    },
    {
      "inputs": [],
      "name": "rejectPendingOwner",
      "outputs": [],
      "stateMutability": "nonpayable",
      "type": "function"
    },
    {
      "inputs": [
        {
          "internalType": "address",
          "name": "minter",
          "type": "address"
        }
      ],
      "name": "restoreMinter",
      "outputs": [],
      "stateMutability": "nonpayable",
      "type": "function"
    },
    {
      "inputs": [
        {
          "internalType": "address",
          "name": "_minter",
          "type": "address"
        }
      ],
      "name": "restrictMinter",
      "outputs": [],
      "stateMutability": "nonpayable",
      "type": "function"
    },
    {
      "inputs": [
        {
          "internalType": "address",
          "name": "from",
          "type": "address"
        },
        {
          "internalType": "address",
          "name": "to",
          "type": "address"
        },
        {
          "internalType": "uint256",
          "name": "tokenId",
          "type": "uint256"
        }
      ],
      "name": "safeTransferFrom",
      "outputs": [],
      "stateMutability": "nonpayable",
      "type": "function"
    },
    {
      "inputs": [
        {
          "internalType": "address",
          "name": "from",
          "type": "address"
        },
        {
          "internalType": "address",
          "name": "to",
          "type": "address"
        },
        {
          "internalType": "uint256",
          "name": "tokenId",
          "type": "uint256"
        },
        {
          "internalType": "bytes",
          "name": "_data",
          "type": "bytes"
        }
      ],
      "name": "safeTransferFrom",
      "outputs": [],
      "stateMutability": "nonpayable",
      "type": "function"
    },
    {
      "inputs": [
        {
          "internalType": "address",
          "name": "operator",
          "type": "address"
        },
        {
          "internalType": "bool",
          "name": "approved",
          "type": "bool"
        }
      ],
      "name": "setApprovalForAll",
      "outputs": [],
      "stateMutability": "nonpayable",
      "type": "function"
    },
    {
      "inputs": [
        {
          "internalType": "bytes4",
          "name": "interfaceId",
          "type": "bytes4"
        }
      ],
      "name": "supportsInterface",
      "outputs": [
        {
          "internalType": "bool",
          "name": "",
          "type": "bool"
        }
      ],
      "stateMutability": "view",
      "type": "function"
    },
    {
      "inputs": [],
      "name": "symbol",
      "outputs": [
        {
          "internalType": "string",
          "name": "",
          "type": "string"
        }
      ],
      "stateMutability": "view",
      "type": "function"
    },
    {
      "inputs": [
        {
          "internalType": "uint256",
          "name": "index",
          "type": "uint256"
        }
      ],
      "name": "tokenByIndex",
      "outputs": [
        {
          "internalType": "uint256",
          "name": "",
          "type": "uint256"
        }
      ],
      "stateMutability": "view",
      "type": "function"
    },
    {
      "inputs": [
        {
          "internalType": "address",
          "name": "owner",
          "type": "address"
        },
        {
          "internalType": "uint256",
          "name": "index",
          "type": "uint256"
        }
      ],
      "name": "tokenOfOwnerByIndex",
      "outputs": [
        {
          "internalType": "uint256",
          "name": "",
          "type": "uint256"
        }
      ],
      "stateMutability": "view",
      "type": "function"
    },
    {
      "inputs": [
        {
          "internalType": "uint256",
          "name": "tokenId",
          "type": "uint256"
        }
      ],
      "name": "tokenURI",
      "outputs": [
        {
          "internalType": "string",
          "name": "",
          "type": "string"
        }
      ],
      "stateMutability": "view",
      "type": "function"
    },
    {
      "inputs": [],
      "name": "totalSupply",
      "outputs": [
        {
          "internalType": "uint256",
          "name": "",
          "type": "uint256"
        }
      ],
      "stateMutability": "view",
      "type": "function"
    },
    {
      "inputs": [
        {
          "internalType": "address",
          "name": "from",
          "type": "address"
        },
        {
          "internalType": "address",
          "name": "to",
          "type": "address"
        },
        {
          "internalType": "uint256",
          "name": "tokenId",
          "type": "uint256"
        }
      ],
      "name": "transferFrom",
      "outputs": [],
      "stateMutability": "nonpayable",
      "type": "function"
    },
    {
      "inputs": [
        {
          "internalType": "address",
          "name": "newAddr",
          "type": "address"
        }
      ],
      "name": "updateMinterAddress",
      "outputs": [],
      "stateMutability": "nonpayable",
      "type": "function"
    },
    {
      "inputs": [
        {
          "internalType": "uint256",
          "name": "tokenId",
          "type": "uint256"
        },
        {
          "internalType": "address payable[]",
          "name": "royaltyAddrs",
          "type": "address[]"
        },
        {
          "internalType": "uint256[]",
          "name": "royaltyShares",
          "type": "uint256[]"
        }
      ],
      "name": "updateRoyalty",
      "outputs": [],
      "stateMutability": "nonpayable",
      "type": "function"
    }
  ],
  "bytecode": "0x60806040523480156200001157600080fd5b506040518060400160405280600981526020017f44656c6679204e465400000000000000000000000000000000000000000000008152506040518060400160405280600881526020017f44656c66794e4654000000000000000000000000000000000000000000000000815250620000966301ffc9a760e01b6200024060201b60201c565b8160069080519060200190620000ae9291906200036d565b508060079080519060200190620000c79291906200036d565b50620000e06380ac58cd60e01b6200024060201b60201c565b620000f8635b5e139f60e01b6200024060201b60201c565b6200011063780e9d6360e01b6200024060201b60201c565b50506000620001246200034960201b60201c565b905080600a60006101000a81548173ffffffffffffffffffffffffffffffffffffffff021916908373ffffffffffffffffffffffffffffffffffffffff1602179055508073ffffffffffffffffffffffffffffffffffffffff16600073ffffffffffffffffffffffffffffffffffffffff167f8be0079c531659141344cd1fd0a4f28419497f9722a3daafe3b4186f6b6457e060405160405180910390a350620002096040518060400160405280600d81526020017f697066732e696f2f697066732f000000000000000000000000000000000000008152506200035160201b60201c565b6200023a7fbb3bafd661ef16e4cad6fd450e2b9a553fdf124b7ef7ca4dc2b40dafb00030f76200024060201b60201c565b62000423565b63ffffffff60e01b817bffffffffffffffffffffffffffffffffffffffffffffffffffffffff19161415620002dd576040517f08c379a000000000000000000000000000000000000000000000000000000000815260040180806020018281038252601c8152602001807f4552433136353a20696e76616c696420696e746572666163652069640000000081525060200191505060405180910390fd5b6001600080837bffffffffffffffffffffffffffffffffffffffffffffffffffffffff19167bffffffffffffffffffffffffffffffffffffffffffffffffffffffff1916815260200190815260200160002060006101000a81548160ff02191690831515021790555050565b600033905090565b8060099080519060200190620003699291906200036d565b5050565b828054600181600116156101000203166002900490600052602060002090601f016020900481019282620003a55760008555620003f1565b82601f10620003c057805160ff1916838001178555620003f1565b82800160010185558215620003f1579182015b82811115620003f0578251825591602001919060010190620003d3565b5b50905062000400919062000404565b5090565b5b808211156200041f57600081600090555060010162000405565b5090565b61568880620004336000396000f3fe608060405234801561001057600080fd5b50600436106102325760003560e01c806370a0823111610130578063a27b065c116100b8578063bb3bafd61161007c578063bb3bafd614610e59578063c87b56dd14610f24578063d0def52114610fcb578063e2ab5a5214611078578063e985e9c5146110bc57610232565b8063a27b065c14610c14578063a6f9dae114610c48578063a90f8e9a14610c8c578063aa271e1a14610cfa578063b88d4fde14610d5457610232565b80638e375119116100ff5780638e37511914610ae957806395d89b4114610af3578063983b2d5614610b7657806399f4a38914610bba578063a22cb46514610bc457610232565b806370a08231146108ae57806371fefb69146109065780637ecebe0014610a5d5780638da5cb5b14610ab557610232565b80632fcfb95a116101be57806356d828e41161018257806356d828e4146107535780635ca28037146107715780636352211e146107b55780636a42b8f81461080d5780636c0360eb1461082b57610232565b80632fcfb95a146105ed57806342842e0e1461063157806342966c681461069f5780634f6ccce7146106cd57806353e73c8d1461070f57610232565b80631708b413116102055780631708b413146103c357806318160ddd1461049b57806318566992146104b957806323b872dd1461051d5780632f745c591461058b57610232565b806301ffc9a71461023757806306fdde031461029a578063081812fc1461031d578063095ea7b314610375575b600080fd5b6102826004803603602081101561024d57600080fd5b8101908080357bffffffffffffffffffffffffffffffffffffffffffffffffffffffff19169060200190929190505050611136565b60405180821515815260200191505060405180910390f35b6102a261119d565b6040518080602001828103825283818151815260200191508051906020019080838360005b838110156102e25780820151818401526020810190506102c7565b50505050905090810190601f16801561030f5780820380516001836020036101000a031916815260200191505b509250505060405180910390f35b6103496004803603602081101561033357600080fd5b810190808035906020019092919050505061123f565b604051808273ffffffffffffffffffffffffffffffffffffffff16815260200191505060405180910390f35b6103c16004803603604081101561038b57600080fd5b81019080803573ffffffffffffffffffffffffffffffffffffffff169060200190929190803590602001909291905050506112da565b005b610499600480360360608110156103d957600080fd5b81019080803590602001909291908035906020019064010000000081111561040057600080fd5b82018360208201111561041257600080fd5b8035906020019184602083028401116401000000008311171561043457600080fd5b90919293919293908035906020019064010000000081111561045557600080fd5b82018360208201111561046757600080fd5b8035906020019184602083028401116401000000008311171561048957600080fd5b909192939192939050505061141e565b005b6104a361172a565b6040518082815260200191505060405180910390f35b610505600480360360408110156104cf57600080fd5b81019080803573ffffffffffffffffffffffffffffffffffffffff1690602001909291908035906020019092919050505061173b565b60405180821515815260200191505060405180910390f35b6105896004803603606081101561053357600080fd5b81019080803573ffffffffffffffffffffffffffffffffffffffff169060200190929190803573ffffffffffffffffffffffffffffffffffffffff1690602001909291908035906020019092919050505061176a565b005b6105d7600480360360408110156105a157600080fd5b81019080803573ffffffffffffffffffffffffffffffffffffffff169060200190929190803590602001909291905050506117e0565b6040518082815260200191505060405180910390f35b61062f6004803603602081101561060357600080fd5b81019080803573ffffffffffffffffffffffffffffffffffffffff16906020019092919050505061183b565b005b61069d6004803603606081101561064757600080fd5b81019080803573ffffffffffffffffffffffffffffffffffffffff169060200190929190803573ffffffffffffffffffffffffffffffffffffffff16906020019092919080359060200190929190505050611b59565b005b6106cb600480360360208110156106b557600080fd5b8101908080359060200190929190505050611b79565b005b6106f9600480360360208110156106e357600080fd5b8101908080359060200190929190505050611c8d565b6040518082815260200191505060405180910390f35b6107516004803603602081101561072557600080fd5b81019080803573ffffffffffffffffffffffffffffffffffffffff169060200190929190505050611cb0565b005b61075b611d73565b6040518082815260200191505060405180910390f35b6107b36004803603602081101561078757600080fd5b81019080803573ffffffffffffffffffffffffffffffffffffffff169060200190929190505050611d7d565b005b6107e1600480360360208110156107cb57600080fd5b8101908080359060200190929190505050611e40565b604051808273ffffffffffffffffffffffffffffffffffffffff16815260200191505060405180910390f35b610815611e77565b6040518082815260200191505060405180910390f35b610833611e82565b6040518080602001828103825283818151815260200191508051906020019080838360005b83811015610873578082015181840152602081019050610858565b50505050905090810190601f1680156108a05780820380516001836020036101000a031916815260200191505b509250505060405180910390f35b6108f0600480360360208110156108c457600080fd5b81019080803573ffffffffffffffffffffffffffffffffffffffff169060200190929190505050611f24565b6040518082815260200191505060405180910390f35b610a476004803603608081101561091c57600080fd5b81019080803573ffffffffffffffffffffffffffffffffffffffff1690602001909291908035906020019064010000000081111561095957600080fd5b82018360208201111561096b57600080fd5b8035906020019184600183028401116401000000008311171561098d57600080fd5b9091929391929390803590602001906401000000008111156109ae57600080fd5b8201836020820111156109c057600080fd5b803590602001918460208302840111640100000000831117156109e257600080fd5b909192939192939080359060200190640100000000811115610a0357600080fd5b820183602082011115610a1557600080fd5b80359060200191846020830284011164010000000083111715610a3757600080fd5b9091929391929390505050611ff9565b6040518082815260200191505060405180910390f35b610a9f60048036036020811015610a7357600080fd5b81019080803573ffffffffffffffffffffffffffffffffffffffff1690602001909291905050506123ad565b6040518082815260200191505060405180910390f35b610abd6123c5565b604051808273ffffffffffffffffffffffffffffffffffffffff16815260200191505060405180910390f35b610af16123ef565b005b610afb6125d5565b6040518080602001828103825283818151815260200191508051906020019080838360005b83811015610b3b578082015181840152602081019050610b20565b50505050905090810190601f168015610b685780820380516001836020036101000a031916815260200191505b509250505060405180910390f35b610bb860048036036020811015610b8c57600080fd5b81019080803573ffffffffffffffffffffffffffffffffffffffff169060200190929190505050612677565b005b610bc261273a565b005b610c1260048036036040811015610bda57600080fd5b81019080803573ffffffffffffffffffffffffffffffffffffffff1690602001909291908035151590602001909291905050506129ab565b005b610c1c612b61565b604051808273ffffffffffffffffffffffffffffffffffffffff16815260200191505060405180910390f35b610c8a60048036036020811015610c5e57600080fd5b81019080803573ffffffffffffffffffffffffffffffffffffffff169060200190929190505050612b8b565b005b610cce60048036036020811015610ca257600080fd5b81019080803573ffffffffffffffffffffffffffffffffffffffff169060200190929190505050612d17565b604051808273ffffffffffffffffffffffffffffffffffffffff16815260200191505060405180910390f35b610d3c60048036036020811015610d1057600080fd5b81019080803573ffffffffffffffffffffffffffffffffffffffff169060200190929190505050612d4a565b60405180821515815260200191505060405180910390f35b610e5760048036036080811015610d6a57600080fd5b81019080803573ffffffffffffffffffffffffffffffffffffffff169060200190929190803573ffffffffffffffffffffffffffffffffffffffff1690602001909291908035906020019092919080359060200190640100000000811115610dd157600080fd5b820183602082011115610de357600080fd5b80359060200191846001830284011164010000000083111715610e0557600080fd5b91908080601f016020809104026020016040519081016040528093929190818152602001838380828437600081840152601f19601f820116905080830192505050505050509192919290505050612d6a565b005b610e8560048036036020811015610e6f57600080fd5b8101908080359060200190929190505050612de2565b604051808060200180602001838103835285818151815260200191508051906020019060200280838360005b83811015610ecc578082015181840152602081019050610eb1565b50505050905001838103825284818151815260200191508051906020019060200280838360005b83811015610f0e578082015181840152602081019050610ef3565b5050505090500194505050505060405180910390f35b610f5060048036036020811015610f3a57600080fd5b8101908080359060200190929190505050612eee565b6040518080602001828103825283818151815260200191508051906020019080838360005b83811015610f90578082015181840152602081019050610f75565b50505050905090810190601f168015610fbd5780820380516001836020036101000a031916815260200191505b509250505060405180910390f35b61106260048036036040811015610fe157600080fd5b81019080803573ffffffffffffffffffffffffffffffffffffffff1690602001909291908035906020019064010000000081111561101e57600080fd5b82018360208201111561103057600080fd5b8035906020019184600183028401116401000000008311171561105257600080fd5b90919293919293905050506131bf565b6040518082815260200191505060405180910390f35b6110ba6004803603602081101561108e57600080fd5b81019080803573ffffffffffffffffffffffffffffffffffffffff1690602001909291905050506133ce565b005b61111e600480360360408110156110d257600080fd5b81019080803573ffffffffffffffffffffffffffffffffffffffff169060200190929190803573ffffffffffffffffffffffffffffffffffffffff1690602001909291905050506134a8565b60405180821515815260200191505060405180910390f35b6000806000837bffffffffffffffffffffffffffffffffffffffffffffffffffffffff19167bffffffffffffffffffffffffffffffffffffffffffffffffffffffff1916815260200190815260200160002060009054906101000a900460ff169050919050565b606060068054600181600116156101000203166002900480601f0160208091040260200160405190810160405280929190818152602001828054600181600116156101000203166002900480156112355780601f1061120a57610100808354040283529160200191611235565b820191906000526020600020905b81548152906001019060200180831161121857829003601f168201915b5050505050905090565b600061124a8261353c565b61129f576040517f08c379a000000000000000000000000000000000000000000000000000000000815260040180806020018281038252602c815260200180615507602c913960400191505060405180910390fd5b6004600083815260200190815260200160002060009054906101000a900473ffffffffffffffffffffffffffffffffffffffff169050919050565b60006112e582611e40565b90508073ffffffffffffffffffffffffffffffffffffffff168373ffffffffffffffffffffffffffffffffffffffff16141561136c576040517f08c379a00000000000000000000000000000000000000000000000000000000081526004018080602001828103825260218152602001806155e06021913960400191505060405180910390fd5b8073ffffffffffffffffffffffffffffffffffffffff1661138b613559565b73ffffffffffffffffffffffffffffffffffffffff1614806113ba57506113b9816113b4613559565b6134a8565b5b61140f576040517f08c379a000000000000000000000000000000000000000000000000000000000815260040180806020018281038252603881526020018061542e6038913960400191505060405180910390fd5b6114198383613561565b505050565b84600061142a82611e40565b90508073ffffffffffffffffffffffffffffffffffffffff1661144b613559565b73ffffffffffffffffffffffffffffffffffffffff161480156114cf575060126000611475613559565b73ffffffffffffffffffffffffffffffffffffffff1673ffffffffffffffffffffffffffffffffffffffff168152602001908152602001600020600083815260200190815260200160002060009054906101000a900460ff165b611524576040517f08c379a00000000000000000000000000000000000000000000000000000000081526004018080602001828103825260298152602001806155b76029913960400191505060405180910390fd5b858580806020026020016040519081016040528093929190818152602001838360200280828437600081840152601f19601f82011690508083019250505050505050848480806020026020016040519081016040528093929190818152602001838360200280828437600081840152601f19601f82011690508083019250505050505050805182511461161f576040517f08c379a000000000000000000000000000000000000000000000000000000000815260040180806020018281038252601e8152602001807f44656c66794e46543a20756e657175616c206172726179206c656e677468000081525060200191505060405180910390fd5b6116288161361a565b61167d576040517f08c379a000000000000000000000000000000000000000000000000000000000815260040180806020018281038252602c8152602001806154db602c913960400191505060405180910390fd5b8787601060008c8152602001908152602001600020919061169f929190615183565b508585601160008c815260200190815260200160002091906116c2929190615223565b507faf1c0be9124aef2948fc934d6013ed3f705d2869bc4955cb4f655b0bc2952f656116ec613559565b8a604051808373ffffffffffffffffffffffffffffffffffffffff1681526020018281526020019250505060405180910390a1505050505050505050565b6000611736600261366d565b905090565b60126020528160005260406000206020528060005260406000206000915091509054906101000a900460ff1681565b61177b611775613559565b82613682565b6117d0576040517f08c379a00000000000000000000000000000000000000000000000000000000081526004018080602001828103825260318152602001806156226031913960400191505060405180910390fd5b6117db838383613776565b505050565b600061183382600160008673ffffffffffffffffffffffffffffffffffffffff1673ffffffffffffffffffffffffffffffffffffffff1681526020019081526020016000206139b990919063ffffffff16565b905092915050565b600d6000611847613559565b73ffffffffffffffffffffffffffffffffffffffff1673ffffffffffffffffffffffffffffffffffffffff16815260200190815260200160002060009054906101000a900460ff16611901576040517f08c379a00000000000000000000000000000000000000000000000000000000081526004018080602001828103825260158152602001807f4f6e6c79206578697374696e67206d696e74657273000000000000000000000081525060200191505060405180910390fd5b6000600190505b61191061172a565b8110156119f85760126000611923613559565b73ffffffffffffffffffffffffffffffffffffffff1673ffffffffffffffffffffffffffffffffffffffff168152602001908152602001600020600082815260200190815260200160002060009054906101000a900460ff16156119eb576001601260008473ffffffffffffffffffffffffffffffffffffffff1673ffffffffffffffffffffffffffffffffffffffff168152602001908152602001600020600083815260200190815260200160002060006101000a81548160ff0219169083151502179055505b8080600101915050611908565b600e6000611a04613559565b73ffffffffffffffffffffffffffffffffffffffff1673ffffffffffffffffffffffffffffffffffffffff16815260200190815260200160002060009054906101000a900473ffffffffffffffffffffffffffffffffffffffff16600e60008473ffffffffffffffffffffffffffffffffffffffff1673ffffffffffffffffffffffffffffffffffffffff16815260200190815260200160002060006101000a81548173ffffffffffffffffffffffffffffffffffffffff021916908373ffffffffffffffffffffffffffffffffffffffff160217905550611af4611ae7613559565b611aef613559565b6139d3565b8173ffffffffffffffffffffffffffffffffffffffff16611b13613559565b73ffffffffffffffffffffffffffffffffffffffff167fc662041cbdba4251761c991baf54aabf222b20ccc2934ca679a3affb7bc2313d60405160405180910390a35050565b611b7483838360405180602001604052806000815250612d6a565b505050565b806000611b8582611e40565b90508073ffffffffffffffffffffffffffffffffffffffff16611ba6613559565b73ffffffffffffffffffffffffffffffffffffffff16148015611c2a575060126000611bd0613559565b73ffffffffffffffffffffffffffffffffffffffff1673ffffffffffffffffffffffffffffffffffffffff168152602001908152602001600020600083815260200190815260200160002060009054906101000a900460ff165b611c7f576040517f08c379a00000000000000000000000000000000000000000000000000000000081526004018080602001828103825260298152602001806155b76029913960400191505060405180910390fd5b611c8883613b48565b505050565b600080611ca4836002613c8290919063ffffffff16565b50905080915050919050565b611cb8613559565b73ffffffffffffffffffffffffffffffffffffffff16611cd66123c5565b73ffffffffffffffffffffffffffffffffffffffff1614611d5f576040517f08c379a00000000000000000000000000000000000000000000000000000000081526004018080602001828103825260208152602001807f4f776e61626c653a2063616c6c6572206973206e6f7420746865206f776e657281525060200191505060405180910390fd5b611d70611d6a613559565b82613cae565b50565b6000600c54905090565b611d85613559565b73ffffffffffffffffffffffffffffffffffffffff16611da36123c5565b73ffffffffffffffffffffffffffffffffffffffff1614611e2c576040517f08c379a00000000000000000000000000000000000000000000000000000000081526004018080602001828103825260208152602001807f4f776e61626c653a2063616c6c6572206973206e6f7420746865206f776e657281525060200191505060405180910390fd5b611e3d611e37613559565b826139d3565b50565b6000611e7082604051806060016040528060298152602001615490602991396002613e249092919063ffffffff16565b9050919050565b60006202a300905090565b606060098054600181600116156101000203166002900480601f016020809104026020016040519081016040528092919081815260200182805460018160011615610100020316600290048015611f1a5780601f10611eef57610100808354040283529160200191611f1a565b820191906000526020600020905b815481529060010190602001808311611efd57829003601f168201915b5050505050905090565b60008073ffffffffffffffffffffffffffffffffffffffff168273ffffffffffffffffffffffffffffffffffffffff161415611fab576040517f08c379a000000000000000000000000000000000000000000000000000000000815260040180806020018281038252602a815260200180615466602a913960400191505060405180910390fd5b611ff2600160008473ffffffffffffffffffffffffffffffffffffffff1673ffffffffffffffffffffffffffffffffffffffff168152602001908152602001600020613e43565b9050919050565b6000848480806020026020016040519081016040528093929190818152602001838360200280828437600081840152601f19601f82011690508083019250505050505050838380806020026020016040519081016040528093929190818152602001838360200280828437600081840152601f19601f8201169050808301925050505050505080518251146120f6576040517f08c379a000000000000000000000000000000000000000000000000000000000815260040180806020018281038252601e8152602001807f44656c66794e46543a20756e657175616c206172726179206c656e677468000081525060200191505060405180910390fd5b6120ff8161361a565b612154576040517f08c379a000000000000000000000000000000000000000000000000000000000815260040180806020018281038252602c8152602001806154db602c913960400191505060405180910390fd5b600d6000612160613559565b73ffffffffffffffffffffffffffffffffffffffff1673ffffffffffffffffffffffffffffffffffffffff16815260200190815260200160002060009054906101000a900460ff1661221a576040517f08c379a000000000000000000000000000000000000000000000000000000000815260040180806020018281038252600b8152602001807f6f6e6c79206d696e74657200000000000000000000000000000000000000000081525060200191505060405180910390fd5b6122246013613e58565b60006122306013613e6e565b905061223c8b82613e7c565b61228a818b8b8080601f016020809104026020016040519081016040528093929190818152602001838380828437600081840152601f19601f82011690508083019250505050505050613e9a565b600160126000612298613559565b73ffffffffffffffffffffffffffffffffffffffff1673ffffffffffffffffffffffffffffffffffffffff168152602001908152602001600020600083815260200190815260200160002060006101000a81548160ff021916908315150217905550878760106000848152602001908152602001600020919061231c929190615183565b50858560116000848152602001908152602001600020919061233f929190615223565b507faf1c0be9124aef2948fc934d6013ed3f705d2869bc4955cb4f655b0bc2952f65612369613559565b82604051808373ffffffffffffffffffffffffffffffffffffffff1681526020018281526020019250505060405180910390a1809350505050979650505050505050565b600f6020528060005260406000206000915090505481565b6000600a60009054906101000a900473ffffffffffffffffffffffffffffffffffffffff16905090565b6123f7613559565b73ffffffffffffffffffffffffffffffffffffffff166124156123c5565b73ffffffffffffffffffffffffffffffffffffffff161461249e576040517f08c379a00000000000000000000000000000000000000000000000000000000081526004018080602001828103825260208152602001807f4f776e61626c653a2063616c6c6572206973206e6f7420746865206f776e657281525060200191505060405180910390fd5b600073ffffffffffffffffffffffffffffffffffffffff16600b60009054906101000a900473ffffffffffffffffffffffffffffffffffffffff1673ffffffffffffffffffffffffffffffffffffffff161461253f576000600b60006101000a81548173ffffffffffffffffffffffffffffffffffffffff021916908373ffffffffffffffffffffffffffffffffffffffff1602179055506000600c819055505b7fd7d7cdfd853b7bf7d78898371e21f8740295f4335e35f1d6b518f8b1d74cc22c612568613559565b600b60009054906101000a900473ffffffffffffffffffffffffffffffffffffffff16604051808373ffffffffffffffffffffffffffffffffffffffff1681526020018273ffffffffffffffffffffffffffffffffffffffff1681526020019250505060405180910390a1565b606060078054600181600116156101000203166002900480601f01602080910402602001604051908101604052809291908181526020018280546001816001161561010002031660029004801561266d5780601f106126425761010080835404028352916020019161266d565b820191906000526020600020905b81548152906001019060200180831161265057829003601f168201915b5050505050905090565b61267f613559565b73ffffffffffffffffffffffffffffffffffffffff1661269d6123c5565b73ffffffffffffffffffffffffffffffffffffffff1614612726576040517f08c379a00000000000000000000000000000000000000000000000000000000081526004018080602001828103825260208152602001807f4f776e61626c653a2063616c6c6572206973206e6f7420746865206f776e657281525060200191505060405180910390fd5b612737816127326123c5565b613f24565b50565b612742613559565b73ffffffffffffffffffffffffffffffffffffffff166127606123c5565b73ffffffffffffffffffffffffffffffffffffffff16146127e9576040517f08c379a00000000000000000000000000000000000000000000000000000000081526004018080602001828103825260208152602001807f4f776e61626c653a2063616c6c6572206973206e6f7420746865206f776e657281525060200191505060405180910390fd5b6000600c5411801561284a5750600073ffffffffffffffffffffffffffffffffffffffff16600b60009054906101000a900473ffffffffffffffffffffffffffffffffffffffff1673ffffffffffffffffffffffffffffffffffffffff1614155b1561291557600c5442116128a9576040517f08c379a00000000000000000000000000000000000000000000000000000000081526004018080602001828103825260218152602001806156016021913960400191505060405180910390fd5b600b60009054906101000a900473ffffffffffffffffffffffffffffffffffffffff16600a60006101000a81548173ffffffffffffffffffffffffffffffffffffffff021916908373ffffffffffffffffffffffffffffffffffffffff1602179055506000600c819055505b7f6540c29f36f743082decca86416a93fe50726501d28dd8190575dd5e94516b9961293e613559565b600a60009054906101000a900473ffffffffffffffffffffffffffffffffffffffff16604051808373ffffffffffffffffffffffffffffffffffffffff1681526020018273ffffffffffffffffffffffffffffffffffffffff1681526020019250505060405180910390a1565b6129b3613559565b73ffffffffffffffffffffffffffffffffffffffff168273ffffffffffffffffffffffffffffffffffffffff161415612a54576040517f08c379a00000000000000000000000000000000000000000000000000000000081526004018080602001828103825260198152602001807f4552433732313a20617070726f766520746f2063616c6c65720000000000000081525060200191505060405180910390fd5b8060056000612a61613559565b73ffffffffffffffffffffffffffffffffffffffff1673ffffffffffffffffffffffffffffffffffffffff16815260200190815260200160002060008473ffffffffffffffffffffffffffffffffffffffff1673ffffffffffffffffffffffffffffffffffffffff16815260200190815260200160002060006101000a81548160ff0219169083151502179055508173ffffffffffffffffffffffffffffffffffffffff16612b0e613559565b73ffffffffffffffffffffffffffffffffffffffff167f17307eab39ab6107e8899845ad3d59bd9653f200f220920489ca2b5937696c318360405180821515815260200191505060405180910390a35050565b6000600b60009054906101000a900473ffffffffffffffffffffffffffffffffffffffff16905090565b612b93613559565b73ffffffffffffffffffffffffffffffffffffffff16612bb16123c5565b73ffffffffffffffffffffffffffffffffffffffff1614612c3a576040517f08c379a00000000000000000000000000000000000000000000000000000000081526004018080602001828103825260208152602001807f4f776e61626c653a2063616c6c6572206973206e6f7420746865206f776e657281525060200191505060405180910390fd5b80600b60006101000a81548173ffffffffffffffffffffffffffffffffffffffff021916908373ffffffffffffffffffffffffffffffffffffffff1602179055506202a3004201600c819055507f9aecf86140d81442289f667eb72e1202a8fbb3478a686659952e145e8531965633600a60009054906101000a900473ffffffffffffffffffffffffffffffffffffffff16604051808373ffffffffffffffffffffffffffffffffffffffff1681526020018273ffffffffffffffffffffffffffffffffffffffff1681526020019250505060405180910390a150565b600e6020528060005260406000206000915054906101000a900473ffffffffffffffffffffffffffffffffffffffff1681565b600d6020528060005260406000206000915054906101000a900460ff1681565b612d7b612d75613559565b83613682565b612dd0576040517f08c379a00000000000000000000000000000000000000000000000000000000081526004018080602001828103825260318152602001806156226031913960400191505060405180910390fd5b612ddc848484846141bb565b50505050565b606080601060008481526020019081526020016000206011600085815260200190815260200160002081805480602002602001604051908101604052809291908181526020018280548015612e8c57602002820191906000526020600020905b8160009054906101000a900473ffffffffffffffffffffffffffffffffffffffff1673ffffffffffffffffffffffffffffffffffffffff1681526020019060010190808311612e42575b5050505050915080805480602002602001604051908101604052809291908181526020018280548015612ede57602002820191906000526020600020905b815481526020019060010190808311612eca575b5050505050905091509150915091565b6060612ef98261353c565b612f4e576040517f08c379a000000000000000000000000000000000000000000000000000000000815260040180806020018281038252602f815260200180615588602f913960400191505060405180910390fd5b6060600860008481526020019081526020016000208054600181600116156101000203166002900480601f016020809104026020016040519081016040528092919081815260200182805460018160011615610100020316600290048015612ff75780601f10612fcc57610100808354040283529160200191612ff7565b820191906000526020600020905b815481529060010190602001808311612fda57829003601f168201915b505050505090506060613008611e82565b905060008151141561301e5781925050506131ba565b6000825111156130ef5780826040516020018083805190602001908083835b60208310613060578051825260208201915060208101905060208303925061303d565b6001836020036101000a03801982511681845116808217855250505050505090500182805190602001908083835b602083106130b1578051825260208201915060208101905060208303925061308e565b6001836020036101000a03801982511681845116808217855250505050505090500192505050604051602081830303815290604052925050506131ba565b806130f98561422d565b6040516020018083805190602001908083835b6020831061312f578051825260208201915060208101905060208303925061310c565b6001836020036101000a03801982511681845116808217855250505050505090500182805190602001908083835b60208310613180578051825260208201915060208101905060208303925061315d565b6001836020036101000a03801982511681845116808217855250505050505090500192505050604051602081830303815290604052925050505b919050565b6000600d60006131cd613559565b73ffffffffffffffffffffffffffffffffffffffff1673ffffffffffffffffffffffffffffffffffffffff16815260200190815260200160002060009054906101000a900460ff16613287576040517f08c379a000000000000000000000000000000000000000000000000000000000815260040180806020018281038252600b8152602001807f6f6e6c79206d696e74657200000000000000000000000000000000000000000081525060200191505060405180910390fd5b6132916013613e58565b600061329d6013613e6e565b90506132a98582613e7c565b6132f78185858080601f016020809104026020016040519081016040528093929190818152602001838380828437600081840152601f19601f82011690508083019250505050505050613e9a565b600160126000613305613559565b73ffffffffffffffffffffffffffffffffffffffff1673ffffffffffffffffffffffffffffffffffffffff168152602001908152602001600020600083815260200190815260200160002060006101000a81548160ff0219169083151502179055507faf1c0be9124aef2948fc934d6013ed3f705d2869bc4955cb4f655b0bc2952f65613390613559565b82604051808373ffffffffffffffffffffffffffffffffffffffff1681526020018281526020019250505060405180910390a1809150509392505050565b600d60006133da613559565b73ffffffffffffffffffffffffffffffffffffffff1673ffffffffffffffffffffffffffffffffffffffff16815260200190815260200160002060009054906101000a900460ff16613494576040517f08c379a000000000000000000000000000000000000000000000000000000000815260040180806020018281038252600b8152602001807f6f6e6c79206d696e74657200000000000000000000000000000000000000000081525060200191505060405180910390fd5b6134a5816134a0613559565b613f24565b50565b6000600560008473ffffffffffffffffffffffffffffffffffffffff1673ffffffffffffffffffffffffffffffffffffffff16815260200190815260200160002060008373ffffffffffffffffffffffffffffffffffffffff1673ffffffffffffffffffffffffffffffffffffffff16815260200190815260200160002060009054906101000a900460ff16905092915050565b600061355282600261437490919063ffffffff16565b9050919050565b600033905090565b816004600083815260200190815260200160002060006101000a81548173ffffffffffffffffffffffffffffffffffffffff021916908373ffffffffffffffffffffffffffffffffffffffff160217905550808273ffffffffffffffffffffffffffffffffffffffff166135d483611e40565b73ffffffffffffffffffffffffffffffffffffffff167f8c5be1e5ebec7d5bd14f71427d1e84f3dd0314c0f7b2291e5b200ac8c7c3b92560405160405180910390a45050565b60008060005b835181101561365e5761364f84828151811061363857fe5b60200260200101518361438e90919063ffffffff16565b91508080600101915050613620565b50612710811115915050919050565b600061367b82600001614416565b9050919050565b600061368d8261353c565b6136e2576040517f08c379a000000000000000000000000000000000000000000000000000000000815260040180806020018281038252602c815260200180615402602c913960400191505060405180910390fd5b60006136ed83611e40565b90508073ffffffffffffffffffffffffffffffffffffffff168473ffffffffffffffffffffffffffffffffffffffff16148061375c57508373ffffffffffffffffffffffffffffffffffffffff166137448461123f565b73ffffffffffffffffffffffffffffffffffffffff16145b8061376d575061376c81856134a8565b5b91505092915050565b8273ffffffffffffffffffffffffffffffffffffffff1661379682611e40565b73ffffffffffffffffffffffffffffffffffffffff1614613802576040517f08c379a000000000000000000000000000000000000000000000000000000000815260040180806020018281038252602981526020018061555f6029913960400191505060405180910390fd5b600073ffffffffffffffffffffffffffffffffffffffff168273ffffffffffffffffffffffffffffffffffffffff161415613888576040517f08c379a00000000000000000000000000000000000000000000000000000000081526004018080602001828103825260248152602001806153b86024913960400191505060405180910390fd5b613893838383614427565b61389e600082613561565b6138ef81600160008673ffffffffffffffffffffffffffffffffffffffff1673ffffffffffffffffffffffffffffffffffffffff16815260200190815260200160002061442c90919063ffffffff16565b5061394181600160008573ffffffffffffffffffffffffffffffffffffffff1673ffffffffffffffffffffffffffffffffffffffff16815260200190815260200160002061444690919063ffffffff16565b50613958818360026144609092919063ffffffff16565b50808273ffffffffffffffffffffffffffffffffffffffff168473ffffffffffffffffffffffffffffffffffffffff167fddf252ad1be2c89b69c2b068fc378daa952ba7f163c4a11628f55a4df523b3ef60405160405180910390a4505050565b60006139c88360000183614495565b60001c905092915050565b600d60008273ffffffffffffffffffffffffffffffffffffffff1673ffffffffffffffffffffffffffffffffffffffff16815260200190815260200160002060009054906101000a900460ff16613a92576040517f08c379a000000000000000000000000000000000000000000000000000000000815260040180806020018281038252600d8152602001807f6d696e746572206578697374730000000000000000000000000000000000000081525060200191505060405180910390fd5b6000600d60008373ffffffffffffffffffffffffffffffffffffffff1673ffffffffffffffffffffffffffffffffffffffff16815260200190815260200160002060006101000a81548160ff0219169083151502179055508073ffffffffffffffffffffffffffffffffffffffff168273ffffffffffffffffffffffffffffffffffffffff167fc7ea10075c38f1d9d50b07fef12a8d260d235dea97fe276ba36b1aa23e77faa760405160405180910390a35050565b6000613b5382611e40565b9050613b6181600084614427565b613b6c600083613561565b60006008600084815260200190815260200160002080546001816001161561010002031660029004905014613bbb57600860008381526020019081526020016000206000613bba9190615270565b5b613c0c82600160008473ffffffffffffffffffffffffffffffffffffffff1673ffffffffffffffffffffffffffffffffffffffff16815260200190815260200160002061442c90919063ffffffff16565b50613c2182600261451890919063ffffffff16565b5081600073ffffffffffffffffffffffffffffffffffffffff168273ffffffffffffffffffffffffffffffffffffffff167fddf252ad1be2c89b69c2b068fc378daa952ba7f163c4a11628f55a4df523b3ef60405160405180910390a45050565b600080600080613c958660000186614532565b915091508160001c8160001c9350935050509250929050565b600d60008273ffffffffffffffffffffffffffffffffffffffff1673ffffffffffffffffffffffffffffffffffffffff16815260200190815260200160002060009054906101000a900460ff1615613d6e576040517f08c379a000000000000000000000000000000000000000000000000000000000815260040180806020018281038252600d8152602001807f6d696e746572206578697374730000000000000000000000000000000000000081525060200191505060405180910390fd5b6001600d60008373ffffffffffffffffffffffffffffffffffffffff1673ffffffffffffffffffffffffffffffffffffffff16815260200190815260200160002060006101000a81548160ff0219169083151502179055508073ffffffffffffffffffffffffffffffffffffffff168273ffffffffffffffffffffffffffffffffffffffff167ff3997781746a7333a1509662c65f8064fd90a7be2735441b35121a8cdbc06d0a60405160405180910390a35050565b6000613e37846000018460001b846145cb565b60001c90509392505050565b6000613e51826000016146c1565b9050919050565b6001816000016000828254019250508190555050565b600081600001549050919050565b613e968282604051806020016040528060008152506146d2565b5050565b613ea38261353c565b613ef8576040517f08c379a000000000000000000000000000000000000000000000000000000000815260040180806020018281038252602c815260200180615533602c913960400191505060405180910390fd5b80600860008481526020019081526020016000209080519060200190613f1f9291906152b8565b505050565b600073ffffffffffffffffffffffffffffffffffffffff168273ffffffffffffffffffffffffffffffffffffffff161415613fc7576040517f08c379a00000000000000000000000000000000000000000000000000000000081526004018080602001828103825260098152602001807f616464726573735f30000000000000000000000000000000000000000000000081525060200191505060405180910390fd5b600d60008373ffffffffffffffffffffffffffffffffffffffff1673ffffffffffffffffffffffffffffffffffffffff16815260200190815260200160002060009054906101000a900460ff1615614087576040517f08c379a000000000000000000000000000000000000000000000000000000000815260040180806020018281038252600d8152602001807f6d696e746572206578697374730000000000000000000000000000000000000081525060200191505060405180910390fd5b6001600d60008473ffffffffffffffffffffffffffffffffffffffff1673ffffffffffffffffffffffffffffffffffffffff16815260200190815260200160002060006101000a81548160ff02191690831515021790555080600e60008473ffffffffffffffffffffffffffffffffffffffff1673ffffffffffffffffffffffffffffffffffffffff16815260200190815260200160002060006101000a81548173ffffffffffffffffffffffffffffffffffffffff021916908373ffffffffffffffffffffffffffffffffffffffff1602179055508173ffffffffffffffffffffffffffffffffffffffff168173ffffffffffffffffffffffffffffffffffffffff167f3c091dafb1d99e4a4c333024492eac3b2cd8bf921a3dd547c937db33be307bb860405160405180910390a35050565b6141c6848484613776565b6141d284848484614743565b614227576040517f08c379a00000000000000000000000000000000000000000000000000000000081526004018080602001828103825260328152602001806153866032913960400191505060405180910390fd5b50505050565b60606000821415614275576040518060400160405280600181526020017f3000000000000000000000000000000000000000000000000000000000000000815250905061436f565b600082905060005b6000821461429f578080600101915050600a828161429757fe5b04915061427d565b60608167ffffffffffffffff811180156142b857600080fd5b506040519080825280601f01601f1916602001820160405280156142eb5781602001600182028036833780820191505090505b50905060006001830390508593505b6000841461436757600a848161430c57fe5b0660300160f81b8282806001900393508151811061432657fe5b60200101907effffffffffffffffffffffffffffffffffffffffffffffffffffffffffffff1916908160001a905350600a848161435f57fe5b0493506142fa565b819450505050505b919050565b6000614386836000018360001b61495c565b905092915050565b60008082840190508381101561440c576040517f08c379a000000000000000000000000000000000000000000000000000000000815260040180806020018281038252601b8152602001807f536166654d6174683a206164646974696f6e206f766572666c6f77000000000081525060200191505060405180910390fd5b8091505092915050565b600081600001805490509050919050565b505050565b600061443e836000018360001b61497f565b905092915050565b6000614458836000018360001b614a67565b905092915050565b600061448c846000018460001b8473ffffffffffffffffffffffffffffffffffffffff1660001b614ad7565b90509392505050565b6000818360000180549050116144f6576040517f08c379a00000000000000000000000000000000000000000000000000000000081526004018080602001828103825260228152602001806153646022913960400191505060405180910390fd5b82600001828154811061450557fe5b9060005260206000200154905092915050565b600061452a836000018360001b614bb3565b905092915050565b60008082846000018054905011614594576040517f08c379a00000000000000000000000000000000000000000000000000000000081526004018080602001828103825260228152602001806154b96022913960400191505060405180910390fd5b60008460000184815481106145a557fe5b906000526020600020906002020190508060000154816001015492509250509250929050565b60008084600101600085815260200190815260200160002054905060008114158390614692576040517f08c379a00000000000000000000000000000000000000000000000000000000081526004018080602001828103825283818151815260200191508051906020019080838360005b8381101561465757808201518184015260208101905061463c565b50505050905090810190601f1680156146845780820380516001836020036101000a031916815260200191505b509250505060405180910390fd5b508460000160018203815481106146a557fe5b9060005260206000209060020201600101549150509392505050565b600081600001805490509050919050565b6146dc8383614ccc565b6146e96000848484614743565b61473e576040517f08c379a00000000000000000000000000000000000000000000000000000000081526004018080602001828103825260328152602001806153866032913960400191505060405180910390fd5b505050565b60006147648473ffffffffffffffffffffffffffffffffffffffff16614ec0565b6147715760019050614954565b60606148db63150b7a0260e01b614786613559565b888787604051602401808573ffffffffffffffffffffffffffffffffffffffff1681526020018473ffffffffffffffffffffffffffffffffffffffff16815260200183815260200180602001828103825283818151815260200191508051906020019080838360005b8381101561480a5780820151818401526020810190506147ef565b50505050905090810190601f1680156148375780820380516001836020036101000a031916815260200191505b5095505050505050604051602081830303815290604052907bffffffffffffffffffffffffffffffffffffffffffffffffffffffff19166020820180517bffffffffffffffffffffffffffffffffffffffffffffffffffffffff8381831617835250505050604051806060016040528060328152602001615386603291398773ffffffffffffffffffffffffffffffffffffffff16614ed39092919063ffffffff16565b905060008180602001905160208110156148f457600080fd5b8101908080519060200190929190505050905063150b7a0260e01b7bffffffffffffffffffffffffffffffffffffffffffffffffffffffff1916817bffffffffffffffffffffffffffffffffffffffffffffffffffffffff191614925050505b949350505050565b600080836001016000848152602001908152602001600020541415905092915050565b60008083600101600084815260200190815260200160002054905060008114614a5b57600060018203905060006001866000018054905003905060008660000182815481106149ca57fe5b90600052602060002001549050808760000184815481106149e757fe5b9060005260206000200181905550600183018760010160008381526020019081526020016000208190555086600001805480614a1f57fe5b60019003818190600052602060002001600090559055866001016000878152602001908152602001600020600090556001945050505050614a61565b60009150505b92915050565b6000614a738383614eeb565b614acc578260000182908060018154018082558091505060019003906000526020600020016000909190919091505582600001805490508360010160008481526020019081526020016000208190555060019050614ad1565b600090505b92915050565b6000808460010160008581526020019081526020016000205490506000811415614b7e57846000016040518060400160405280868152602001858152509080600181540180825580915050600190039060005260206000209060020201600090919091909150600082015181600001556020820151816001015550508460000180549050856001016000868152602001908152602001600020819055506001915050614bac565b82856000016001830381548110614b9157fe5b90600052602060002090600202016001018190555060009150505b9392505050565b60008083600101600084815260200190815260200160002054905060008114614cc05760006001820390506000600186600001805490500390506000866000018281548110614bfe57fe5b9060005260206000209060020201905080876000018481548110614c1e57fe5b9060005260206000209060020201600082015481600001556001820154816001015590505060018301876001016000836000015481526020019081526020016000208190555086600001805480614c7157fe5b6001900381819060005260206000209060020201600080820160009055600182016000905550509055866001016000878152602001908152602001600020600090556001945050505050614cc6565b60009150505b92915050565b600073ffffffffffffffffffffffffffffffffffffffff168273ffffffffffffffffffffffffffffffffffffffff161415614d6f576040517f08c379a00000000000000000000000000000000000000000000000000000000081526004018080602001828103825260208152602001807f4552433732313a206d696e7420746f20746865207a65726f206164647265737381525060200191505060405180910390fd5b614d788161353c565b15614deb576040517f08c379a000000000000000000000000000000000000000000000000000000000815260040180806020018281038252601c8152602001807f4552433732313a20746f6b656e20616c7265616479206d696e7465640000000081525060200191505060405180910390fd5b614df760008383614427565b614e4881600160008573ffffffffffffffffffffffffffffffffffffffff1673ffffffffffffffffffffffffffffffffffffffff16815260200190815260200160002061444690919063ffffffff16565b50614e5f818360026144609092919063ffffffff16565b50808273ffffffffffffffffffffffffffffffffffffffff16600073ffffffffffffffffffffffffffffffffffffffff167fddf252ad1be2c89b69c2b068fc378daa952ba7f163c4a11628f55a4df523b3ef60405160405180910390a45050565b600080823b905060008111915050919050565b6060614ee28484600085614f0e565b90509392505050565b600080836001016000848152602001908152602001600020541415905092915050565b606082471015614f69576040517f08c379a00000000000000000000000000000000000000000000000000000000081526004018080602001828103825260268152602001806153dc6026913960400191505060405180910390fd5b614f7285614ec0565b614fe4576040517f08c379a000000000000000000000000000000000000000000000000000000000815260040180806020018281038252601d8152602001807f416464726573733a2063616c6c20746f206e6f6e2d636f6e747261637400000081525060200191505060405180910390fd5b600060608673ffffffffffffffffffffffffffffffffffffffff1685876040518082805190602001908083835b602083106150345780518252602082019150602081019050602083039250615011565b6001836020036101000a03801982511681845116808217855250505050505090500191505060006040518083038185875af1925050503d8060008114615096576040519150601f19603f3d011682016040523d82523d6000602084013e61509b565b606091505b50915091506150ab8282866150b7565b92505050949350505050565b606083156150c75782905061517c565b6000835111156150da5782518084602001fd5b816040517f08c379a00000000000000000000000000000000000000000000000000000000081526004018080602001828103825283818151815260200191508051906020019080838360005b83811015615141578082015181840152602081019050615126565b50505050905090810190601f16801561516e5780820380516001836020036101000a031916815260200191505b509250505060405180910390fd5b9392505050565b828054828255906000526020600020908101928215615212579160200282015b8281111561521157823573ffffffffffffffffffffffffffffffffffffffff168260006101000a81548173ffffffffffffffffffffffffffffffffffffffff021916908373ffffffffffffffffffffffffffffffffffffffff160217905550916020019190600101906151a3565b5b50905061521f9190615346565b5090565b82805482825590600052602060002090810192821561525f579160200282015b8281111561525e578235825591602001919060010190615243565b5b50905061526c9190615346565b5090565b50805460018160011615610100020316600290046000825580601f1061529657506152b5565b601f0160209004906000526020600020908101906152b49190615346565b5b50565b828054600181600116156101000203166002900490600052602060002090601f0160209004810192826152ee5760008555615335565b82601f1061530757805160ff1916838001178555615335565b82800160010185558215615335579182015b82811115615334578251825591602001919060010190615319565b5b5090506153429190615346565b5090565b5b8082111561535f576000816000905550600101615347565b509056fe456e756d657261626c655365743a20696e646578206f7574206f6620626f756e64734552433732313a207472616e7366657220746f206e6f6e20455243373231526563656976657220696d706c656d656e7465724552433732313a207472616e7366657220746f20746865207a65726f2061646472657373416464726573733a20696e73756666696369656e742062616c616e636520666f722063616c6c4552433732313a206f70657261746f7220717565727920666f72206e6f6e6578697374656e7420746f6b656e4552433732313a20617070726f76652063616c6c6572206973206e6f74206f776e6572206e6f7220617070726f76656420666f7220616c6c4552433732313a2062616c616e636520717565727920666f7220746865207a65726f20616464726573734552433732313a206f776e657220717565727920666f72206e6f6e6578697374656e7420746f6b656e456e756d657261626c654d61703a20696e646578206f7574206f6620626f756e647344656c66794e46543a726f79616c74792063616e6e6f742062652067726561746572207468616e20313030254552433732313a20617070726f76656420717565727920666f72206e6f6e6578697374656e7420746f6b656e4552433732314d657461646174613a2055524920736574206f66206e6f6e6578697374656e7420746f6b656e4552433732313a207472616e73666572206f6620746f6b656e2074686174206973206e6f74206f776e4552433732314d657461646174613a2055524920717565727920666f72206e6f6e6578697374656e7420746f6b656e4552433732313a206f6e6c792063726561746f72206173207468652063757272656e74206f776e65724552433732313a20617070726f76616c20746f2063757272656e74206f776e657244656c667945524332303a206f776e6572206170706c7920746f6f206561726c794552433732313a207472616e736665722063616c6c6572206973206e6f74206f776e6572206e6f7220617070726f766564a2646970667358221220063d56edbcd752f2868e6063b3e3c4add95a24370b11344a5c1bd0307324b0ab64736f6c63430007040033",
  "linkReferences": {},
  "deployedLinkReferences": {}
}