{
  "_format": "hh-sol-artifact-1",
  "contractName": "ERC721Marketplace",
  "sourceName": "contracts/NftMktplace.sol",
  "abi": [
    {
      "inputs": [
        {
          "internalType": "address payable",
          "name": "vault",
          "type": "address"
        }
      ],
      "stateMutability": "nonpayable",
      "type": "constructor"
    },
    {
      "anonymous": false,
      "inputs": [
        {
          "indexed": false,
          "internalType": "address",
          "name": "sender",
          "type": "address"
        },
        {
          "indexed": false,
          "internalType": "address",
          "name": "newOwner",
          "type": "address"
        }
      ],
      "name": "AcceptPendingAdmin",
      "type": "event"
    },
    {
      "anonymous": false,
      "inputs": [
        {
          "indexed": true,
          "internalType": "address",
          "name": "previousAdmin",
          "type": "address"
        },
        {
          "indexed": true,
          "internalType": "address",
          "name": "newOwner",
          "type": "address"
        }
      ],
      "name": "AdminTransferred",
      "type": "event"
    },
    {
      "anonymous": false,
      "inputs": [
        {
          "indexed": false,
          "internalType": "address",
          "name": "owner",
          "type": "address"
        },
        {
          "indexed": false,
          "internalType": "uint256",
          "name": "id",
          "type": "uint256"
        },
        {
          "indexed": false,
          "internalType": "address",
          "name": "token",
          "type": "address"
        },
        {
          "indexed": false,
          "internalType": "uint256",
          "name": "tokenId",
          "type": "uint256"
        },
        {
          "indexed": false,
          "internalType": "uint256",
          "name": "_basePrice",
          "type": "uint256"
        },
        {
          "indexed": false,
          "internalType": "address",
          "name": "paymentMethod",
          "type": "address"
        }
      ],
      "name": "AuctionCreated",
      "type": "event"
    },
    {
      "anonymous": false,
      "inputs": [
        {
          "indexed": false,
          "internalType": "address",
          "name": "bidder",
          "type": "address"
        },
        {
          "indexed": false,
          "internalType": "uint256",
          "name": "id",
          "type": "uint256"
        },
        {
          "indexed": false,
          "internalType": "address",
          "name": "token",
          "type": "address"
        },
        {
          "indexed": false,
          "internalType": "uint256",
          "name": "tokenId",
          "type": "uint256"
        },
        {
          "indexed": false,
          "internalType": "uint256",
          "name": "bidValue",
          "type": "uint256"
        }
      ],
      "name": "BidMade",
      "type": "event"
    },
    {
      "anonymous": false,
      "inputs": [
        {
          "indexed": false,
          "internalType": "uint256",
          "name": "id",
          "type": "uint256"
        },
        {
          "indexed": false,
          "internalType": "address",
          "name": "token",
          "type": "address"
        },
        {
          "indexed": false,
          "internalType": "uint256",
          "name": "_tokenId",
          "type": "uint256"
        }
      ],
      "name": "Cancelled",
      "type": "event"
    },
    {
      "anonymous": false,
      "inputs": [
        {
          "indexed": false,
          "internalType": "address",
          "name": "sender",
          "type": "address"
        },
        {
          "indexed": false,
          "internalType": "address",
          "name": "newOwner",
          "type": "address"
        }
      ],
      "name": "ChangeAdmin",
      "type": "event"
    },
    {
      "anonymous": false,
      "inputs": [
        {
          "indexed": false,
          "internalType": "uint256",
          "name": "auctionId",
          "type": "uint256"
        },
        {
          "indexed": false,
          "internalType": "address",
          "name": "token",
          "type": "address"
        },
        {
          "indexed": false,
          "internalType": "uint256",
          "name": "tokenId",
          "type": "uint256"
        },
        {
          "indexed": false,
          "internalType": "uint256",
          "name": "ownerPayment",
          "type": "uint256"
        },
        {
          "indexed": false,
          "internalType": "uint256",
          "name": "total",
          "type": "uint256"
        }
      ],
      "name": "Executed",
      "type": "event"
    },
    {
      "anonymous": false,
      "inputs": [
        {
          "indexed": false,
          "internalType": "uint256",
          "name": "auctionId",
          "type": "uint256"
        },
        {
          "indexed": false,
          "internalType": "address",
          "name": "token",
          "type": "address"
        },
        {
          "indexed": false,
          "internalType": "uint256",
          "name": "tokenId",
          "type": "uint256"
        },
        {
          "indexed": false,
          "internalType": "uint256",
          "name": "oldFees",
          "type": "uint256"
        },
        {
          "indexed": false,
          "internalType": "uint256",
          "name": "newFees",
          "type": "uint256"
        }
      ],
      "name": "FeesUpdated",
      "type": "event"
    },
    {
      "anonymous": false,
      "inputs": [
        {
          "indexed": false,
          "internalType": "uint256",
          "name": "auctionId",
          "type": "uint256"
        },
        {
          "indexed": false,
          "internalType": "address",
          "name": "oldAddress",
          "type": "address"
        },
        {
          "indexed": false,
          "internalType": "address",
          "name": "newAddress",
          "type": "address"
        }
      ],
      "name": "OwnerChangedAddress",
      "type": "event"
    },
    {
      "anonymous": false,
      "inputs": [
        {
          "indexed": false,
          "internalType": "uint256",
          "name": "auctionId",
          "type": "uint256"
        },
        {
          "indexed": false,
          "internalType": "uint256",
          "name": "oldPrice",
          "type": "uint256"
        },
        {
          "indexed": false,
          "internalType": "uint256",
          "name": "newPrice",
          "type": "uint256"
        }
      ],
      "name": "PriceUpdated",
      "type": "event"
    },
    {
      "anonymous": false,
      "inputs": [
        {
          "indexed": false,
          "internalType": "uint256",
          "name": "auctionId",
          "type": "uint256"
        },
        {
          "indexed": false,
          "internalType": "address",
          "name": "to",
          "type": "address"
        },
        {
          "indexed": false,
          "internalType": "uint256",
          "name": "value",
          "type": "uint256"
        },
        {
          "indexed": false,
          "internalType": "address",
          "name": "paymentMethod",
          "type": "address"
        }
      ],
      "name": "ReferralPaid",
      "type": "event"
    },
    {
      "anonymous": false,
      "inputs": [
        {
          "indexed": false,
          "internalType": "address",
          "name": "sender",
          "type": "address"
        },
        {
          "indexed": false,
          "internalType": "address",
          "name": "newOwner",
          "type": "address"
        }
      ],
      "name": "RejectPendingAdmin",
      "type": "event"
    },
    {
      "anonymous": false,
      "inputs": [
        {
          "indexed": false,
          "internalType": "uint256",
          "name": "auctionId",
          "type": "uint256"
        },
        {
          "indexed": false,
          "internalType": "address",
          "name": "to",
          "type": "address"
        },
        {
          "indexed": false,
          "internalType": "uint256",
          "name": "value",
          "type": "uint256"
        },
        {
          "indexed": false,
          "internalType": "address",
          "name": "paymentMethod",
          "type": "address"
        }
      ],
      "name": "RoyaltyPaid",
      "type": "event"
    },
    {
      "anonymous": false,
      "inputs": [
        {
          "indexed": false,
          "internalType": "uint256",
          "name": "id",
          "type": "uint256"
        },
        {
          "indexed": false,
          "internalType": "address",
          "name": "to",
          "type": "address"
        },
        {
          "indexed": false,
          "internalType": "uint256",
          "name": "value",
          "type": "uint256"
        }
      ],
      "name": "SplitPayment",
      "type": "event"
    },
    {
      "anonymous": false,
      "inputs": [
        {
          "indexed": false,
          "internalType": "uint256",
          "name": "auctionId",
          "type": "uint256"
        },
        {
          "indexed": false,
          "internalType": "address",
          "name": "oldPaymentMtd",
          "type": "address"
        },
        {
          "indexed": false,
          "internalType": "address",
          "name": "newPaymentMtd",
          "type": "address"
        }
      ],
      "name": "UpdatePaymentMethod",
      "type": "event"
    },
    {
      "inputs": [],
      "name": "ROYALTY_REGISTRY",
      "outputs": [
        {
          "internalType": "contract IRegistry",
          "name": "",
          "type": "address"
        }
      ],
      "stateMutability": "view",
      "type": "function"
    },
    {
      "inputs": [],
      "name": "acceptPendingAdmin",
      "outputs": [],
      "stateMutability": "nonpayable",
      "type": "function"
    },
    {
      "inputs": [
        {
          "internalType": "address",
          "name": "ERC721Token",
          "type": "address"
        }
      ],
      "name": "addDelfyERC721",
      "outputs": [],
      "stateMutability": "nonpayable",
      "type": "function"
    },
    {
      "inputs": [
        {
          "internalType": "address",
          "name": "royaltyRegisty",
          "type": "address"
        }
      ],
      "name": "addRoyaltyRegistry",
      "outputs": [],
      "stateMutability": "nonpayable",
      "type": "function"
    },
    {
      "inputs": [
        {
          "internalType": "address[]",
          "name": "_tokens",
          "type": "address[]"
        }
      ],
      "name": "addSupportedpaymentMethods",
      "outputs": [],
      "stateMutability": "nonpayable",
      "type": "function"
    },
    {
      "inputs": [],
      "name": "admin",
      "outputs": [
        {
          "internalType": "address",
          "name": "",
          "type": "address"
        }
      ],
      "stateMutability": "view",
      "type": "function"
    },
    {
      "inputs": [
        {
          "internalType": "uint256",
          "name": "auctionId",
          "type": "uint256"
        }
      ],
      "name": "adminCancelAuction",
      "outputs": [],
      "stateMutability": "nonpayable",
      "type": "function"
    },
    {
      "inputs": [],
      "name": "bidExtension",
      "outputs": [
        {
          "internalType": "uint256",
          "name": "",
          "type": "uint256"
        }
      ],
      "stateMutability": "view",
      "type": "function"
    },
    {
      "inputs": [],
      "name": "bidWindow",
      "outputs": [
        {
          "internalType": "uint256",
          "name": "",
          "type": "uint256"
        }
      ],
      "stateMutability": "view",
      "type": "function"
    },
    {
      "inputs": [
        {
          "internalType": "uint256",
          "name": "_auctionId",
          "type": "uint256"
        }
      ],
      "name": "cancelAuction",
      "outputs": [
        {
          "internalType": "bool",
          "name": "",
          "type": "bool"
        }
      ],
      "stateMutability": "nonpayable",
      "type": "function"
    },
    {
      "inputs": [
        {
          "internalType": "address",
          "name": "_admin",
          "type": "address"
        }
      ],
      "name": "changeAdmin",
      "outputs": [],
      "stateMutability": "nonpayable",
      "type": "function"
    },
    {
      "inputs": [],
      "name": "changeAdminDelay",
      "outputs": [
        {
          "internalType": "uint256",
          "name": "",
          "type": "uint256"
        }
      ],
      "stateMutability": "view",
      "type": "function"
    },
    {
      "inputs": [
        {
          "internalType": "uint256",
          "name": "auctionId",
          "type": "uint256"
        },
        {
          "internalType": "address payable",
          "name": "newOwner",
          "type": "address"
        }
      ],
      "name": "changeAuctionOwnerAddress",
      "outputs": [],
      "stateMutability": "nonpayable",
      "type": "function"
    },
    {
      "inputs": [
        {
          "internalType": "uint256",
          "name": "_auctionId",
          "type": "uint256"
        }
      ],
      "name": "closeAuction",
      "outputs": [
        {
          "internalType": "bool",
          "name": "",
          "type": "bool"
        }
      ],
      "stateMutability": "payable",
      "type": "function"
    },
    {
      "inputs": [
        {
          "components": [
            {
              "internalType": "address payable",
              "name": "to",
              "type": "address"
            },
            {
              "internalType": "uint256",
              "name": "percent",
              "type": "uint256"
            }
          ],
          "internalType": "struct IERC721MarketPlace.PaymentsTo[]",
          "name": "paymentsTo",
          "type": "tuple[]"
        },
        {
          "internalType": "address",
          "name": "_token",
          "type": "address"
        },
        {
          "internalType": "uint256",
          "name": "_tokenId",
          "type": "uint256"
        },
        {
          "internalType": "uint256",
          "name": "_basePrice",
          "type": "uint256"
        },
        {
          "internalType": "address",
          "name": "_paymentMethod",
          "type": "address"
        }
      ],
      "name": "createAuction",
      "outputs": [],
      "stateMutability": "nonpayable",
      "type": "function"
    },
    {
      "inputs": [
        {
          "internalType": "address",
          "name": "",
          "type": "address"
        },
        {
          "internalType": "uint256",
          "name": "",
          "type": "uint256"
        }
      ],
      "name": "creatorCut",
      "outputs": [
        {
          "internalType": "uint256",
          "name": "",
          "type": "uint256"
        }
      ],
      "stateMutability": "view",
      "type": "function"
    },
    {
      "inputs": [],
      "name": "delay",
      "outputs": [
        {
          "internalType": "uint256",
          "name": "",
          "type": "uint256"
        }
      ],
      "stateMutability": "view",
      "type": "function"
    },
    {
      "inputs": [],
      "name": "delfyERC721",
      "outputs": [
        {
          "internalType": "address",
          "name": "",
          "type": "address"
        }
      ],
      "stateMutability": "view",
      "type": "function"
    },
    {
      "inputs": [
        {
          "internalType": "uint256",
          "name": "",
          "type": "uint256"
        }
      ],
      "name": "getAuction",
      "outputs": [
        {
          "internalType": "address payable",
          "name": "owner",
          "type": "address"
        },
        {
          "internalType": "address",
          "name": "token",
          "type": "address"
        },
        {
          "internalType": "address",
          "name": "currentBidder",
          "type": "address"
        },
        {
          "internalType": "uint256",
          "name": "tokenId",
          "type": "uint256"
        },
        {
          "internalType": "uint256",
          "name": "basePrice",
          "type": "uint256"
        },
        {
          "internalType": "uint256",
          "name": "lastBidVal",
          "type": "uint256"
        },
        {
          "internalType": "address",
          "name": "paymentMethod",
          "type": "address"
        },
        {
          "internalType": "uint256",
          "name": "createdAt",
          "type": "uint256"
        },
        {
          "internalType": "uint256",
          "name": "id",
          "type": "uint256"
        },
        {
          "internalType": "enum IERC721MarketPlace.Status",
          "name": "status",
          "type": "uint8"
        },
        {
          "internalType": "uint256",
          "name": "closedAt",
          "type": "uint256"
        }
      ],
      "stateMutability": "view",
      "type": "function"
    },
    {
      "inputs": [],
      "name": "getAuctionIds",
      "outputs": [
        {
          "internalType": "uint256[]",
          "name": "",
          "type": "uint256[]"
        }
      ],
      "stateMutability": "view",
      "type": "function"
    },
    {
      "inputs": [
        {
          "internalType": "address",
          "name": "_creator",
          "type": "address"
        }
      ],
      "name": "getOwnerAuctions",
      "outputs": [
        {
          "internalType": "uint256[]",
          "name": "",
          "type": "uint256[]"
        }
      ],
      "stateMutability": "view",
      "type": "function"
    },
    {
      "inputs": [
        {
          "internalType": "address",
          "name": "token",
          "type": "address"
        },
        {
          "internalType": "uint256",
          "name": "tokenId",
          "type": "uint256"
        },
        {
          "internalType": "uint256",
          "name": "currentBidValue",
          "type": "uint256"
        }
      ],
      "name": "getOwnerPayment",
      "outputs": [
        {
          "internalType": "uint256",
          "name": "payment",
          "type": "uint256"
        }
      ],
      "stateMutability": "view",
      "type": "function"
    },
    {
      "inputs": [
        {
          "internalType": "address",
          "name": "_owner",
          "type": "address"
        },
        {
          "internalType": "address",
          "name": "_token",
          "type": "address"
        }
      ],
      "name": "getOwnerTokenIds",
      "outputs": [
        {
          "internalType": "uint256[]",
          "name": "ownerTokens",
          "type": "uint256[]"
        }
      ],
      "stateMutability": "view",
      "type": "function"
    },
    {
      "inputs": [
        {
          "internalType": "uint256",
          "name": "auctionId",
          "type": "uint256"
        }
      ],
      "name": "getPaymentTo",
      "outputs": [
        {
          "components": [
            {
              "internalType": "address payable",
              "name": "to",
              "type": "address"
            },
            {
              "internalType": "uint256",
              "name": "percent",
              "type": "uint256"
            }
          ],
          "internalType": "struct IERC721MarketPlace.PaymentsTo[]",
          "name": "",
          "type": "tuple[]"
        }
      ],
      "stateMutability": "view",
      "type": "function"
    },
    {
      "inputs": [
        {
          "internalType": "uint256",
          "name": "_auctionId",
          "type": "uint256"
        },
        {
          "internalType": "address",
          "name": "auctionOwner",
          "type": "address"
        },
        {
          "internalType": "uint256",
          "name": "currentBidValue",
          "type": "uint256"
        }
      ],
      "name": "getPlatformCut",
      "outputs": [
        {
          "internalType": "uint256",
          "name": "cutValue",
          "type": "uint256"
        },
        {
          "internalType": "uint256",
          "name": "refCut",
          "type": "uint256"
        },
        {
          "internalType": "uint256",
          "name": "_total",
          "type": "uint256"
        }
      ],
      "stateMutability": "view",
      "type": "function"
    },
    {
      "inputs": [
        {
          "internalType": "uint256",
          "name": "",
          "type": "uint256"
        }
      ],
      "name": "getRef",
      "outputs": [
        {
          "internalType": "address",
          "name": "",
          "type": "address"
        }
      ],
      "stateMutability": "view",
      "type": "function"
    },
    {
      "inputs": [
        {
          "internalType": "address",
          "name": "",
          "type": "address"
        },
        {
          "internalType": "address",
          "name": "",
          "type": "address"
        }
      ],
      "name": "getRefBonusPaidCount",
      "outputs": [
        {
          "internalType": "uint256",
          "name": "",
          "type": "uint256"
        }
      ],
      "stateMutability": "view",
      "type": "function"
    },
    {
      "inputs": [
        {
          "internalType": "address",
          "name": "",
          "type": "address"
        }
      ],
      "name": "isMinter",
      "outputs": [
        {
          "internalType": "bool",
          "name": "",
          "type": "bool"
        }
      ],
      "stateMutability": "view",
      "type": "function"
    },
    {
      "inputs": [
        {
          "internalType": "address",
          "name": "",
          "type": "address"
        }
      ],
      "name": "isSupportedPaymentMethod",
      "outputs": [
        {
          "internalType": "bool",
          "name": "",
          "type": "bool"
        }
      ],
      "stateMutability": "view",
      "type": "function"
    },
    {
      "inputs": [
        {
          "internalType": "uint256",
          "name": "_id",
          "type": "uint256"
        },
        {
          "internalType": "uint256",
          "name": "bidValue",
          "type": "uint256"
        }
      ],
      "name": "makeBid",
      "outputs": [],
      "stateMutability": "payable",
      "type": "function"
    },
    {
      "inputs": [
        {
          "internalType": "address",
          "name": "",
          "type": "address"
        },
        {
          "internalType": "address",
          "name": "",
          "type": "address"
        },
        {
          "internalType": "uint256",
          "name": "",
          "type": "uint256"
        },
        {
          "internalType": "bytes",
          "name": "",
          "type": "bytes"
        }
      ],
      "name": "onERC721Received",
      "outputs": [
        {
          "internalType": "bytes4",
          "name": "",
          "type": "bytes4"
        }
      ],
      "stateMutability": "pure",
      "type": "function"
    },
    {
      "inputs": [],
      "name": "pause",
      "outputs": [],
      "stateMutability": "nonpayable",
      "type": "function"
    },
    {
      "inputs": [],
      "name": "paused",
      "outputs": [
        {
          "internalType": "bool",
          "name": "",
          "type": "bool"
        }
      ],
      "stateMutability": "view",
      "type": "function"
    },
    {
      "inputs": [
        {
          "internalType": "uint256",
          "name": "",
          "type": "uint256"
        },
        {
          "internalType": "uint256",
          "name": "",
          "type": "uint256"
        }
      ],
      "name": "payTo",
      "outputs": [
        {
          "internalType": "address payable",
          "name": "to",
          "type": "address"
        },
        {
          "internalType": "uint256",
          "name": "percent",
          "type": "uint256"
        }
      ],
      "stateMutability": "view",
      "type": "function"
    },
    {
      "inputs": [],
      "name": "pendingAdmin",
      "outputs": [
        {
          "internalType": "address",
          "name": "",
          "type": "address"
        }
      ],
      "stateMutability": "view",
      "type": "function"
    },
    {
      "inputs": [],
      "name": "platformCut",
      "outputs": [
        {
          "internalType": "uint256",
          "name": "",
          "type": "uint256"
        }
      ],
      "stateMutability": "view",
      "type": "function"
    },
    {
      "inputs": [],
      "name": "platformVault",
      "outputs": [
        {
          "internalType": "address",
          "name": "",
          "type": "address"
        }
      ],
      "stateMutability": "view",
      "type": "function"
    },
    {
      "inputs": [],
      "name": "refBonus",
      "outputs": [
        {
          "internalType": "uint256",
          "name": "",
          "type": "uint256"
        }
      ],
      "stateMutability": "view",
      "type": "function"
    },
    {
      "inputs": [],
      "name": "refBonusLimit",
      "outputs": [
        {
          "internalType": "uint256",
          "name": "",
          "type": "uint256"
        }
      ],
      "stateMutability": "view",
      "type": "function"
    },
    {
      "inputs": [],
      "name": "rejectPendingAdmin",
      "outputs": [],
      "stateMutability": "nonpayable",
      "type": "function"
    },
    {
      "inputs": [],
      "name": "unpause",
      "outputs": [],
      "stateMutability": "nonpayable",
      "type": "function"
    },
    {
      "inputs": [
        {
          "internalType": "uint256",
          "name": "_auctionId",
          "type": "uint256"
        },
        {
          "internalType": "uint256",
          "name": "_newBasePrice",
          "type": "uint256"
        }
      ],
      "name": "updateBasePrice",
      "outputs": [
        {
          "internalType": "bool",
          "name": "",
          "type": "bool"
        }
      ],
      "stateMutability": "nonpayable",
      "type": "function"
    },
    {
      "inputs": [
        {
          "internalType": "uint256",
          "name": "_bidW",
          "type": "uint256"
        }
      ],
      "name": "updateBidWindow",
      "outputs": [],
      "stateMutability": "nonpayable",
      "type": "function"
    },
    {
      "inputs": [
        {
          "internalType": "uint256",
          "name": "_refBonus",
          "type": "uint256"
        }
      ],
      "name": "updateMinterRefBonus",
      "outputs": [],
      "stateMutability": "nonpayable",
      "type": "function"
    },
    {
      "inputs": [
        {
          "internalType": "uint256",
          "name": "auctionId",
          "type": "uint256"
        },
        {
          "internalType": "address",
          "name": "newPaymentMtd",
          "type": "address"
        }
      ],
      "name": "updatePaymentMethod",
      "outputs": [],
      "stateMutability": "nonpayable",
      "type": "function"
    },
    {
      "inputs": [
        {
          "internalType": "uint256",
          "name": "newCut",
          "type": "uint256"
        }
      ],
      "name": "updatePlatformCut",
      "outputs": [],
      "stateMutability": "nonpayable",
      "type": "function"
    },
    {
      "inputs": [
        {
          "internalType": "address",
          "name": "feesReceiver",
          "type": "address"
        }
      ],
      "name": "updatePlatformVault",
      "outputs": [],
      "stateMutability": "nonpayable",
      "type": "function"
    },
    {
      "inputs": [
        {
          "internalType": "address",
          "name": "auctionToken",
          "type": "address"
        },
        {
          "internalType": "uint256",
          "name": "auctionTokenId",
          "type": "uint256"
        },
        {
          "internalType": "uint256",
          "name": "currentBidValue",
          "type": "uint256"
        }
      ],
      "name": "viewRoyaltyPayments",
      "outputs": [
        {
          "internalType": "address payable[]",
          "name": "recipients",
          "type": "address[]"
        },
        {
          "internalType": "uint256[]",
          "name": "amounts",
          "type": "uint256[]"
        },
        {
          "internalType": "uint256",
          "name": "total",
          "type": "uint256"
        }
      ],
      "stateMutability": "view",
      "type": "function"
    },
    {
      "stateMutability": "payable",
      "type": "receive"
    }
  ],
  "bytecode": "0x6080604052620151806012556104b06013556032601455600560158190556016556017805460ff191690553480156200003757600080fd5b506040516200413b3803806200413b8339810160408190526200005a916200012e565b60016000818155805260036020527f3617319a054d772f909f7c479a2cebe5066e836a939412e32403c99029b92eff805460ff19169091179055601080546001600160a01b0319166001600160a01b038316179055620000b96200012a565b601180546001600160a01b0319166001600160a01b0392909216919091179055620000e36200012a565b6001600160a01b031660006001600160a01b03167ff8ccb027dfcd135e000e9d45e6cc2d662578a8825d4c45b5e32e0adf67e79ec660405160405180910390a3506200015e565b3390565b60006020828403121562000140578081fd5b81516001600160a01b038116811462000157578182fd5b9392505050565b613fcd806200016e6000396000f3fe6080604052600436106102975760003560e01c80636a42b8f81161015a5780639fa2709b116100c1578063dd4b7b9f1161007a578063dd4b7b9f146107ba578063e1edc079146107da578063ebaa4470146107fa578063f851a4401461081a578063f9e454d01461082f578063ff6984691461085e576102bd565b80639fa2709b14610728578063aa271e1a14610748578063adfcdc1114610768578063b1893f171461077b578063bf47dac214610790578063dc74f198146107a5576102bd565b806387a808831161011357806387a80883146106655780638b9e8594146106935780638f283970146106a857806396b5a755146106c8578063990ae82b146106e85780639c040e7f14610708576102bd565b80636a42b8f8146105c5578063709920c1146105da578063751f8af7146105ef57806378bd7935146106045780638337e95c1461063b5780638456cb5914610650576102bd565b806328fec8a5116101fe57806356b602f6116101b757806356b602f61461050e57806359e65e3c1461052e5780635c975abb146105435780635e3b15771461055857806368d525651461058557806369f6f948146105a5576102bd565b806328fec8a514610462578063393271ed146104825780633f4ba83a146104af57806342a96e94146104c457806342da271a146104e45780634ebf0bcc146104f9576102bd565b806320f094f81161025057806320f094f8146103a9578063236ed8f3146103cb57806323dcbec6146103de5780632598f2531461040d578063267822471461042d57806326e245c014610442576102bd565b80630d25375d146102c25780630e5a5abe146102e45780631094db1b14610304578063150b7a021461032f578063158bfcfe1461035c5780631f0e157114610389576102bd565b366102bd5760405162461bcd60e51b81526004016102b490613a26565b60405180910390fd5b600080fd5b3480156102ce57600080fd5b506102e26102dd3660046134f1565b61087e565b005b3480156102f057600080fd5b506102e26102ff3660046134f1565b6108bd565b34801561031057600080fd5b506103196108fc565b6040516103269190613820565b60405180910390f35b34801561033b57600080fd5b5061034f61034a366004613190565b610954565b604051610326919061383e565b34801561036857600080fd5b5061037c61037736600461357c565b610964565b6040516103269190613833565b34801561039557600080fd5b506102e26103a43660046134f1565b610a80565b3480156103b557600080fd5b506103be610abf565b60405161032691906135f6565b61037c6103d93660046134f1565b610ace565b3480156103ea57600080fd5b506103fe6103f9366004613273565b610f95565b60405161032693929190613760565b34801561041957600080fd5b506103be6104283660046134f1565b61106e565b34801561043957600080fd5b506103be611089565b34801561044e57600080fd5b506102e261045d366004613120565b611098565b34801561046e57600080fd5b506102e261047d366004613120565b6110f4565b34801561048e57600080fd5b506104a261049d366004613158565b611150565b6040516103269190613e5c565b3480156104bb57600080fd5b506102e261116d565b3480156104d057600080fd5b506104a26104df366004613248565b6111b3565b3480156104f057600080fd5b506104a26111d0565b34801561050557600080fd5b506102e26111d6565b34801561051a57600080fd5b5061037c610529366004613120565b611284565b34801561053a57600080fd5b506104a2611299565b34801561054f57600080fd5b5061037c61129f565b34801561056457600080fd5b506105786105733660046134f1565b6112a8565b60405161032691906137c8565b34801561059157600080fd5b506102e26105a0366004613521565b611330565b3480156105b157600080fd5b506102e26105c0366004613120565b6113ec565b3480156105d157600080fd5b506104a261146e565b3480156105e657600080fd5b506102e2611475565b3480156105fb57600080fd5b506104a2611566565b34801561061057600080fd5b5061062461061f3660046134f1565b61156c565b6040516103269b9a99989796959493929190613648565b34801561064757600080fd5b506103be6115db565b34801561065c57600080fd5b506102e26115ea565b34801561067157600080fd5b5061068561068036600461357c565b611633565b6040516103269291906136ba565b34801561069f57600080fd5b506104a2611676565b3480156106b457600080fd5b506102e26106c3366004613120565b61167c565b3480156106d457600080fd5b5061037c6106e33660046134f1565b61172f565b3480156106f457600080fd5b50610319610703366004613158565b6118cb565b34801561071457600080fd5b506102e26107233660046133d9565b611b00565b34801561073457600080fd5b506102e26107433660046132a7565b61213c565b34801561075457600080fd5b5061037c610763366004613120565b61227c565b6102e261077636600461357c565b612291565b34801561078757600080fd5b506104a2612599565b34801561079c57600080fd5b506103be61259f565b3480156107b157600080fd5b506104a26125ae565b3480156107c657600080fd5b506102e26107d5366004613521565b6125b4565b3480156107e657600080fd5b506104a26107f5366004613273565b6126c9565b34801561080657600080fd5b50610319610815366004613120565b61270d565b34801561082657600080fd5b506103be612779565b34801561083b57600080fd5b5061084f61084a366004613545565b612788565b60405161032693929190613ef6565b34801561086a57600080fd5b506102e26108793660046134f1565b612828565b6011546001600160a01b031661089261298b565b6001600160a01b0316146108b85760405162461bcd60e51b81526004016102b490613b92565b601555565b6011546001600160a01b03166108d161298b565b6001600160a01b0316146108f75760405162461bcd60e51b81526004016102b490613b92565b601455565b6060600980548060200260200160405190810160405280929190818152602001828054801561094a57602002820191906000526020600020905b815481526020019060010190808311610936575b5050505050905090565b630a85bd0160e11b949350505050565b60175460009060ff161561098a5760405162461bcd60e51b81526004016102b490613b10565b600083815260016020526040902080548491906001600160a01b03166109ae61298b565b6001600160a01b0316146109d45760405162461bcd60e51b81526004016102b490613a90565b600085815260016020526040902060058101548691901580156109f95750600a810154155b610a155760405162461bcd60e51b81526004016102b490613c88565b600087815260016020526040908190206004810180549089905560088201549251919290917f15819dd2fd9f6418b142e798d08a18d0bf06ea368f4480b7b0d3f75bd966bc4891610a699184908c90613ef6565b60405180910390a150600198975050505050505050565b6011546001600160a01b0316610a9461298b565b6001600160a01b031614610aba5760405162461bcd60e51b81526004016102b490613b92565b601255565b6010546001600160a01b031681565b60175460009060ff1615610af45760405162461bcd60e51b81526004016102b490613b10565b60026000541415610b175760405162461bcd60e51b81526004016102b490613dda565b6002600090815582815260016020526040902080546001600160a01b0316610b3d61298b565b6001600160a01b03161480610b6e575060028101546001600160a01b0316610b6361298b565b6001600160a01b0316145b610b8a5760405162461bcd60e51b81526004016102b490613d42565b806004015481600501541015610bb25760405162461bcd60e51b81526004016102b490613c3f565b80600a0154610bbf61298f565b1015610bdd5760405162461bcd60e51b81526004016102b490613c08565b8054600582015460009182918291610c009188916001600160a01b031690612788565b600687015492955090935091506001600160a01b0316610d1f57601054610c30906001600160a01b031684612993565b8115610d1a576008840154600090815260076020526040902054610c5d906001600160a01b031683612993565b6008840180546000908152600760208181526040808420546001600160a01b03908116855260068084528286208b54831687528452828620805460019081019091558b5483168752818552838720885488528686528488205484168852855283872080549091019055955485529290915291829020549287015491517fd910938f9ddba683b335a0a42dc6648f7c07ed578fa8b289f4694a3c21922cd293610d11938b939182169288929190911690613e84565b60405180910390a15b610e31565b6006840154601054610d3e916001600160a01b03908116911685612a0f565b8115610e315760068401546008850154600090815260076020526040902054610d74916001600160a01b03908116911684612a0f565b6008840180546000908152600760208181526040808420546001600160a01b03908116855260068084528286208b54831687528452828620805460019081019091558b5483168752818552838720885488528686528488205484168852855283872080549091019055955485529290915291829020549287015491517fd910938f9ddba683b335a0a42dc6648f7c07ed578fa8b289f4694a3c21922cd293610e28938b939182169288929190911690613e84565b60405180910390a15b60088401546001850154600386015460058701546006880154610e6394936001600160a01b0390811693929116612a23565b600184015460038501546005860154600092610e8a926001600160a01b03909116916126c9565b6006860154909150610ea79088906001600160a01b031683612b2b565b600185015460028601546003870154604051632142170760e11b81526001600160a01b039384169384936342842e0e93610ee993309390921691600401613624565b600060405180830381600087803b158015610f0357600080fd5b505af1158015610f17573d6000803e3d6000fd5b5050505060098601805460ff191660021790556008860154600187015460038801546040517ffdc6c9bf7681f58de9134db5fa17741bdabc968cee7548bcda287f6e82b8d54d93610f799390926001600160a01b039091169187908990613eca565b60405180910390a1600196505050505050506001600055919050565b600d54604051637a99dc0160e11b815260609182916000916001600160a01b03169063f533b80290610fcf9089908990899060040161373f565b60006040518083038186803b158015610fe757600080fd5b505afa158015610ffb573d6000803e3d6000fd5b505050506040513d6000823e601f3d908101601f191682016040526110239190810190613316565b909350915060005b82518110156110645761105a83828151811061104357fe5b602002602001015183612d3690919063ffffffff16565b915060010161102b565b5093509350939050565b6007602052600090815260409020546001600160a01b031681565b600b546001600160a01b031681565b6011546001600160a01b03166110ac61298b565b6001600160a01b0316146110d25760405162461bcd60e51b81526004016102b490613b92565b600d80546001600160a01b0319166001600160a01b0392909216919091179055565b6011546001600160a01b031661110861298b565b6001600160a01b03161461112e5760405162461bcd60e51b81526004016102b490613b92565b601080546001600160a01b0319166001600160a01b0392909216919091179055565b600660209081526000928352604080842090915290825290205481565b6011546001600160a01b031661118161298b565b6001600160a01b0316146111a75760405162461bcd60e51b81526004016102b490613b92565b6017805460ff19169055565b600260209081526000928352604080842090915290825290205481565b60155481565b6011546001600160a01b03166111ea61298b565b6001600160a01b0316146112105760405162461bcd60e51b81526004016102b490613b92565b600b546001600160a01b03161561123757600b80546001600160a01b03191690556000600c555b7ff6e78b888697ff479ebf2bd530914c94038ef7a63da1fbb639bc6d40a169b13661126061298b565b600b5460405161127a92916001600160a01b03169061360a565b60405180910390a1565b60036020526000908152604090205460ff1681565b60165481565b60175460ff1681565b606060086000838152602001908152602001600020805480602002602001604051908101604052809291908181526020016000905b82821015611325576000848152602090819020604080518082019091526002850290910180546001600160a01b031682526001908101548284015290835290920191016112dd565b505050509050919050565b600082815260016020526040902080548391906001600160a01b031661135461298b565b6001600160a01b03161461137a5760405162461bcd60e51b81526004016102b490613a90565b6000848152600160205260409081902080546001600160a01b038681166001600160a01b031983161783559251919216907f52675fa98882125168352bf9383f1f5f530cbdba22e63a59e50bea405c9008f1906113dc90889084908990613eab565b60405180910390a1505050505050565b6011546001600160a01b031661140061298b565b6001600160a01b0316146114265760405162461bcd60e51b81526004016102b490613b92565b6001600160a01b03811661144c5760405162461bcd60e51b81526004016102b490613a6d565b600f80546001600160a01b0319166001600160a01b0392909216919091179055565b6202a30081565b6011546001600160a01b031661148961298b565b6001600160a01b0316146114af5760405162461bcd60e51b81526004016102b490613b92565b6000600c541180156114cb5750600b546001600160a01b031615155b1561152357600c546114db61298f565b116114f85760405162461bcd60e51b81526004016102b490613bc7565b600b8054601180546001600160a01b03199081166001600160a01b038416179091556000600c551690555b7ff33589017275da9766c166bb90ee92c785a1c4412558882d367fb50165f5185561154c61298b565b60115460405161127a92916001600160a01b03169061360a565b60135481565b600160208190526000918252604090912080549181015460028201546003830154600484015460058501546006860154600787015460088801546009890154600a909901546001600160a01b039a8b169a988916999789169896979596949594909316939192909160ff16908b565b600f546001600160a01b031681565b6011546001600160a01b03166115fe61298b565b6001600160a01b0316146116245760405162461bcd60e51b81526004016102b490613b92565b6017805460ff19166001179055565b6008602052816000526040600020818154811061164c57fe5b6000918252602090912060029091020180546001909101546001600160a01b039091169250905082565b60145481565b6011546001600160a01b031661169061298b565b6001600160a01b0316146116b65760405162461bcd60e51b81526004016102b490613b92565b600b80546001600160a01b0319166001600160a01b0383161790556202a3006116dd61298f565b01600c557fcf9b665e0639e0b81a8db37b60ac7ddf45aeb1b484e11adeb7dff4bf4a3a625861170a61298b565b60115460405161172492916001600160a01b03169061360a565b60405180910390a150565b60175460009060ff16156117555760405162461bcd60e51b81526004016102b490613b10565b600082815260016020526040902080548391906001600160a01b031661177961298b565b6001600160a01b03161461179f5760405162461bcd60e51b81526004016102b490613a90565b600084815260016020526040902060058101548591901580156117c45750600a810154155b6117e05760405162461bcd60e51b81526004016102b490613c88565b60008681526001602081905260409182902090810154815460038301549351632142170760e11b815292936001600160a01b03928316936342842e0e9361182e933093911691600401613624565b600060405180830381600087803b15801561184857600080fd5b505af115801561185c573d6000803e3d6000fd5b5050505060098101805460ff1916600190811790915581015460038201546040517faa17fdf5ffb610a4cc0887f35c13c501975a370005080f68441055871952eb81926118b6928b926001600160a01b0390921691613e65565b60405180910390a15060019695505050505050565b6040516370a0823160e01b815260609082906000906001600160a01b038316906370a08231906118ff9088906004016135f6565b60206040518083038186803b15801561191757600080fd5b505afa15801561192b573d6000803e3d6000fd5b505050506040513d601f19601f8201168201806040525081019061194f9190613509565b90508061196e5750506040805160008152602081019091529050611afa565b60608167ffffffffffffffff8111801561198757600080fd5b506040519080825280602002602001820160405280156119b1578160200160208202803683370190505b5090506000836001600160a01b03166318160ddd6040518163ffffffff1660e01b815260040160206040518083038186803b1580156119ef57600080fd5b505afa158015611a03573d6000803e3d6000fd5b505050506040513d601f19601f82011682018060405250810190611a279190613509565b9050600060015b828111611af157886001600160a01b0316866001600160a01b0316636352211e836040518263ffffffff1660e01b8152600401611a6b9190613e5c565b60206040518083038186803b158015611a8357600080fd5b505afa158015611a97573d6000803e3d6000fd5b505050506040513d601f19601f82011682018060405250810190611abb919061313c565b6001600160a01b03161415611ae95780848381518110611ad757fe5b60209081029190910101526001909101905b600101611a2e565b50919450505050505b92915050565b60175460ff1615611b235760405162461bcd60e51b81526004016102b490613b10565b836000611b2f87612d5b565b611b4b5760405162461bcd60e51b81526004016102b490613ac7565b6001600160a01b03831660009081526003602052604090205460ff16611b835760405162461bcd60e51b81526004016102b490613e11565b6040516331a9108f60e11b81526000906001600160a01b03841690636352211e90611bb2908990600401613e5c565b60206040518083038186803b158015611bca57600080fd5b505afa158015611bde573d6000803e3d6000fd5b505050506040513d601f19601f82011682018060405250810190611c02919061313c565b604051632142170760e11b81529091506001600160a01b038416906342842e0e90611c3590849030908b90600401613624565b600060405180830381600087803b158015611c4f57600080fd5b505af1158015611c63573d6000803e3d6000fd5b50506040516331a9108f60e11b81523092506001600160a01b0386169150636352211e90611c95908a90600401613e5c565b60206040518083038186803b158015611cad57600080fd5b505afa158015611cc1573d6000803e3d6000fd5b505050506040513d601f19601f82011682018060405250810190611ce5919061313c565b6001600160a01b031614611d0b5760405162461bcd60e51b81526004016102b4906139ef565b611d15600e612dc0565b611d1f600e612dc9565b60088301556001820180546001600160a01b038981166001600160a01b03199283161790925583548383169082161784556003840188905560048401879055600684018054928716929091169190911790556000600a8301819055600583015560098201805460ff19169055611d9361298f565b600783015560088201546009805460018101825560009182527f6e1540171b6c0c960b71a7020d9f60077f6af931a8bbf590da0223dacf75c7af0191909155600490611ddd61298b565b6001600160a01b03908116825260208083019390935260409182016000908120600880880180548354600181810186559486528886200155805484529582905293909120865481546001600160a01b03199081169185169190911782558288015482840180548316918616919091179055600280890154818401805484169187169190911790556003808a0154908401556004808a0154908401556005808a0154908401556006808a01549084018054909316951694909417905560078088015490820155935492840192909255600980860154908401805487959460ff90931693919260ff19909116918490811115611ed357fe5b0217905550600a9182015491015560005b8851811015611f60576008600084600801548152602001908152602001600020898281518110611f1057fe5b602090810291909101810151825460018082018555600094855293839020825160029092020180546001600160a01b0319166001600160a01b039092169190911781559101519082015501611ee4565b50600f546001600160a01b038881169116148015611ffb5750600f546040516355138f0d60e11b81526001600160a01b039091169063aa271e1a90611fa99084906004016135f6565b602060405180830381600087803b158015611fc357600080fd5b505af1158015611fd7573d6000803e3d6000fd5b505050506040513d601f19601f82011682018060405250810190611ffb91906134d1565b156120d1576001600160a01b0380821660009081526005602052604090819020805460ff1916600117905583549051635487c74d60e11b81528983169263a90f8e9a9261204d929116906004016135f6565b602060405180830381600087803b15801561206757600080fd5b505af115801561207b573d6000803e3d6000fd5b505050506040513d601f19601f8201168201806040525081019061209f919061313c565b6008830154600090815260076020526040902080546001600160a01b0319166001600160a01b03929092169190911790555b7f9d87b8ce3e92da5e275d5c5f9e44d135df14fcd26d1a930ae847875c13c2ac646120fa61298b565b600884015460018501546003860154600487015460405161212a9594936001600160a01b03169291908b90613707565b60405180910390a15050505050505050565b6011546001600160a01b031661215061298b565b6001600160a01b0316146121765760405162461bcd60e51b81526004016102b490613b92565b60005b8181101561227757600083838381811061218f57fe5b90506020020160208101906121a49190613120565b6001600160a01b031614156121cb5760405162461bcd60e51b81526004016102b490613a6d565b600a8383838181106121d957fe5b90506020020160208101906121ee9190613120565b81546001808201845560009384526020842090910180546001600160a01b0319166001600160a01b0393909316929092179091559060039085858581811061223257fe5b90506020020160208101906122479190613120565b6001600160a01b031681526020810191909152604001600020805460ff1916911515919091179055600101612179565b505050565b60056020526000908152604090205460ff1681565b60175460ff16156122b45760405162461bcd60e51b81526004016102b490613b10565b600260005414156122d75760405162461bcd60e51b81526004016102b490613dda565b6002600090815582815260016020526040902060058101541580156122fe5750600a810154155b156123b45760068101546001600160a01b031661233e5780600401543410156123395760405162461bcd60e51b81526004016102b490613886565b612396565b60068101546001600160a01b0316156123965780600401548210156123755760405162461bcd60e51b81526004016102b490613886565b61239661238061298b565b60068301546001600160a01b0316903085612dcd565b6123aa6012546123a461298f565b90612d36565b600a8201556124ff565b6005810154158015906123ca5750600a81015415155b156124ff5760068101546001600160a01b031661243e576123fe6123f38260050154600a612e25565b600583015490612d36565b341161241c5760405162461bcd60e51b81526004016102b490613886565b60028101546005820154612439916001600160a01b031690612993565b6124a1565b6124506123f38260050154600a612e25565b82101561246f5760405162461bcd60e51b81526004016102b490613886565b61247a61238061298b565b6002810154600582015460068301546124a1926001600160a01b0391821692911690612e3c565b600081600a01541180156124cc57506013546124c96124be61298f565b600a84015490612e5b565b11155b80156124e3575060016124e06124be61298f565b10155b156124ff57601354600a8201546124f991612d36565b600a8201555b61250761298b565b6002820180546001600160a01b0319166001600160a01b0392909216919091179055600581018290557fa65f0194dcdd5b8159745e76591d7e4b2e26b6f7df9727f0f93129011351031961255961298b565b60088301546001840154600385015460058601546040516125879594936001600160a01b03169291906136d3565b60405180910390a15050600160005550565b600c5481565b600d546001600160a01b031681565b60125481565b60175460ff16156125d75760405162461bcd60e51b81526004016102b490613b10565b600082815260016020526040902080548391906001600160a01b03166125fb61298b565b6001600160a01b0316146126215760405162461bcd60e51b81526004016102b490613a90565b600084815260016020526040902060058101548591901580156126465750600a810154155b6126625760405162461bcd60e51b81526004016102b490613c88565b600086815260016020526040908190206006810180546001600160a01b038981166001600160a01b03198316179092559251919216907fb278bd6a44ab71cfade954c8c5a58435704bab83082a75360091bee0395f32a09061212a908a9084908b90613eab565b6000806126d883601454612e83565b905060006126e7868686610f95565b925061270191508390506126fb8684612e5b565b90612e5b565b925050505b9392505050565b6001600160a01b03811660009081526004602090815260409182902080548351818402810184019094528084526060939283018282801561276d57602002820191906000526020600020905b815481526020019060010190808311612759575b50505050509050919050565b6011546001600160a01b031681565b6000838152600760209081526040808320546001600160a01b03908116845260068352818420908616845282528083205460059092528220548291829185919060ff1680156127d8575060165481105b15612802576127e982601554612e83565b93506127fb846126fb84601454612e83565b9450612811565b61280e82601454612e83565b94505b61281b8585612d36565b9250505093509350939050565b6011546001600160a01b031661283c61298b565b6001600160a01b0316146128625760405162461bcd60e51b81526004016102b490613b92565b6017805460ff19166001908117909155600082815260209190915260409020600a810154158015906128975750600581015415155b156128f75760068101546001600160a01b0316156128da576006810154600282015460058301546128d5926001600160a01b03908116921690612a0f565b6128f7565b600281015460058201546128f7916001600160a01b031690612993565b600181015481546003830154604051632142170760e11b81526001600160a01b039384169384936342842e0e9361293693309390921691600401613624565b600060405180830381600087803b15801561295057600080fd5b505af1158015612964573d6000803e3d6000fd5b5050506009830180546001925060ff191682800217905550506017805460ff191690555050565b3390565b4290565b6000826001600160a01b0316826040516129ac906135f3565b60006040518083038185875af1925050503d80600081146129e9576040519150601f19603f3d011682016040523d82523d6000602084013e6129ee565b606091505b50509050806122775760405162461bcd60e51b81526004016102b4906138d7565b6122776001600160a01b0384168383612e3c565b606080612a31868686610f95565b509150915060005b8251811015612b21576001600160a01b038416612a8557612a80838281518110612a5f57fe5b6020026020010151838381518110612a7357fe5b6020026020010151612993565b612ab6565b612ab684848381518110612a9557fe5b6020026020010151848481518110612aa957fe5b6020026020010151612a0f565b7fad5d994c2f75bc7fbbf9bcca36808f3634611bfffde7356ca273d32af155bc8d88848381518110612ae457fe5b6020026020010151848481518110612af857fe5b602002602001015187604051612b119493929190613e84565b60405180910390a1600101612a39565b5050505050505050565b808015612d305760005b600085815260086020526040902054811015612d2e5760008581526008602052604081205460001901821015612baf5760008681526008602052604090208054612b9c91869185908110612b8557fe5b906000526020600020906002020160010154612e83565b9050612ba88382612e5b565b9250612bb2565b50815b6001600160a01b038516612c745760008681526008602052604090208054612bff919084908110612bdf57fe5b60009182526020909120600290910201546001600160a01b031682612993565b600086815260086020526040902080547fc978478a05ac4abd47af9ef43a7656e78cd783262621455ff33493b670421e6591889185908110612c3d57fe5b6000918252602090912060029091020154604051612c6792916001600160a01b0316908590613e65565b60405180910390a1612d25565b60008681526008602052604090208054612cb491879185908110612c9457fe5b60009182526020909120600290910201546001600160a01b031683612a0f565b600086815260086020526040902080547fc978478a05ac4abd47af9ef43a7656e78cd783262621455ff33493b670421e6591889185908110612cf257fe5b6000918252602090912060029091020154604051612d1c92916001600160a01b0316908590613e65565b60405180910390a15b50600101612b35565b505b50505050565b6000828201838110156127065760405162461bcd60e51b81526004016102b490613904565b6000600a82511115612d7f5760405162461bcd60e51b81526004016102b490613d01565b6000805b8351811015612db557838181518110612d9857fe5b602002602001015160200151820191508080600101915050612d83565b506103e81492915050565b80546001019055565b5490565b612d30846323b872dd60e01b858585604051602401612dee93929190613624565b60408051601f198184030181529190526020810180516001600160e01b03166001600160e01b031990931692909217909152612e95565b60006127066064612e368585612f24565b90612f5e565b6122778363a9059cbb60e01b8484604051602401612dee9291906136ba565b600082821115612e7d5760405162461bcd60e51b81526004016102b49061393b565b50900390565b60006127066103e8612e368585612f24565b6060612eea826040518060400160405280602081526020017f5361666545524332303a206c6f772d6c6576656c2063616c6c206661696c6564815250856001600160a01b0316612f909092919063ffffffff16565b8051909150156122775780806020019051810190612f0891906134d1565b6122775760405162461bcd60e51b81526004016102b490613d90565b600082612f3357506000611afa565b82820282848281612f4057fe5b04146127065760405162461bcd60e51b81526004016102b490613b51565b6000808211612f7f5760405162461bcd60e51b81526004016102b4906139b8565b818381612f8857fe5b049392505050565b6060612f9f8484600085612fa7565b949350505050565b606082471015612fc95760405162461bcd60e51b81526004016102b490613972565b612fd285613068565b612fee5760405162461bcd60e51b81526004016102b490613cca565b60006060866001600160a01b0316858760405161300b91906135d7565b60006040518083038185875af1925050503d8060008114613048576040519150601f19603f3d011682016040523d82523d6000602084013e61304d565b606091505b509150915061305d82828661306e565b979650505050505050565b3b151590565b6060831561307d575081612706565b82511561308d5782518084602001fd5b8160405162461bcd60e51b81526004016102b49190613853565b8035611afa81613f7f565b600082601f8301126130c2578081fd5b81516130d56130d082613f33565b613f0c565b8181529150602080830190848101818402860182018710156130f657600080fd5b60005b84811015613115578151845292820192908201906001016130f9565b505050505092915050565b600060208284031215613131578081fd5b813561270681613f7f565b60006020828403121561314d578081fd5b815161270681613f7f565b6000806040838503121561316a578081fd5b823561317581613f7f565b9150602083013561318581613f7f565b809150509250929050565b600080600080608085870312156131a5578182fd5b84356131b081613f7f565b93506020858101356131c181613f7f565b935060408601359250606086013567ffffffffffffffff808211156131e4578384fd5b818801915088601f8301126131f7578384fd5b813581811115613205578485fd5b613217601f8201601f19168501613f0c565b9150808252898482850101111561322c578485fd5b8084840185840137810190920192909252939692955090935050565b6000806040838503121561325a578182fd5b823561326581613f7f565b946020939093013593505050565b600080600060608486031215613287578283fd5b833561329281613f7f565b95602085013595506040909401359392505050565b600080602083850312156132b9578182fd5b823567ffffffffffffffff808211156132d0578384fd5b818501915085601f8301126132e3578384fd5b8135818111156132f1578485fd5b8660208083028501011115613304578485fd5b60209290920196919550909350505050565b60008060408385031215613328578182fd5b825167ffffffffffffffff8082111561333f578384fd5b818501915085601f830112613352578384fd5b81516133606130d082613f33565b80828252602080830192508086018a828387028901011115613380578889fd5b8896505b848710156133ab57805161339781613f7f565b845260019690960195928101928101613384565b5088015190965093505050808211156133c2578283fd5b506133cf858286016130b2565b9150509250929050565b600080600080600060a086880312156133f0578081fd5b853567ffffffffffffffff811115613406578182fd5b8601601f81018813613416578182fd5b80356134246130d082613f33565b808282526020808301925080850160408d838288028901011115613446578788fd5b8796505b858710156134935780828f031215613460578788fd5b61346981613f0c565b6134738f846130a7565b81528284013584820152855260019690960195938201939081019061344a565b839b506134a28e848f016130a7565b9a50808d0135995050505050505050606086013591506134c587608088016130a7565b90509295509295909350565b6000602082840312156134e2578081fd5b81518015158114612706578182fd5b600060208284031215613502578081fd5b5035919050565b60006020828403121561351a578081fd5b5051919050565b60008060408385031215613533578182fd5b82359150602083013561318581613f7f565b600080600060608486031215613559578081fd5b83359250602084013561356b81613f7f565b929592945050506040919091013590565b6000806040838503121561358e578182fd5b50508035926020909101359150565b6000815180845260208085019450808401835b838110156135cc578151875295820195908201906001016135b0565b509495945050505050565b600082516135e9818460208701613f53565b9190910192915050565b90565b6001600160a01b0391909116815260200190565b6001600160a01b0392831681529116602082015260400190565b6001600160a01b039384168152919092166020820152604081019190915260600190565b6001600160a01b038c811682528b811660208301528a81166040830152606082018a90526080820189905260a08201889052861660c082015260e08101859052610100810184905261016081016003841061369f57fe5b61012082019390935261014001529998505050505050505050565b6001600160a01b03929092168252602082015260400190565b6001600160a01b03958616815260208101949094529190931660408301526060820192909252608081019190915260a00190565b6001600160a01b039687168152602081019590955292851660408501526060840191909152608083015290911660a082015260c00190565b6001600160a01b039390931683526020830191909152604082015260600190565b606080825284519082018190526000906020906080840190828801845b828110156137a25781516001600160a01b03168452928401929084019060010161377d565b505050838103828501526137b6818761359d565b92505050826040830152949350505050565b602080825282518282018190526000919060409081850190868401855b8281101561381357815180516001600160a01b031685528601518685015292840192908501906001016137e5565b5091979650505050505050565b600060208252612706602083018461359d565b901515815260200190565b6001600160e01b031991909116815260200190565b6000602082528251806020840152613872816040850160208701613f53565b601f01601f19169190910160400192915050565b60208082526031908201527f44656c66794d61726b65743a204269645f76616c75655f6d7573745f62655f3e60408201527063757272656e745f6269645f76616c756560781b606082015260800190565b60208082526013908201527211551217dd1c985b9cd9995c97d9985a5b1959606a1b604082015260600190565b6020808252601b908201527f536166654d6174683a206164646974696f6e206f766572666c6f770000000000604082015260600190565b6020808252601e908201527f536166654d6174683a207375627472616374696f6e206f766572666c6f770000604082015260600190565b60208082526026908201527f416464726573733a20696e73756666696369656e742062616c616e636520666f6040820152651c8818d85b1b60d21b606082015260800190565b6020808252601a908201527f536166654d6174683a206469766973696f6e206279207a65726f000000000000604082015260600190565b6020808252601c908201527f44656c66794d61726b65743a205472616e73666572204661696c656400000000604082015260600190565b60208082526027908201527f44656c66794d61726b65743a20596f75206861766520746f206d616b652070756040820152667263686173652160c81b606082015260800190565b6020808252600990820152680616464726573735f360bc1b604082015260600190565b6020808252601f908201527f44656c66794d61726b65743a206f6e6c795f61756374696f6e5f6f776e657200604082015260600190565b60208082526029908201527f44656c66794d61726b65743a20696e76616c6964207061796d656e74206469736040820152683a3934b13aba34b7b760b91b606082015260800190565b60208082526021908201527f44656c66794d61726b65743a206f6e6c795f7768656e5f6e6f745f70617573656040820152601960fa1b606082015260800190565b60208082526021908201527f536166654d6174683a206d756c7469706c69636174696f6e206f766572666c6f6040820152607760f81b606082015260800190565b6020808252818101527f4f776e61626c653a2063616c6c6572206973206e6f7420746865206f776e6572604082015260600190565b60208082526021908201527f44656c667945524332303a206f776e6572206170706c7920746f6f206561726c6040820152607960f81b606082015260800190565b6020808252601f908201527f44656c66794d61726b65743a2041756374696f6e5f6e6f745f636c6f73656400604082015260600190565b60208082526029908201527f44656c66794d61726b65743a20636c6f73655f73616c655f62795f63616e6365604082015268362fb0bab1ba34b7b760b91b606082015260800190565b60208082526022908201527f44656c66794d61726b65743a206f6e6c795f6265666f72655f66697273745f626040820152611a5960f21b606082015260800190565b6020808252601d908201527f416464726573733a2063616c6c20746f206e6f6e2d636f6e7472616374000000604082015260600190565b60208082526021908201527f44656c66794d61726b65743a20696e76616c696420706179746f206c656e67746040820152600d60fb1b606082015260800190565b6020808252602e908201527f44656c66794d61726b65743a206f6e6c795f61756374696f6e5f6f776e65725f60408201526d30b7322fb630b9ba2134b23232b960911b606082015260800190565b6020808252602a908201527f5361666545524332303a204552433230206f7065726174696f6e20646964206e6040820152691bdd081cdd58d8d9595960b21b606082015260800190565b6020808252601f908201527f5265656e7472616e637947756172643a207265656e7472616e742063616c6c00604082015260600190565b6020808252602b908201527f44656c66794d61726b65743a206f6e6c7920737570706f72746564207061796d60408201526a656e74206d6574686f647360a81b606082015260800190565b90815260200190565b9283526001600160a01b03919091166020830152604082015260600190565b9384526001600160a01b039283166020850152604084019190915216606082015260800190565b9283526001600160a01b03918216602084015216604082015260600190565b9485526001600160a01b0393909316602085015260408401919091526060830152608082015260a00190565b9283526020830191909152604082015260600190565b60405181810167ffffffffffffffff81118282101715613f2b57600080fd5b604052919050565b600067ffffffffffffffff821115613f49578081fd5b5060209081020190565b60005b83811015613f6e578181015183820152602001613f56565b83811115612d305750506000910152565b6001600160a01b0381168114613f9457600080fd5b5056fea2646970667358221220c5d6f9fca00a802de1c3ae1d65a7b553e4c58091b383286ba4131d47241083b464736f6c634300060c0033",
  "linkReferences": {},
  "deployedLinkReferences": {}
}